{
  "contractName": "SocialNetwork",
  "abi": [
    {
      "inputs": [],
      "payable": false,
      "stateMutability": "nonpayable",
      "type": "constructor"
    },
    {
      "anonymous": false,
      "inputs": [
        {
          "indexed": false,
          "internalType": "uint256",
          "name": "newQuote",
          "type": "uint256"
        },
        {
          "indexed": false,
          "internalType": "uint256",
          "name": "bid",
          "type": "uint256"
        },
        {
          "indexed": false,
          "internalType": "uint256",
          "name": "offer",
          "type": "uint256"
        },
        {
          "indexed": false,
          "internalType": "string",
          "name": "remarks",
          "type": "string"
        }
      ],
      "name": "FailedTxn",
      "type": "event"
    },
    {
      "anonymous": false,
      "inputs": [
        {
          "indexed": false,
          "internalType": "uint256",
          "name": "id",
          "type": "uint256"
        },
        {
          "indexed": false,
          "internalType": "uint256",
          "name": "numLikes",
          "type": "uint256"
        }
      ],
      "name": "LikePost",
      "type": "event"
    },
    {
      "anonymous": false,
      "inputs": [
        {
          "indexed": false,
          "internalType": "uint256",
          "name": "id",
          "type": "uint256"
        },
        {
          "indexed": false,
          "internalType": "string",
          "name": "content",
          "type": "string"
        },
        {
          "indexed": false,
          "internalType": "uint256",
          "name": "likes",
          "type": "uint256"
        },
        {
          "indexed": false,
          "internalType": "address payable",
          "name": "author",
          "type": "address"
        }
      ],
      "name": "PostCreated",
      "type": "event"
    },
    {
      "anonymous": false,
      "inputs": [
        {
          "indexed": false,
          "internalType": "uint256",
          "name": "last",
          "type": "uint256"
        },
        {
          "indexed": false,
          "internalType": "uint256",
          "name": "bid",
          "type": "uint256"
        },
        {
          "indexed": false,
          "internalType": "uint256",
          "name": "offer",
          "type": "uint256"
        }
      ],
      "name": "SuccessfulTxn",
      "type": "event"
    },
    {
      "constant": true,
      "inputs": [],
      "name": "bid",
      "outputs": [
        {
          "internalType": "uint256",
          "name": "",
          "type": "uint256"
        }
      ],
      "payable": false,
      "stateMutability": "view",
      "type": "function"
    },
    {
      "constant": true,
      "inputs": [],
      "name": "bidSize",
      "outputs": [
        {
          "internalType": "uint256",
          "name": "",
          "type": "uint256"
        }
      ],
      "payable": false,
      "stateMutability": "view",
      "type": "function"
    },
    {
      "constant": true,
      "inputs": [],
      "name": "marketMaker",
      "outputs": [
        {
          "internalType": "address payable",
          "name": "",
          "type": "address"
        }
      ],
      "payable": false,
      "stateMutability": "view",
      "type": "function"
    },
    {
      "constant": true,
      "inputs": [],
      "name": "name",
      "outputs": [
        {
          "internalType": "string",
          "name": "",
          "type": "string"
        }
      ],
      "payable": false,
      "stateMutability": "view",
      "type": "function"
    },
    {
      "constant": true,
      "inputs": [],
      "name": "nonce",
      "outputs": [
        {
          "internalType": "uint256",
          "name": "",
          "type": "uint256"
        }
      ],
      "payable": false,
      "stateMutability": "view",
      "type": "function"
    },
    {
      "constant": true,
      "inputs": [],
      "name": "numPosts",
      "outputs": [
        {
          "internalType": "uint256",
          "name": "",
          "type": "uint256"
        }
      ],
      "payable": false,
      "stateMutability": "view",
      "type": "function"
    },
    {
      "constant": true,
      "inputs": [],
      "name": "offer",
      "outputs": [
        {
          "internalType": "uint256",
          "name": "",
          "type": "uint256"
        }
      ],
      "payable": false,
      "stateMutability": "view",
      "type": "function"
    },
    {
      "constant": true,
      "inputs": [
        {
          "internalType": "uint256",
          "name": "",
          "type": "uint256"
        }
      ],
      "name": "offerQueue",
      "outputs": [
        {
          "internalType": "uint256",
          "name": "",
          "type": "uint256"
        }
      ],
      "payable": false,
      "stateMutability": "view",
      "type": "function"
    },
    {
      "constant": true,
      "inputs": [],
      "name": "offerSize",
      "outputs": [
        {
          "internalType": "uint256",
          "name": "",
          "type": "uint256"
        }
      ],
      "payable": false,
      "stateMutability": "view",
      "type": "function"
    },
    {
      "constant": true,
      "inputs": [
        {
          "internalType": "uint256",
          "name": "",
          "type": "uint256"
        }
      ],
      "name": "offerers",
      "outputs": [
        {
          "internalType": "address payable",
          "name": "",
          "type": "address"
        }
      ],
      "payable": false,
      "stateMutability": "view",
      "type": "function"
    },
    {
      "constant": true,
      "inputs": [
        {
          "internalType": "uint256",
          "name": "",
          "type": "uint256"
        }
      ],
      "name": "posts",
      "outputs": [
        {
          "internalType": "uint256",
          "name": "id",
          "type": "uint256"
        },
        {
          "internalType": "string",
          "name": "content",
          "type": "string"
        },
        {
          "internalType": "uint256",
          "name": "likes",
          "type": "uint256"
        },
        {
          "internalType": "address payable",
          "name": "author",
          "type": "address"
        },
        {
          "internalType": "uint256",
          "name": "rewards",
          "type": "uint256"
        }
      ],
      "payable": false,
      "stateMutability": "view",
      "type": "function"
    },
    {
      "constant": true,
      "inputs": [],
      "name": "queueLength",
      "outputs": [
        {
          "internalType": "uint256",
          "name": "",
          "type": "uint256"
        }
      ],
      "payable": false,
      "stateMutability": "view",
      "type": "function"
    },
    {
      "constant": false,
      "inputs": [
        {
          "internalType": "string",
          "name": "_content",
          "type": "string"
        }
      ],
      "name": "createPost",
      "outputs": [],
      "payable": true,
      "stateMutability": "payable",
      "type": "function"
    },
    {
      "constant": false,
      "inputs": [
        {
          "internalType": "string",
          "name": "_content",
          "type": "string"
        }
      ],
      "name": "newQuote",
      "outputs": [],
      "payable": true,
      "stateMutability": "payable",
      "type": "function"
    },
    {
      "constant": false,
      "inputs": [
        {
          "internalType": "uint256",
          "name": "_idx",
          "type": "uint256"
        }
      ],
      "name": "clearOffer",
      "outputs": [],
      "payable": true,
      "stateMutability": "payable",
      "type": "function"
    },
    {
      "constant": false,
      "inputs": [
        {
          "internalType": "uint256",
          "name": "_id",
          "type": "uint256"
        }
      ],
      "name": "likePost",
      "outputs": [],
      "payable": false,
      "stateMutability": "nonpayable",
      "type": "function"
    },
    {
      "constant": false,
      "inputs": [
        {
          "internalType": "uint256",
          "name": "_id",
          "type": "uint256"
        }
      ],
      "name": "rewardPost",
      "outputs": [],
      "payable": true,
      "stateMutability": "payable",
      "type": "function"
    },
    {
      "constant": false,
      "inputs": [
        {
          "internalType": "uint256",
          "name": "_id",
          "type": "uint256"
        }
      ],
      "name": "rePost",
      "outputs": [],
      "payable": false,
      "stateMutability": "nonpayable",
      "type": "function"
    }
  ],
  "bytecode": "0x60806040523480156200001157600080fd5b506040518060400160405280600581526020017f41676f7261000000000000000000000000000000000000000000000000000000815250600090805190602001906200005f929190620000bf565b50600a600281905550601460048190555033600760006101000a81548173ffffffffffffffffffffffffffffffffffffffff021916908373ffffffffffffffffffffffffffffffffffffffff16021790555060016006819055506200016e565b828054600181600116156101000203166002900490600052602060002090601f016020900481019282601f106200010257805160ff191683800117855562000133565b8280016001018555821562000133579182015b828111156200013257825182559160200191906001019062000115565b5b50905062000142919062000146565b5090565b6200016b91905b80821115620001675760008160009055506001016200014d565b5090565b90565b611d78806200017e6000396000f3fe6080604052600436106101095760003560e01c80637d98fa1111610095578063c284c11a11610064578063c284c11a146105c3578063c471b737146105f1578063c7303c611461061f578063e9ded3ec146106da578063ec7331e91461070557610109565b80637d98fa1114610507578063ab91c7b014610542578063affed0e01461056d578063c028df061461059857610109565b80632b70c8fc116100dc5780632b70c8fc1461031c5780633edc4c1c1461034757806353e41a5414610396578063725009d314610451578063738030911461048c57610109565b806306fdde031461010e5780630b1e7f831461019e5780631998aeef1461029a5780631f21f9af146102c5575b600080fd5b34801561011a57600080fd5b50610123610730565b6040518080602001828103825283818151815260200191508051906020019080838360005b83811015610163578082015181840152602081019050610148565b50505050905090810190601f1680156101905780820380516001836020036101000a031916815260200191505b509250505060405180910390f35b3480156101aa57600080fd5b506101d7600480360360208110156101c157600080fd5b81019080803590602001909291905050506107ce565b60405180868152602001806020018581526020018473ffffffffffffffffffffffffffffffffffffffff1673ffffffffffffffffffffffffffffffffffffffff168152602001838152602001828103825286818151815260200191508051906020019080838360005b8381101561025b578082015181840152602081019050610240565b50505050905090810190601f1680156102885780820380516001836020036101000a031916815260200191505b50965050505050505060405180910390f35b3480156102a657600080fd5b506102af6108bc565b6040518082815260200191505060405180910390f35b3480156102d157600080fd5b506102da6108c2565b604051808273ffffffffffffffffffffffffffffffffffffffff1673ffffffffffffffffffffffffffffffffffffffff16815260200191505060405180910390f35b34801561032857600080fd5b506103316108e8565b6040518082815260200191505060405180910390f35b34801561035357600080fd5b506103806004803603602081101561036a57600080fd5b81019080803590602001909291905050506108ee565b6040518082815260200191505060405180910390f35b61044f600480360360208110156103ac57600080fd5b81019080803590602001906401000000008111156103c957600080fd5b8201836020820111156103db57600080fd5b803590602001918460018302840111640100000000831117156103fd57600080fd5b91908080601f016020809104026020016040519081016040528093929190818152602001838380828437600081840152601f19601f820116905080830192505050505050509192919290505050610906565b005b34801561045d57600080fd5b5061048a6004803603602081101561047457600080fd5b8101908080359060200190929190505050610f38565b005b34801561049857600080fd5b506104c5600480360360208110156104af57600080fd5b8101908080359060200190929190505050610fd1565b604051808273ffffffffffffffffffffffffffffffffffffffff1673ffffffffffffffffffffffffffffffffffffffff16815260200191505060405180910390f35b34801561051357600080fd5b506105406004803603602081101561052a57600080fd5b8101908080359060200190929190505050611004565b005b34801561054e57600080fd5b506105576110df565b6040518082815260200191505060405180910390f35b34801561057957600080fd5b506105826110e5565b6040518082815260200191505060405180910390f35b3480156105a457600080fd5b506105ad6110eb565b6040518082815260200191505060405180910390f35b6105ef600480360360208110156105d957600080fd5b81019080803590602001909291905050506110f1565b005b61061d6004803603602081101561060757600080fd5b8101908080359060200190929190505050611316565b005b6106d86004803603602081101561063557600080fd5b810190808035906020019064010000000081111561065257600080fd5b82018360208201111561066457600080fd5b8035906020019184600183028401116401000000008311171561068657600080fd5b91908080601f016020809104026020016040519081016040528093929190818152602001838380828437600081840152601f19601f82011690508083019250505050505050919291929050505061156d565b005b3480156106e657600080fd5b506106ef611765565b6040518082815260200191505060405180910390f35b34801561071157600080fd5b5061071a61176b565b6040518082815260200191505060405180910390f35b60008054600181600116156101000203166002900480601f0160208091040260200160405190810160405280929190818152602001828054600181600116156101000203166002900480156107c65780601f1061079b576101008083540402835291602001916107c6565b820191906000526020600020905b8154815290600101906020018083116107a957829003601f168201915b505050505081565b6008602052806000526040600020600091509050806000015490806001018054600181600116156101000203166002900480601f0160208091040260200160405190810160405280929190818152602001828054600181600116156101000203166002900480156108805780601f1061085557610100808354040283529160200191610880565b820191906000526020600020905b81548152906001019060200180831161086357829003601f168201915b5050505050908060020154908060030160009054906101000a900473ffffffffffffffffffffffffffffffffffffffff16908060040154905085565b60025481565b600760009054906101000a900473ffffffffffffffffffffffffffffffffffffffff1681565b60035481565b600a6020528060005260406000206000915090505481565b61090e611b52565b61091782611771565b905061096961095a6040518060400160405280600481526020017f4249443a00000000000000000000000000000000000000000000000000000000815250611771565b8261179f90919063ffffffff16565b15610cb9576003600081548092919060010191905055506109d06109c16040518060400160405280600181526020017f3a00000000000000000000000000000000000000000000000000000000000000815250611771565b826117f890919063ffffffff16565b5060606109dc82611812565b905060006109e982611874565b90506001810290506004548110610a005760045490505b6002548110610c2d576000610a1882600454036118ea565b9050600280546004540381610a2957fe5b04811115610aa1577f3428e480e045a8960f39f7c8f04c8c99a7b7a81fe2837365c3938c6f264dde6482600254600454604051808481526020018381526020018281526020018060200182810382526037815260200180611c906037913960400194505050505060405180910390a150505050610f35565b81341015610afa576040517f08c379a000000000000000000000000000000000000000000000000000000000815260040180806020018281038252602c815260200180611cc7602c913960400191505060405180910390fd5b600760009054906101000a900473ffffffffffffffffffffffffffffffffffffffff1673ffffffffffffffffffffffffffffffffffffffff166108fc349081150290604051600060405180830381858888f19350505050158015610b62573d6000803e3d6000fd5b5033600760006101000a81548173ffffffffffffffffffffffffffffffffffffffff021916908373ffffffffffffffffffffffffffffffffffffffff16021790555060006002610bb260086118ea565b01905060028181610bbf57fe5b04830360028190555060028181610bd257fe5b0483016004819055507f7b0517da0d3aa7b2807780a9e10d9a6be5766ffe1facd84cd50c817ed72bda448360025460045460405180848152602001838152602001828152602001935050505060405180910390a15050610cb2565b7f3428e480e045a8960f39f7c8f04c8c99a7b7a81fe2837365c3938c6f264dde648160025460045460405180848152602001838152602001828152602001806020018281038252601f8152602001807f4269642069732062656c6f772063757272656e74206d61726b6574206269640081525060200194505050505060405180910390a15b5050610f33565b610d09610cfa6040518060400160405280600681526020017f4f464645523a0000000000000000000000000000000000000000000000000000815250611771565b8261179f90919063ffffffff16565b15610f3257600560008154809291906001019190505550610d70610d616040518060400160405280600181526020017f3a00000000000000000000000000000000000000000000000000000000000000815250611771565b826117f890919063ffffffff16565b506060610d7c82611812565b90506000610d8982611874565b90506001810290506002548110610da05760025490505b6004548111610ec7576000610db860025483036118ea565b9050600280546004540381610dc957fe5b04811115610e41577f3428e480e045a8960f39f7c8f04c8c99a7b7a81fe2837365c3938c6f264dde6482600254600454604051808481526020018381526020018281526020018060200182810382526039815260200180611c576039913960400194505050505060405180910390a150505050610f35565b60096000815480929190600101919050555081600a600060095481526020019081526020016000208190555033600b6000600954815260200190815260200160002060006101000a81548173ffffffffffffffffffffffffffffffffffffffff021916908373ffffffffffffffffffffffffffffffffffffffff16021790555050610f2f565b7f3428e480e045a8960f39f7c8f04c8c99a7b7a81fe2837365c3938c6f264dde6481600254600454604051808481526020018381526020018281526020018060200182810382526023815260200180611cf36023913960400194505050505060405180910390a15b50505b5b505b50565b600081118015610f4a57506001548111155b610f5357600080fd5b60086000828152602001908152602001600020600201600081548092919060010191905055507fb761b7ee23f42dfa6aebc272b413d8b523f07e9f3aa3d9d2cd6fa478fe1c8e33816008600084815260200190815260200160002060020154604051808381526020018281526020019250505060405180910390a150565b600b6020528060005260406000206000915054906101000a900473ffffffffffffffffffffffffffffffffffffffff1681565b60008111801561101657506001548111155b61101f57600080fd5b6060600860008381526020019081526020016000206001018054600181600116156101000203166002900480601f0160208091040260200160405190810160405280929190818152602001828054600181600116156101000203166002900480156110cb5780601f106110a0576101008083540402835291602001916110cb565b820191906000526020600020905b8154815290600101906020018083116110ae57829003601f168201915b505050505090506110db8161156d565b5050565b60095481565b60065481565b60045481565b6000600a600083815260200190815260200160002054905080341015611162576040517f08c379a000000000000000000000000000000000000000000000000000000000815260040180806020018281038252602e815260200180611d16602e913960400191505060405180910390fd5b6000600b600084815260200190815260200160002060009054906101000a900473ffffffffffffffffffffffffffffffffffffffff1690508073ffffffffffffffffffffffffffffffffffffffff166108fc349081150290604051600060405180830381858888f193505050501580156111e0573d6000803e3d6000fd5b5080600760006101000a81548173ffffffffffffffffffffffffffffffffffffffff021916908373ffffffffffffffffffffffffffffffffffffffff1602179055506000600a6000858152602001908152602001600020819055506000600b600085815260200190815260200160002060006101000a81548173ffffffffffffffffffffffffffffffffffffffff021916908373ffffffffffffffffffffffffffffffffffffffff1602179055506000600261129c60086118ea565b019050600281816112a957fe5b048303600281905550600281816112bc57fe5b0483016004819055507f7b0517da0d3aa7b2807780a9e10d9a6be5766ffe1facd84cd50c817ed72bda448360025460045460405180848152602001838152602001828152602001935050505060405180910390a150505050565b60008111801561132857506001548111155b61133157600080fd5b611339611b6c565b600860008381526020019081526020016000206040518060a001604052908160008201548152602001600182018054600181600116156101000203166002900480601f0160208091040260200160405190810160405280929190818152602001828054600181600116156101000203166002900480156113fa5780601f106113cf576101008083540402835291602001916113fa565b820191906000526020600020905b8154815290600101906020018083116113dd57829003601f168201915b50505050508152602001600282015481526020016003820160009054906101000a900473ffffffffffffffffffffffffffffffffffffffff1673ffffffffffffffffffffffffffffffffffffffff1673ffffffffffffffffffffffffffffffffffffffff16815260200160048201548152505090506000816060015190508073ffffffffffffffffffffffffffffffffffffffff166108fc349081150290604051600060405180830381858888f193505050501580156114be573d6000803e3d6000fd5b50348260800181815101915081815250508160086000858152602001908152602001600020600082015181600001556020820151816001019080519060200190611509929190611bb1565b506040820151816002015560608201518160030160006101000a81548173ffffffffffffffffffffffffffffffffffffffff021916908373ffffffffffffffffffffffffffffffffffffffff16021790555060808201518160040155905050505050565b6000815111801561158057506102308151105b61158957600080fd5b6001600081548092919060010191905055506040518060a001604052806001548152602001828152602001600081526020013373ffffffffffffffffffffffffffffffffffffffff1681526020016000815250600860006001548152602001908152602001600020600082015181600001556020820151816001019080519060200190611617929190611bb1565b506040820151816002015560608201518160030160006101000a81548173ffffffffffffffffffffffffffffffffffffffff021916908373ffffffffffffffffffffffffffffffffffffffff1602179055506080820151816004015590505061167f81610906565b7fc66336337a24e513f909b3b25119854dba8385d51307dbc7d31d1b2805e19c7e6001548260003360405180858152602001806020018481526020018373ffffffffffffffffffffffffffffffffffffffff1673ffffffffffffffffffffffffffffffffffffffff168152602001828103825285818151815260200191508051906020019080838360005b8381101561172557808201518184015260208101905061170a565b50505050905090810190601f1680156117525780820380516001836020036101000a031916815260200191505b509550505050505060405180910390a150565b60055481565b60015481565b611779611b52565b600060208301905060405180604001604052808451815260200182815250915050919050565b60008160000151836000015110156117ba57600090506117f2565b8160200151836020015114156117d357600190506117f2565b6000825160208501516020850151828120838320149350505050809150505b92915050565b611800611b52565b61180b838383611990565b5092915050565b60608082600001516040519080825280601f01601f19166020018201604052801561184c5781602001600182028038833980820191505090505b509050600060208201905061186a8185602001518660000151611a2e565b8192505050919050565b600060608290506000809250600090505b81518110156118e057600082828151811061189c57fe5b602001015160f81c60f81b60f81c60ff169050603081101580156118c1575060398111155b156118d25760308103600a85020193505b508080600101915050611885565b8292505050919050565b6000808214156118fd5781806001019250505b6000824233600654604051602001808481526020018373ffffffffffffffffffffffffffffffffffffffff1673ffffffffffffffffffffffffffffffffffffffff1660601b815260140182815260200193505050506040516020818303038152906040528051906020012060001c8161197257fe5b06905060066000815480929190600101919050555080915050919050565b611998611b52565b60006119b68560000151866020015186600001518760200151611a77565b905084602001518360200181815250508460200151810383600001818152505084600001518560200151018114156119f8576000856000018181525050611a23565b8360000151836000015101856000018181510391508181525050836000015181018560200181815250505b829150509392505050565b5b60208110611a525781518352602083019250602082019150602081039050611a2f565b60006001826020036101000a0390508019835116818551168181178652505050505050565b6000808490506000868511611b425760208511611afc57600060018660200360080260020a031960001b905060008186511690506000878a8a0103905060008386511690505b828114611aee57818610611adb578a8a019650505050505050611b4a565b8580600101965050838651169050611abd565b859650505050505050611b4a565b60008585209050600091505b8588038211611b40576000868420905080821415611b2c5783945050505050611b4a565b600184019350508180600101925050611b08565b505b868601925050505b949350505050565b604051806040016040528060008152602001600081525090565b6040518060a00160405280600081526020016060815260200160008152602001600073ffffffffffffffffffffffffffffffffffffffff168152602001600081525090565b828054600181600116156101000203166002900490600052602060002090601f016020900481019282601f10611bf257805160ff1916838001178555611c20565b82800160010185558215611c20579182015b82811115611c1f578251825591602001919060010190611c04565b5b509050611c2d9190611c31565b5090565b611c5391905b80821115611c4f576000816000905550600101611c37565b5090565b9056fe4f6666657220776173206e6f742066696c6c6564206279206d61726b6574206d616b65722e20547279206f66666572696e67206c6f7765722e42696420776173206e6f742066696c6c6564206279206d61726b6574206d616b65722e205472792062696464696e67206869676865722e6d73672e76616c7565206d75737420626520657175616c20746f206e6577426964206f7220677265617465724f666665722069732061626f76652063757272656e74206d61726b6574206f666665726d73672e76616c7565206d75737420626520657175616c20746f206e65774f66666572206f722067726561746572a265627a7a72315820670a34fa4c4ea9dfd575ecc936fa442ff01d91fd5244376312f0bb3a3c58c10664736f6c63430005100032",
  "source": "pragma solidity ^0.5.0;\n\nimport {strings} from \"strings.sol\";\n\ncontract SocialNetwork {\n\tusing strings for *;\n\n\tstring public name;\n\tuint public numPosts;\n\tuint public bid;\n\tuint public bidSize;\n\tuint public offer;\n\tuint public offerSize;\n\tuint public nonce;\n\taddress payable public marketMaker;\n\tmapping(uint => Post) public posts;\n\tuint public queueLength;\n\tmapping(uint => uint) public offerQueue;\n\tmapping(uint => address payable) public offerers;\n\n\n\tstruct Post {\n\t\tuint id;\n\t\tstring content;\n\t\tuint likes;\n\t\taddress payable author;\n\t\tuint rewards;\n\t}\n\n\tconstructor() public {\n\t\tname = \"Agora\";\n\t\tbid = 10 wei;\n\t\toffer = 20 wei;\n\t\tmarketMaker = msg.sender;\n\t\tnonce = 1;\n\t}\n\n\tevent PostCreated(uint id, string content, uint likes, address payable author);\n\n\tfunction createPost(string memory _content) public payable {\n\t\t// Require content to be longer than 0 bytes and shorter than 560 bytes\n\t\trequire(bytes(_content).length > 0 && bytes(_content).length < 560);\n\n\t\t// Increment num posts\n\t\tnumPosts ++;\n\n\t\t// Store post in mapping\n\t\tposts[numPosts] = Post(numPosts, _content, 0, msg.sender, 0);\n\n\t\t// Check if it's a quote\n\t\tnewQuote(_content);\n\n\t\t// Emit post\n\t\temit PostCreated(numPosts, _content, 0, msg.sender);\n\t}\n\n\tfunction random(uint max) internal returns (uint) {\n\t\t// Pseudo randomly generate number from 0 to max\n\n\t\t// Prevent modulo by zero error\n\t\tif (max == 0) {\n\t\t\tmax ++;\n\t\t}\n\n\t\tuint _random = uint(keccak256(abi.encodePacked(now, msg.sender, nonce)))%max;\n\t\tnonce ++;\n\t\treturn _random;\n\t}\n\n\tevent FailedTxn(uint newQuote, uint bid, uint offer, string remarks);\n\tevent SuccessfulTxn(uint last, uint bid, uint offer);\n\n\tfunction newQuote(string memory _content) public payable {\n\t\tstrings.slice memory slice = _content.toSlice();\n\t\tif (slice.startsWith(\"BID:\".toSlice())) {\n\n\t\t\t// All bids should increment bidSize\n\t\t\tbidSize ++;\n\t\t\t\n\t\t\t// Use imported strings library to get the x value out of \"BID:x\"\n\t\t\tslice.split(\":\".toSlice()); \n\t\t\tstring memory order = slice.toString();\n\t\t\t\n\t\t\t// Convert string to uint so we can compare it to market bid\n\t\t\tuint newBid = stringToUint(order);\n\n\t\t\t// Convert bid to wei denomination by default\n\t\t\tnewBid = newBid * 1 wei;\n\n\t\t\t// All bids are capped by current market offer\n\t\t\tif (newBid >= offer) {\n\t\t\t\tnewBid = offer;\n\t\t\t}\n\t\t\t\n\t\t\t// Valid bid has to be higher than current market bid\n\t\t\tif (newBid >= bid) {\n\t\t\t\t\n\t\t\t\t// Generate random number\n\t\t\t\tuint rnd = random(offer - newBid);\n\n\t\t\t\t// Closer the bid is to the offer, higher chance of transaction taking place\n\t\t\t\tif (rnd > (offer - bid) / 2) {\n\t\t\t\t\temit FailedTxn(newBid, bid, offer, \"Bid was not filled by market maker. Try bidding higher.\");\n\t\t\t\t\treturn;\n\t\t\t\t}\n\n\t\t\t\t// Transfer money to current market maker\n\t\t\t\trequire(msg.value >= newBid, \"msg.value must be equal to newBid or greater\");\n\t\t\t\taddress(marketMaker).transfer(msg.value);\n\n\n\t\t\t\t// New market maker sets his own bid and offer spread\n\t\t\t\t// Spread is generated by random function, capped to between 2-10 wei\n\t\t\t\tmarketMaker = msg.sender;\n\t\t\t\tuint spread = random(8) + 2;\n\t\t\t\tbid = newBid - spread / 2;\n\t\t\t\toffer = newBid + spread / 2;\n\t\t\t\temit SuccessfulTxn(newBid, bid, offer);\n\t\t\t}\n\n\t\t\t// Failed bid since < current market bid\n\t\t\telse {\n\t\t\t\temit FailedTxn(newBid, bid, offer, \"Bid is below current market bid\");\n\t\t\t}\n\t\t}\n\n\t\telse if (slice.startsWith(\"OFFER:\".toSlice())) {\n\t\t\t// All offers should increment offer size\n\t\t\tofferSize ++;\n\n\t\t\t// Use imported strings library to get the x value out of \"OFFER:x\"\n\t\t\tslice.split(\":\".toSlice()); \n\t\t\tstring memory order = slice.toString();\n\t\t\t\n\t\t\t// Convert string to uint so we can compare it to market bid\n\t\t\tuint newOffer = stringToUint(order);\n\n\t\t\t// Convert offer to wei denomination by default\n\t\t\tnewOffer = newOffer * 1 wei;\n\n\t\t\t// All offers must be greater than current market bid\n\t\t\tif (newOffer >= bid) {\n\t\t\t\tnewOffer = bid;\n\t\t\t}\n\t\t\t\n\t\t\t// Valid offer has to be lower than current market offer\n\t\t\tif (newOffer <= offer) {\n\t\t\t\t\n\t\t\t\t// Generate random number\n\t\t\t\tuint rnd = random(newOffer - bid);\n\n\t\t\t\t// Closer the new offer is to the bid, higher chance of transaction taking place\n\t\t\t\tif (rnd > (offer - bid) / 2) {\n\t\t\t\t\temit FailedTxn(newOffer, bid, offer, \"Offer was not filled by market maker. Try offering lower.\");\n\t\t\t\t\treturn;\n\t\t\t\t}\n\n\t\t\t\t// Update offerers, offer queue, queueLength\n\t\t\t\tqueueLength ++;\n\t\t\t\tofferQueue[queueLength] = newOffer;\n\t\t\t\tofferers[queueLength] = msg.sender;\n\t\t\t}\n\n\t\t\t// Failed offer since > current market offer\n\t\t\telse {\n\t\t\t\temit FailedTxn(newOffer, bid, offer, \"Offer is above current market offer\");\n\t\t\t}\n\t\t}\n\t}\n\n\t\n\tfunction clearOffer(uint _idx) public payable {\n\t\t// Get the outstanding offer to clear\n\t\tuint newOffer = offerQueue[_idx];\n\n\t\t// Check that market maker is paying the required amount\n\t\trequire(msg.value >= newOffer, \"msg.value must be equal to newOffer or greater\");\n\n\t\t// Get the address of the offerer\n\t\taddress payable _offerer = offerers[_idx];\n\n\t\t// Transfer eth from market maker to seller\n\t\taddress(_offerer).transfer(msg.value);\n\n\t\t// Set new market maker\n\t\tmarketMaker = _offerer;\n\n\t\t// Clear the queue\n\t\tofferQueue[_idx] = 0;\n\t\tofferers[_idx] = address(0);\n\n\t\t// Set new bid/offer spread\n\t\t// Spread is generated by random function, capped to between 2-10 wei\n\t\tuint spread = random(8) + 2;\n\t\tbid = newOffer - spread / 2;\n\t\toffer = newOffer + spread / 2;\n\n\t\t// Emit the successful txn event\n\t\temit SuccessfulTxn(newOffer, bid, offer);\n\t}\n\t\n\n\t// pure function won't even read the storage state\n\tfunction stringToUint(string memory s) internal pure returns (uint result) {\n\t\tbytes memory b = bytes(s);\n\t\tuint i;\n\t\tresult = 0;\n\t\tfor (i = 0; i < b.length; i++) {\n\t\t\tuint c = uint(uint8(b[i]));\n\t\t\tif (c >= 48 && c <= 57) {\n\t\t\t\tresult = result * 10 + (c - 48);\n\t\t\t}\n\t\t}\n\n\t\treturn result;\n\t}\n\n\tevent LikePost(uint id, uint numLikes);\n\n\tfunction likePost(uint _id) public {\n\t\t// Require id to be greater than 0 and smaller than num posts\n\t\trequire(_id > 0 && _id <= numPosts);\n\n\t\t// Increment the number of likes\n\t\tposts[_id].likes ++;\n\n\t\temit LikePost(_id, posts[_id].likes);\n\t}\n\n\tfunction rewardPost(uint _id) public payable {\n\t\t// Require id to be greater than 0 and smaller than num posts\n\t\trequire(_id > 0 && _id <= numPosts);\n\n\t\t// Require sufficient balance\n\n\t\t// Get post\n\t\tPost memory _post = posts[_id];\n\n\t\t// Get author of post\n\t\taddress payable _author = _post.author;\n\n\t\t// Pay author of post\n\t\taddress(_author).transfer(msg.value);\n\n\t\t// Increment post reward\n\t\t_post.rewards += msg.value;\n\n\t\t// Update the post\n\t\tposts[_id] = _post;\n\t}\n\n\tfunction rePost(uint _id) public {\n\t\t// Require id to be greater than 0 and smaller than num posts\n\t\trequire(_id > 0 && _id <= numPosts);\n\n\t\t// Get content of post\n\t\tstring memory _content = posts[_id].content;\n\n\t\t// Repost same content but with current user\n\t\tcreatePost(_content);\n\t}\n}",
  "sourcePath": "/Users/aidenchia/Desktop/dapp/src/contracts/SocialNetwork.sol",
  "compiler": {
    "name": "solc",
    "version": "0.5.16+commit.9c3226ce.Emscripten.clang"
  },
  "schemaVersion": "3.0.23",
  "updatedAt": "2020-04-14T05:49:53.275Z",
  "networkType": "ethereum",
  "devdoc": {
    "methods": {}
  },
  "userdoc": {
    "methods": {}
  }
}