{
  "contractName": "SocialNetwork",
  "abi": [
    {
      "inputs": [],
      "payable": false,
      "stateMutability": "nonpayable",
      "type": "constructor"
    },
    {
      "anonymous": false,
      "inputs": [
        {
          "indexed": false,
          "internalType": "uint256",
          "name": "newQuote",
          "type": "uint256"
        },
        {
          "indexed": false,
          "internalType": "uint256",
          "name": "bid",
          "type": "uint256"
        },
        {
          "indexed": false,
          "internalType": "uint256",
          "name": "offer",
          "type": "uint256"
        },
        {
          "indexed": false,
          "internalType": "string",
          "name": "remarks",
          "type": "string"
        }
      ],
      "name": "FailedTxn",
      "type": "event"
    },
    {
      "anonymous": false,
      "inputs": [
        {
          "indexed": false,
          "internalType": "uint256",
          "name": "id",
          "type": "uint256"
        },
        {
          "indexed": false,
          "internalType": "uint256",
          "name": "numLikes",
          "type": "uint256"
        }
      ],
      "name": "LikePost",
      "type": "event"
    },
    {
      "anonymous": false,
      "inputs": [
        {
          "indexed": false,
          "internalType": "uint256",
          "name": "id",
          "type": "uint256"
        },
        {
          "indexed": false,
          "internalType": "string",
          "name": "content",
          "type": "string"
        },
        {
          "indexed": false,
          "internalType": "uint256",
          "name": "likes",
          "type": "uint256"
        },
        {
          "indexed": false,
          "internalType": "address payable",
          "name": "author",
          "type": "address"
        }
      ],
      "name": "PostCreated",
      "type": "event"
    },
    {
      "anonymous": false,
      "inputs": [
        {
          "indexed": false,
          "internalType": "uint256",
          "name": "last",
          "type": "uint256"
        },
        {
          "indexed": false,
          "internalType": "uint256",
          "name": "bid",
          "type": "uint256"
        },
        {
          "indexed": false,
          "internalType": "uint256",
          "name": "offer",
          "type": "uint256"
        }
      ],
      "name": "SuccessfulTxn",
      "type": "event"
    },
    {
      "constant": true,
      "inputs": [],
      "name": "bid",
      "outputs": [
        {
          "internalType": "uint256",
          "name": "",
          "type": "uint256"
        }
      ],
      "payable": false,
      "stateMutability": "view",
      "type": "function"
    },
    {
      "constant": true,
      "inputs": [],
      "name": "bidSize",
      "outputs": [
        {
          "internalType": "uint256",
          "name": "",
          "type": "uint256"
        }
      ],
      "payable": false,
      "stateMutability": "view",
      "type": "function"
    },
    {
      "constant": true,
      "inputs": [],
      "name": "marketMaker",
      "outputs": [
        {
          "internalType": "address payable",
          "name": "",
          "type": "address"
        }
      ],
      "payable": false,
      "stateMutability": "view",
      "type": "function"
    },
    {
      "constant": true,
      "inputs": [],
      "name": "name",
      "outputs": [
        {
          "internalType": "string",
          "name": "",
          "type": "string"
        }
      ],
      "payable": false,
      "stateMutability": "view",
      "type": "function"
    },
    {
      "constant": true,
      "inputs": [],
      "name": "nonce",
      "outputs": [
        {
          "internalType": "uint256",
          "name": "",
          "type": "uint256"
        }
      ],
      "payable": false,
      "stateMutability": "view",
      "type": "function"
    },
    {
      "constant": true,
      "inputs": [],
      "name": "numPosts",
      "outputs": [
        {
          "internalType": "uint256",
          "name": "",
          "type": "uint256"
        }
      ],
      "payable": false,
      "stateMutability": "view",
      "type": "function"
    },
    {
      "constant": true,
      "inputs": [],
      "name": "offer",
      "outputs": [
        {
          "internalType": "uint256",
          "name": "",
          "type": "uint256"
        }
      ],
      "payable": false,
      "stateMutability": "view",
      "type": "function"
    },
    {
      "constant": true,
      "inputs": [
        {
          "internalType": "uint256",
          "name": "",
          "type": "uint256"
        }
      ],
      "name": "offerQueue",
      "outputs": [
        {
          "internalType": "uint256",
          "name": "offerVal",
          "type": "uint256"
        },
        {
          "internalType": "address payable",
          "name": "offerer",
          "type": "address"
        }
      ],
      "payable": false,
      "stateMutability": "view",
      "type": "function"
    },
    {
      "constant": true,
      "inputs": [],
      "name": "offerSize",
      "outputs": [
        {
          "internalType": "uint256",
          "name": "",
          "type": "uint256"
        }
      ],
      "payable": false,
      "stateMutability": "view",
      "type": "function"
    },
    {
      "constant": true,
      "inputs": [
        {
          "internalType": "uint256",
          "name": "",
          "type": "uint256"
        }
      ],
      "name": "posts",
      "outputs": [
        {
          "internalType": "uint256",
          "name": "id",
          "type": "uint256"
        },
        {
          "internalType": "string",
          "name": "content",
          "type": "string"
        },
        {
          "internalType": "uint256",
          "name": "likes",
          "type": "uint256"
        },
        {
          "internalType": "address payable",
          "name": "author",
          "type": "address"
        },
        {
          "internalType": "uint256",
          "name": "rewards",
          "type": "uint256"
        }
      ],
      "payable": false,
      "stateMutability": "view",
      "type": "function"
    },
    {
      "constant": true,
      "inputs": [],
      "name": "queueLength",
      "outputs": [
        {
          "internalType": "uint256",
          "name": "",
          "type": "uint256"
        }
      ],
      "payable": false,
      "stateMutability": "view",
      "type": "function"
    },
    {
      "constant": false,
      "inputs": [
        {
          "internalType": "string",
          "name": "_content",
          "type": "string"
        }
      ],
      "name": "createPost",
      "outputs": [],
      "payable": true,
      "stateMutability": "payable",
      "type": "function"
    },
    {
      "constant": false,
      "inputs": [
        {
          "internalType": "string",
          "name": "_content",
          "type": "string"
        }
      ],
      "name": "newQuote",
      "outputs": [],
      "payable": true,
      "stateMutability": "payable",
      "type": "function"
    },
    {
      "constant": false,
      "inputs": [
        {
          "internalType": "uint256",
          "name": "_idx",
          "type": "uint256"
        }
      ],
      "name": "clearOffer",
      "outputs": [],
      "payable": true,
      "stateMutability": "payable",
      "type": "function"
    },
    {
      "constant": false,
      "inputs": [
        {
          "internalType": "uint256",
          "name": "_id",
          "type": "uint256"
        }
      ],
      "name": "likePost",
      "outputs": [],
      "payable": false,
      "stateMutability": "nonpayable",
      "type": "function"
    },
    {
      "constant": false,
      "inputs": [
        {
          "internalType": "uint256",
          "name": "_id",
          "type": "uint256"
        }
      ],
      "name": "rewardPost",
      "outputs": [],
      "payable": true,
      "stateMutability": "payable",
      "type": "function"
    },
    {
      "constant": false,
      "inputs": [
        {
          "internalType": "uint256",
          "name": "_id",
          "type": "uint256"
        }
      ],
      "name": "rePost",
      "outputs": [],
      "payable": false,
      "stateMutability": "nonpayable",
      "type": "function"
    }
  ],
  "bytecode": "0x60806040523480156200001157600080fd5b506040518060400160405280600581526020017f41676f7261000000000000000000000000000000000000000000000000000000815250600090805190602001906200005f929190620000bf565b50600a600281905550601460048190555033600760006101000a81548173ffffffffffffffffffffffffffffffffffffffff021916908373ffffffffffffffffffffffffffffffffffffffff16021790555060016006819055506200016e565b828054600181600116156101000203166002900490600052602060002090601f016020900481019282601f106200010257805160ff191683800117855562000133565b8280016001018555821562000133579182015b828111156200013257825182559160200191906001019062000115565b5b50905062000142919062000146565b5090565b6200016b91905b80821115620001675760008160009055506001016200014d565b5090565b90565b611d05806200017e6000396000f3fe6080604052600436106100fe5760003560e01c80637d98fa1111610095578063c284c11a11610064578063c284c11a14610570578063c471b7371461059e578063c7303c61146105cc578063e9ded3ec14610687578063ec7331e9146106b2576100fe565b80637d98fa11146104b4578063ab91c7b0146104ef578063affed0e01461051a578063c028df0614610545576100fe565b80632b70c8fc116100d15780632b70c8fc146103115780633edc4c1c1461033c57806353e41a54146103be578063725009d314610479576100fe565b806306fdde03146101035780630b1e7f83146101935780631998aeef1461028f5780631f21f9af146102ba575b600080fd5b34801561010f57600080fd5b506101186106dd565b6040518080602001828103825283818151815260200191508051906020019080838360005b8381101561015857808201518184015260208101905061013d565b50505050905090810190601f1680156101855780820380516001836020036101000a031916815260200191505b509250505060405180910390f35b34801561019f57600080fd5b506101cc600480360360208110156101b657600080fd5b810190808035906020019092919050505061077b565b60405180868152602001806020018581526020018473ffffffffffffffffffffffffffffffffffffffff1673ffffffffffffffffffffffffffffffffffffffff168152602001838152602001828103825286818151815260200191508051906020019080838360005b83811015610250578082015181840152602081019050610235565b50505050905090810190601f16801561027d5780820380516001836020036101000a031916815260200191505b50965050505050505060405180910390f35b34801561029b57600080fd5b506102a4610869565b6040518082815260200191505060405180910390f35b3480156102c657600080fd5b506102cf61086f565b604051808273ffffffffffffffffffffffffffffffffffffffff1673ffffffffffffffffffffffffffffffffffffffff16815260200191505060405180910390f35b34801561031d57600080fd5b50610326610895565b6040518082815260200191505060405180910390f35b34801561034857600080fd5b506103756004803603602081101561035f57600080fd5b810190808035906020019092919050505061089b565b604051808381526020018273ffffffffffffffffffffffffffffffffffffffff1673ffffffffffffffffffffffffffffffffffffffff1681526020019250505060405180910390f35b610477600480360360208110156103d457600080fd5b81019080803590602001906401000000008111156103f157600080fd5b82018360208201111561040357600080fd5b8035906020019184600183028401116401000000008311171561042557600080fd5b91908080601f016020809104026020016040519081016040528093929190818152602001838380828437600081840152601f19601f8201169050808301925050505050505091929192905050506108df565b005b34801561048557600080fd5b506104b26004803603602081101561049c57600080fd5b8101908080359060200190929190505050610f19565b005b3480156104c057600080fd5b506104ed600480360360208110156104d757600080fd5b8101908080359060200190929190505050610fb2565b005b3480156104fb57600080fd5b5061050461108d565b6040518082815260200191505060405180910390f35b34801561052657600080fd5b5061052f611093565b6040518082815260200191505060405180910390f35b34801561055157600080fd5b5061055a611099565b6040518082815260200191505060405180910390f35b61059c6004803603602081101561058657600080fd5b810190808035906020019092919050505061109f565b005b6105ca600480360360208110156105b457600080fd5b81019080803590602001909291905050506112a3565b005b610685600480360360208110156105e257600080fd5b81019080803590602001906401000000008111156105ff57600080fd5b82018360208201111561061157600080fd5b8035906020019184600183028401116401000000008311171561063357600080fd5b91908080601f016020809104026020016040519081016040528093929190818152602001838380828437600081840152601f19601f8201169050808301925050505050505091929192905050506114fa565b005b34801561069357600080fd5b5061069c6116f2565b6040518082815260200191505060405180910390f35b3480156106be57600080fd5b506106c76116f8565b6040518082815260200191505060405180910390f35b60008054600181600116156101000203166002900480601f0160208091040260200160405190810160405280929190818152602001828054600181600116156101000203166002900480156107735780601f1061074857610100808354040283529160200191610773565b820191906000526020600020905b81548152906001019060200180831161075657829003601f168201915b505050505081565b6008602052806000526040600020600091509050806000015490806001018054600181600116156101000203166002900480601f01602080910402602001604051908101604052809291908181526020018280546001816001161561010002031660029004801561082d5780601f106108025761010080835404028352916020019161082d565b820191906000526020600020905b81548152906001019060200180831161081057829003601f168201915b5050505050908060020154908060030160009054906101000a900473ffffffffffffffffffffffffffffffffffffffff16908060040154905085565b60025481565b600760009054906101000a900473ffffffffffffffffffffffffffffffffffffffff1681565b60035481565b600a6020528060005260406000206000915090508060000154908060010160009054906101000a900473ffffffffffffffffffffffffffffffffffffffff16905082565b6108e7611adf565b6108f0826116fe565b90506109426109336040518060400160405280600481526020017f4249443a000000000000000000000000000000000000000000000000000000008152506116fe565b8261172c90919063ffffffff16565b15610c93576003600081548092919060010191905055506109a961099a6040518060400160405280600181526020017f3a000000000000000000000000000000000000000000000000000000000000008152506116fe565b8261178590919063ffffffff16565b5060606109b58261179f565b905060006109c282611801565b90506001810290506004548111156109da5760045490505b6002548110610c075760006109f28260045403611877565b9050600280546004540381610a0357fe5b04811115610a7b577f3428e480e045a8960f39f7c8f04c8c99a7b7a81fe2837365c3938c6f264dde6482600254600454604051808481526020018381526020018281526020018060200182810382526037815260200180611c1d6037913960400194505050505060405180910390a150505050610f16565b81341015610ad4576040517f08c379a000000000000000000000000000000000000000000000000000000000815260040180806020018281038252602c815260200180611c54602c913960400191505060405180910390fd5b600760009054906101000a900473ffffffffffffffffffffffffffffffffffffffff1673ffffffffffffffffffffffffffffffffffffffff166108fc349081150290604051600060405180830381858888f19350505050158015610b3c573d6000803e3d6000fd5b5033600760006101000a81548173ffffffffffffffffffffffffffffffffffffffff021916908373ffffffffffffffffffffffffffffffffffffffff16021790555060006002610b8c6008611877565b01905060028181610b9957fe5b04830360028190555060028181610bac57fe5b0483016004819055507f7b0517da0d3aa7b2807780a9e10d9a6be5766ffe1facd84cd50c817ed72bda448360025460045460405180848152602001838152602001828152602001935050505060405180910390a15050610c8c565b7f3428e480e045a8960f39f7c8f04c8c99a7b7a81fe2837365c3938c6f264dde648160025460045460405180848152602001838152602001828152602001806020018281038252601f8152602001807f4269642069732062656c6f772063757272656e74206d61726b6574206269640081525060200194505050505060405180910390a15b5050610f14565b610ce3610cd46040518060400160405280600681526020017f4f464645523a00000000000000000000000000000000000000000000000000008152506116fe565b8261172c90919063ffffffff16565b15610f1357600560008154809291906001019190505550610d4a610d3b6040518060400160405280600181526020017f3a000000000000000000000000000000000000000000000000000000000000008152506116fe565b8261178590919063ffffffff16565b506060610d568261179f565b90506000610d6382611801565b9050600181029050600254811015610d7b5760025490505b6004548111610ea8576000610d936002548303611877565b9050600280546004540381610da457fe5b04811115610e1c577f3428e480e045a8960f39f7c8f04c8c99a7b7a81fe2837365c3938c6f264dde6482600254600454604051808481526020018381526020018281526020018060200182810382526039815260200180611be46039913960400194505050505060405180910390a150505050610f16565b60096000815480929190600101919050555033600a6000600954815260200190815260200160002060010160006101000a81548173ffffffffffffffffffffffffffffffffffffffff021916908373ffffffffffffffffffffffffffffffffffffffff16021790555081600a600060095481526020019081526020016000206000018190555050610f10565b7f3428e480e045a8960f39f7c8f04c8c99a7b7a81fe2837365c3938c6f264dde6481600254600454604051808481526020018381526020018281526020018060200182810382526023815260200180611c806023913960400194505050505060405180910390a15b50505b5b505b50565b600081118015610f2b57506001548111155b610f3457600080fd5b60086000828152602001908152602001600020600201600081548092919060010191905055507fb761b7ee23f42dfa6aebc272b413d8b523f07e9f3aa3d9d2cd6fa478fe1c8e33816008600084815260200190815260200160002060020154604051808381526020018281526020019250505060405180910390a150565b600081118015610fc457506001548111155b610fcd57600080fd5b6060600860008381526020019081526020016000206001018054600181600116156101000203166002900480601f0160208091040260200160405190810160405280929190818152602001828054600181600116156101000203166002900480156110795780601f1061104e57610100808354040283529160200191611079565b820191906000526020600020905b81548152906001019060200180831161105c57829003601f168201915b50505050509050611089816114fa565b5050565b60095481565b60065481565b60045481565b6000600a600083815260200190815260200160002060000154905080341015611113576040517f08c379a000000000000000000000000000000000000000000000000000000000815260040180806020018281038252602e815260200180611ca3602e913960400191505060405180910390fd5b6000600a600084815260200190815260200160002060010160009054906101000a900473ffffffffffffffffffffffffffffffffffffffff1690508073ffffffffffffffffffffffffffffffffffffffff166108fc349081150290604051600060405180830381858888f19350505050158015611194573d6000803e3d6000fd5b5080600760006101000a81548173ffffffffffffffffffffffffffffffffffffffff021916908373ffffffffffffffffffffffffffffffffffffffff160217905550600a60008481526020019081526020016000206000808201600090556001820160006101000a81549073ffffffffffffffffffffffffffffffffffffffff02191690555050600060026112296008611877565b0190506002818161123657fe5b0483036002819055506002818161124957fe5b0483016004819055507f7b0517da0d3aa7b2807780a9e10d9a6be5766ffe1facd84cd50c817ed72bda448360025460045460405180848152602001838152602001828152602001935050505060405180910390a150505050565b6000811180156112b557506001548111155b6112be57600080fd5b6112c6611af9565b600860008381526020019081526020016000206040518060a001604052908160008201548152602001600182018054600181600116156101000203166002900480601f0160208091040260200160405190810160405280929190818152602001828054600181600116156101000203166002900480156113875780601f1061135c57610100808354040283529160200191611387565b820191906000526020600020905b81548152906001019060200180831161136a57829003601f168201915b50505050508152602001600282015481526020016003820160009054906101000a900473ffffffffffffffffffffffffffffffffffffffff1673ffffffffffffffffffffffffffffffffffffffff1673ffffffffffffffffffffffffffffffffffffffff16815260200160048201548152505090506000816060015190508073ffffffffffffffffffffffffffffffffffffffff166108fc349081150290604051600060405180830381858888f1935050505015801561144b573d6000803e3d6000fd5b50348260800181815101915081815250508160086000858152602001908152602001600020600082015181600001556020820151816001019080519060200190611496929190611b3e565b506040820151816002015560608201518160030160006101000a81548173ffffffffffffffffffffffffffffffffffffffff021916908373ffffffffffffffffffffffffffffffffffffffff16021790555060808201518160040155905050505050565b6000815111801561150d57506102308151105b61151657600080fd5b6001600081548092919060010191905055506040518060a001604052806001548152602001828152602001600081526020013373ffffffffffffffffffffffffffffffffffffffff16815260200160008152506008600060015481526020019081526020016000206000820151816000015560208201518160010190805190602001906115a4929190611b3e565b506040820151816002015560608201518160030160006101000a81548173ffffffffffffffffffffffffffffffffffffffff021916908373ffffffffffffffffffffffffffffffffffffffff1602179055506080820151816004015590505061160c816108df565b7fc66336337a24e513f909b3b25119854dba8385d51307dbc7d31d1b2805e19c7e6001548260003360405180858152602001806020018481526020018373ffffffffffffffffffffffffffffffffffffffff1673ffffffffffffffffffffffffffffffffffffffff168152602001828103825285818151815260200191508051906020019080838360005b838110156116b2578082015181840152602081019050611697565b50505050905090810190601f1680156116df5780820380516001836020036101000a031916815260200191505b509550505050505060405180910390a150565b60055481565b60015481565b611706611adf565b600060208301905060405180604001604052808451815260200182815250915050919050565b6000816000015183600001511015611747576000905061177f565b816020015183602001511415611760576001905061177f565b6000825160208501516020850151828120838320149350505050809150505b92915050565b61178d611adf565b61179883838361191d565b5092915050565b60608082600001516040519080825280601f01601f1916602001820160405280156117d95781602001600182028038833980820191505090505b50905060006020820190506117f781856020015186600001516119bb565b8192505050919050565b600060608290506000809250600090505b815181101561186d57600082828151811061182957fe5b602001015160f81c60f81b60f81c60ff1690506030811015801561184e575060398111155b1561185f5760308103600a85020193505b508080600101915050611812565b8292505050919050565b60008082141561188a5781806001019250505b6000824233600654604051602001808481526020018373ffffffffffffffffffffffffffffffffffffffff1673ffffffffffffffffffffffffffffffffffffffff1660601b815260140182815260200193505050506040516020818303038152906040528051906020012060001c816118ff57fe5b06905060066000815480929190600101919050555080915050919050565b611925611adf565b60006119438560000151866020015186600001518760200151611a04565b905084602001518360200181815250508460200151810383600001818152505084600001518560200151018114156119855760008560000181815250506119b0565b8360000151836000015101856000018181510391508181525050836000015181018560200181815250505b829150509392505050565b5b602081106119df57815183526020830192506020820191506020810390506119bc565b60006001826020036101000a0390508019835116818551168181178652505050505050565b6000808490506000868511611acf5760208511611a8957600060018660200360080260020a031960001b905060008186511690506000878a8a0103905060008386511690505b828114611a7b57818610611a68578a8a019650505050505050611ad7565b8580600101965050838651169050611a4a565b859650505050505050611ad7565b60008585209050600091505b8588038211611acd576000868420905080821415611ab95783945050505050611ad7565b600184019350508180600101925050611a95565b505b868601925050505b949350505050565b604051806040016040528060008152602001600081525090565b6040518060a00160405280600081526020016060815260200160008152602001600073ffffffffffffffffffffffffffffffffffffffff168152602001600081525090565b828054600181600116156101000203166002900490600052602060002090601f016020900481019282601f10611b7f57805160ff1916838001178555611bad565b82800160010185558215611bad579182015b82811115611bac578251825591602001919060010190611b91565b5b509050611bba9190611bbe565b5090565b611be091905b80821115611bdc576000816000905550600101611bc4565b5090565b9056fe4f6666657220776173206e6f742066696c6c6564206279206d61726b6574206d616b65722e20547279206f66666572696e67206c6f7765722e42696420776173206e6f742066696c6c6564206279206d61726b6574206d616b65722e205472792062696464696e67206869676865722e6d73672e76616c7565206d75737420626520657175616c20746f206e6577426964206f7220677265617465724f666665722069732061626f76652063757272656e74206d61726b6574206f666665726d73672e76616c7565206d75737420626520657175616c20746f206e65774f66666572206f722067726561746572a265627a7a7231582032059fbf129e5e930027048df347bad905c0774afca3a21f703b3b2a093540c864736f6c63430005100032",
  "source": "pragma solidity ^0.5.0;\n\nimport {strings} from \"strings.sol\";\n\ncontract SocialNetwork {\n\tusing strings for *;\n\n\tstring public name;\n\tuint public numPosts;\n\tuint public bid;\n\tuint public bidSize;\n\tuint public offer;\n\tuint public offerSize;\n\tuint public nonce;\n\taddress payable public marketMaker;\n\tmapping(uint => Post) public posts;\n\tuint public queueLength;\n\tmapping(uint => WaitingOffer) public offerQueue;\n\n\n\tstruct Post {\n\t\tuint id;\n\t\tstring content;\n\t\tuint likes;\n\t\taddress payable author;\n\t\tuint rewards;\n\t}\n\n\tstruct WaitingOffer {\n\t\tuint offerVal;\n\t\taddress payable offerer;\n\t}\n\n\tconstructor() public {\n\t\tname = \"Agora\";\n\t\tbid = 10 wei;\n\t\toffer = 20 wei;\n\t\tmarketMaker = msg.sender;\n\t\tnonce = 1;\n\t}\n\n\tevent PostCreated(uint id, string content, uint likes, address payable author);\n\n\tfunction createPost(string memory _content) public payable {\n\t\t// Require content to be longer than 0 bytes and shorter than 560 bytes\n\t\trequire(bytes(_content).length > 0 && bytes(_content).length < 560);\n\n\t\t// Increment num posts\n\t\tnumPosts ++;\n\n\t\t// Store post in mapping\n\t\tposts[numPosts] = Post(numPosts, _content, 0, msg.sender, 0);\n\n\t\t// Check if it's a quote\n\t\tnewQuote(_content);\n\n\t\t// Emit post\n\t\temit PostCreated(numPosts, _content, 0, msg.sender);\n\t}\n\n\tfunction random(uint max) internal returns (uint) {\n\t\t// Pseudo randomly generate number from 0 to max\n\n\t\t// Prevent modulo by zero error\n\t\tif (max == 0) {\n\t\t\tmax ++;\n\t\t}\n\n\t\tuint _random = uint(keccak256(abi.encodePacked(now, msg.sender, nonce)))%max;\n\t\tnonce ++;\n\t\treturn _random;\n\t}\n\n\tevent FailedTxn(uint newQuote, uint bid, uint offer, string remarks);\n\tevent SuccessfulTxn(uint last, uint bid, uint offer);\n\n\tfunction newQuote(string memory _content) public payable {\n\t\tstrings.slice memory slice = _content.toSlice();\n\t\tif (slice.startsWith(\"BID:\".toSlice())) {\n\n\t\t\t// All bids should increment bidSize\n\t\t\tbidSize ++;\n\t\t\t\n\t\t\t// Use imported strings library to get the x value out of \"BID:x\"\n\t\t\tslice.split(\":\".toSlice()); \n\t\t\tstring memory order = slice.toString();\n\t\t\t\n\t\t\t// Convert string to uint so we can compare it to market bid\n\t\t\tuint newBid = stringToUint(order);\n\n\t\t\t// Convert bid to wei denomination by default\n\t\t\tnewBid = newBid * 1 wei;\n\n\t\t\t// All bids are capped by current market offer\n\t\t\tif (newBid > offer) {\n\t\t\t\tnewBid = offer;\n\t\t\t}\n\t\t\t\n\t\t\t// Valid bid has to be higher than current market bid\n\t\t\tif (newBid >= bid) {\n\t\t\t\t\n\t\t\t\t// Generate random number\n\t\t\t\tuint rnd = random(offer - newBid);\n\n\t\t\t\t// Closer the bid is to the offer, higher chance of transaction taking place\n\t\t\t\tif (rnd > (offer - bid) / 2) {\n\t\t\t\t\temit FailedTxn(newBid, bid, offer, \"Bid was not filled by market maker. Try bidding higher.\");\n\t\t\t\t\treturn;\n\t\t\t\t}\n\n\t\t\t\t// Transfer money to current market maker\n\t\t\t\trequire(msg.value >= newBid, \"msg.value must be equal to newBid or greater\");\n\t\t\t\taddress(marketMaker).transfer(msg.value);\n\n\n\t\t\t\t// New market maker sets his own bid and offer spread\n\t\t\t\t// Spread is generated by random function, capped to between 2-10 wei\n\t\t\t\tmarketMaker = msg.sender;\n\t\t\t\tuint spread = random(8) + 2;\n\t\t\t\tbid = newBid - spread / 2;\n\t\t\t\toffer = newBid + spread / 2;\n\t\t\t\temit SuccessfulTxn(newBid, bid, offer);\n\t\t\t}\n\n\t\t\t// Failed bid since < current market bid\n\t\t\telse {\n\t\t\t\temit FailedTxn(newBid, bid, offer, \"Bid is below current market bid\");\n\t\t\t}\n\t\t}\n\n\t\telse if (slice.startsWith(\"OFFER:\".toSlice())) {\n\t\t\t// All offers should increment offer size\n\t\t\tofferSize ++;\n\n\t\t\t// Use imported strings library to get the x value out of \"OFFER:x\"\n\t\t\tslice.split(\":\".toSlice()); \n\t\t\tstring memory order = slice.toString();\n\t\t\t\n\t\t\t// Convert string to uint so we can compare it to market bid\n\t\t\tuint newOffer = stringToUint(order);\n\n\t\t\t// Convert offer to wei denomination by default\n\t\t\tnewOffer = newOffer * 1 wei;\n\n\t\t\t// All offers must be greater than current market bid\n\t\t\tif (newOffer < bid) {\n\t\t\t\tnewOffer = bid;\n\t\t\t}\n\t\t\t\n\t\t\t// Valid offer has to be lower than current market offer\n\t\t\tif (newOffer <= offer) {\n\t\t\t\t\n\t\t\t\t// Generate random number\n\t\t\t\tuint rnd = random(newOffer - bid);\n\n\t\t\t\t// Closer the new offer is to the bid, higher chance of transaction taking place\n\t\t\t\tif (rnd > (offer - bid) / 2) {\n\t\t\t\t\temit FailedTxn(newOffer, bid, offer, \"Offer was not filled by market maker. Try offering lower.\");\n\t\t\t\t\treturn;\n\t\t\t\t}\n\n\t\t\t\t// Update offerers, offer queue, queueLength\n\t\t\t\tqueueLength ++;\n\t\t\t\tofferQueue[queueLength].offerer = msg.sender;\n\t\t\t\tofferQueue[queueLength].offerVal = newOffer; \n\t\t\t}\n\n\t\t\t// Failed offer since > current market offer\n\t\t\telse {\n\t\t\t\temit FailedTxn(newOffer, bid, offer, \"Offer is above current market offer\");\n\t\t\t}\n\t\t}\n\t}\n\n\t\n\tfunction clearOffer(uint _idx) public payable {\n\t\t// Get the outstanding offer to clear\n\t\tuint newOffer = offerQueue[_idx].offerVal;\n\n\t\t// Check that market maker is paying the required amount\n\t\trequire(msg.value >= newOffer, \"msg.value must be equal to newOffer or greater\");\n\n\t\t// Get the address of the offerer\n\t\taddress payable _offerer = offerQueue[_idx].offerer;\n\n\t\t// Transfer eth from market maker to seller\n\t\taddress(_offerer).transfer(msg.value);\n\n\t\t// Set new market maker\n\t\tmarketMaker = _offerer;\n\n\t\t// Clear the queue\n\t\tdelete offerQueue[_idx];\n\n\t\t// Set new bid/offer spread\n\t\t// Spread is generated by random function, capped to between 2-10 wei\n\t\tuint spread = random(8) + 2;\n\t\tbid = newOffer - spread / 2;\n\t\toffer = newOffer + spread / 2;\n\n\t\t// Emit the successful txn event\n\t\temit SuccessfulTxn(newOffer, bid, offer);\n\t}\n\t\n\n\t// pure function won't even read the storage state\n\tfunction stringToUint(string memory s) internal pure returns (uint result) {\n\t\tbytes memory b = bytes(s);\n\t\tuint i;\n\t\tresult = 0;\n\t\tfor (i = 0; i < b.length; i++) {\n\t\t\tuint c = uint(uint8(b[i]));\n\t\t\tif (c >= 48 && c <= 57) {\n\t\t\t\tresult = result * 10 + (c - 48);\n\t\t\t}\n\t\t}\n\n\t\treturn result;\n\t}\n\n\tevent LikePost(uint id, uint numLikes);\n\n\tfunction likePost(uint _id) public {\n\t\t// Require id to be greater than 0 and smaller than num posts\n\t\trequire(_id > 0 && _id <= numPosts);\n\n\t\t// Increment the number of likes\n\t\tposts[_id].likes ++;\n\n\t\temit LikePost(_id, posts[_id].likes);\n\t}\n\n\tfunction rewardPost(uint _id) public payable {\n\t\t// Require id to be greater than 0 and smaller than num posts\n\t\trequire(_id > 0 && _id <= numPosts);\n\n\t\t// Require sufficient balance\n\n\t\t// Get post\n\t\tPost memory _post = posts[_id];\n\n\t\t// Get author of post\n\t\taddress payable _author = _post.author;\n\n\t\t// Pay author of post\n\t\taddress(_author).transfer(msg.value);\n\n\t\t// Increment post reward\n\t\t_post.rewards += msg.value;\n\n\t\t// Update the post\n\t\tposts[_id] = _post;\n\t}\n\n\tfunction rePost(uint _id) public {\n\t\t// Require id to be greater than 0 and smaller than num posts\n\t\trequire(_id > 0 && _id <= numPosts);\n\n\t\t// Get content of post\n\t\tstring memory _content = posts[_id].content;\n\n\t\t// Repost same content but with current user\n\t\tcreatePost(_content);\n\t}\n}",
  "sourcePath": "/Users/aidenchia/Desktop/dapp/src/contracts/SocialNetwork.sol",
  "compiler": {
    "name": "solc",
    "version": "0.5.16+commit.9c3226ce.Emscripten.clang"
  },
  "schemaVersion": "3.0.23",
  "updatedAt": "2020-04-16T07:41:56.031Z",
  "networkType": "ethereum",
  "devdoc": {
    "methods": {}
  },
  "userdoc": {
    "methods": {}
  }
}