{
  "contractName": "SocialNetwork",
  "abi": [
    {
      "inputs": [],
      "payable": false,
      "stateMutability": "nonpayable",
      "type": "constructor"
    },
    {
      "anonymous": false,
      "inputs": [
        {
          "indexed": false,
          "internalType": "uint256",
          "name": "newBid",
          "type": "uint256"
        },
        {
          "indexed": false,
          "internalType": "uint256",
          "name": "bid",
          "type": "uint256"
        },
        {
          "indexed": false,
          "internalType": "uint256",
          "name": "offer",
          "type": "uint256"
        },
        {
          "indexed": false,
          "internalType": "string",
          "name": "remarks",
          "type": "string"
        }
      ],
      "name": "FailedBid",
      "type": "event"
    },
    {
      "anonymous": false,
      "inputs": [
        {
          "indexed": false,
          "internalType": "uint256",
          "name": "id",
          "type": "uint256"
        },
        {
          "indexed": false,
          "internalType": "uint256",
          "name": "numLikes",
          "type": "uint256"
        }
      ],
      "name": "LikePost",
      "type": "event"
    },
    {
      "anonymous": false,
      "inputs": [
        {
          "indexed": false,
          "internalType": "uint256",
          "name": "id",
          "type": "uint256"
        },
        {
          "indexed": false,
          "internalType": "string",
          "name": "content",
          "type": "string"
        },
        {
          "indexed": false,
          "internalType": "uint256",
          "name": "likes",
          "type": "uint256"
        },
        {
          "indexed": false,
          "internalType": "address payable",
          "name": "author",
          "type": "address"
        }
      ],
      "name": "PostCreated",
      "type": "event"
    },
    {
      "anonymous": false,
      "inputs": [
        {
          "indexed": false,
          "internalType": "uint256",
          "name": "last",
          "type": "uint256"
        },
        {
          "indexed": false,
          "internalType": "uint256",
          "name": "bid",
          "type": "uint256"
        },
        {
          "indexed": false,
          "internalType": "uint256",
          "name": "offer",
          "type": "uint256"
        }
      ],
      "name": "SuccessfulBid",
      "type": "event"
    },
    {
      "constant": true,
      "inputs": [
        {
          "internalType": "address",
          "name": "",
          "type": "address"
        }
      ],
      "name": "balances",
      "outputs": [
        {
          "internalType": "uint256",
          "name": "",
          "type": "uint256"
        }
      ],
      "payable": false,
      "stateMutability": "view",
      "type": "function"
    },
    {
      "constant": true,
      "inputs": [],
      "name": "bid",
      "outputs": [
        {
          "internalType": "uint256",
          "name": "",
          "type": "uint256"
        }
      ],
      "payable": false,
      "stateMutability": "view",
      "type": "function"
    },
    {
      "constant": true,
      "inputs": [],
      "name": "bidSize",
      "outputs": [
        {
          "internalType": "uint256",
          "name": "",
          "type": "uint256"
        }
      ],
      "payable": false,
      "stateMutability": "view",
      "type": "function"
    },
    {
      "constant": true,
      "inputs": [],
      "name": "marketMaker",
      "outputs": [
        {
          "internalType": "address payable",
          "name": "",
          "type": "address"
        }
      ],
      "payable": false,
      "stateMutability": "view",
      "type": "function"
    },
    {
      "constant": true,
      "inputs": [],
      "name": "merchantPrice",
      "outputs": [
        {
          "internalType": "uint256",
          "name": "",
          "type": "uint256"
        }
      ],
      "payable": false,
      "stateMutability": "view",
      "type": "function"
    },
    {
      "constant": true,
      "inputs": [],
      "name": "name",
      "outputs": [
        {
          "internalType": "string",
          "name": "",
          "type": "string"
        }
      ],
      "payable": false,
      "stateMutability": "view",
      "type": "function"
    },
    {
      "constant": true,
      "inputs": [],
      "name": "nonce",
      "outputs": [
        {
          "internalType": "uint256",
          "name": "",
          "type": "uint256"
        }
      ],
      "payable": false,
      "stateMutability": "view",
      "type": "function"
    },
    {
      "constant": true,
      "inputs": [],
      "name": "numPosts",
      "outputs": [
        {
          "internalType": "uint256",
          "name": "",
          "type": "uint256"
        }
      ],
      "payable": false,
      "stateMutability": "view",
      "type": "function"
    },
    {
      "constant": true,
      "inputs": [],
      "name": "offer",
      "outputs": [
        {
          "internalType": "uint256",
          "name": "",
          "type": "uint256"
        }
      ],
      "payable": false,
      "stateMutability": "view",
      "type": "function"
    },
    {
      "constant": true,
      "inputs": [],
      "name": "offerSize",
      "outputs": [
        {
          "internalType": "uint256",
          "name": "",
          "type": "uint256"
        }
      ],
      "payable": false,
      "stateMutability": "view",
      "type": "function"
    },
    {
      "constant": true,
      "inputs": [
        {
          "internalType": "uint256",
          "name": "",
          "type": "uint256"
        }
      ],
      "name": "posts",
      "outputs": [
        {
          "internalType": "uint256",
          "name": "id",
          "type": "uint256"
        },
        {
          "internalType": "string",
          "name": "content",
          "type": "string"
        },
        {
          "internalType": "uint256",
          "name": "likes",
          "type": "uint256"
        },
        {
          "internalType": "address payable",
          "name": "author",
          "type": "address"
        },
        {
          "internalType": "uint256",
          "name": "rewards",
          "type": "uint256"
        }
      ],
      "payable": false,
      "stateMutability": "view",
      "type": "function"
    },
    {
      "constant": false,
      "inputs": [
        {
          "internalType": "string",
          "name": "_content",
          "type": "string"
        }
      ],
      "name": "createPost",
      "outputs": [],
      "payable": true,
      "stateMutability": "payable",
      "type": "function"
    },
    {
      "constant": false,
      "inputs": [
        {
          "internalType": "string",
          "name": "_content",
          "type": "string"
        }
      ],
      "name": "newQuote",
      "outputs": [],
      "payable": true,
      "stateMutability": "payable",
      "type": "function"
    },
    {
      "constant": false,
      "inputs": [
        {
          "internalType": "uint256",
          "name": "_id",
          "type": "uint256"
        }
      ],
      "name": "likePost",
      "outputs": [],
      "payable": true,
      "stateMutability": "payable",
      "type": "function"
    },
    {
      "constant": false,
      "inputs": [
        {
          "internalType": "uint256",
          "name": "_id",
          "type": "uint256"
        }
      ],
      "name": "rewardPost",
      "outputs": [],
      "payable": true,
      "stateMutability": "payable",
      "type": "function"
    },
    {
      "constant": false,
      "inputs": [
        {
          "internalType": "uint256",
          "name": "_id",
          "type": "uint256"
        }
      ],
      "name": "rePost",
      "outputs": [],
      "payable": false,
      "stateMutability": "nonpayable",
      "type": "function"
    }
  ],
  "bytecode": "0x60806040523480156200001157600080fd5b506040518060400160405280600581526020017f41676f7261000000000000000000000000000000000000000000000000000000815250600090805190602001906200005f929190620000c7565b50600a600281905550601460048190555033600860006101000a81548173ffffffffffffffffffffffffffffffffffffffff021916908373ffffffffffffffffffffffffffffffffffffffff160217905550600f600681905550600160078190555062000176565b828054600181600116156101000203166002900490600052602060002090601f016020900481019282601f106200010a57805160ff19168380011785556200013b565b828001600101855582156200013b579182015b828111156200013a5782518255916020019190600101906200011d565b5b5090506200014a91906200014e565b5090565b6200017391905b808211156200016f57600081600090555060010162000155565b5090565b90565b61186680620001866000396000f3fe6080604052600436106100f35760003560e01c80637d98fa111161008a578063c471b73711610059578063c471b7371461053b578063c7303c6114610569578063e9ded3ec14610624578063ec7331e91461064f576100f3565b80637d98fa111461047f578063affed0e0146104ba578063b03b23c2146104e5578063c028df0614610510576100f3565b806327e235e3116100c657806327e235e3146103065780632b70c8fc1461036b57806353e41a5414610396578063725009d314610451576100f3565b806306fdde03146100f85780630b1e7f83146101885780631998aeef146102845780631f21f9af146102af575b600080fd5b34801561010457600080fd5b5061010d61067a565b6040518080602001828103825283818151815260200191508051906020019080838360005b8381101561014d578082015181840152602081019050610132565b50505050905090810190601f16801561017a5780820380516001836020036101000a031916815260200191505b509250505060405180910390f35b34801561019457600080fd5b506101c1600480360360208110156101ab57600080fd5b8101908080359060200190929190505050610718565b60405180868152602001806020018581526020018473ffffffffffffffffffffffffffffffffffffffff1673ffffffffffffffffffffffffffffffffffffffff168152602001838152602001828103825286818151815260200191508051906020019080838360005b8381101561024557808201518184015260208101905061022a565b50505050905090810190601f1680156102725780820380516001836020036101000a031916815260200191505b50965050505050505060405180910390f35b34801561029057600080fd5b50610299610806565b6040518082815260200191505060405180910390f35b3480156102bb57600080fd5b506102c461080c565b604051808273ffffffffffffffffffffffffffffffffffffffff1673ffffffffffffffffffffffffffffffffffffffff16815260200191505060405180910390f35b34801561031257600080fd5b506103556004803603602081101561032957600080fd5b81019080803573ffffffffffffffffffffffffffffffffffffffff169060200190929190505050610832565b6040518082815260200191505060405180910390f35b34801561037757600080fd5b5061038061084a565b6040518082815260200191505060405180910390f35b61044f600480360360208110156103ac57600080fd5b81019080803590602001906401000000008111156103c957600080fd5b8201836020820111156103db57600080fd5b803590602001918460018302840111640100000000831117156103fd57600080fd5b91908080601f016020809104026020016040519081016040528093929190818152602001838380828437600081840152601f19601f820116905080830192505050505050509192919290505050610850565b005b61047d6004803603602081101561046757600080fd5b8101908080359060200190929190505050610d08565b005b34801561048b57600080fd5b506104b8600480360360208110156104a257600080fd5b8101908080359060200190929190505050610da1565b005b3480156104c657600080fd5b506104cf610e7c565b6040518082815260200191505060405180910390f35b3480156104f157600080fd5b506104fa610e82565b6040518082815260200191505060405180910390f35b34801561051c57600080fd5b50610525610e88565b6040518082815260200191505060405180910390f35b6105676004803603602081101561055157600080fd5b8101908080359060200190929190505050610e8e565b005b6106226004803603602081101561057f57600080fd5b810190808035906020019064010000000081111561059c57600080fd5b8201836020820111156105ae57600080fd5b803590602001918460018302840111640100000000831117156105d057600080fd5b91908080601f016020809104026020016040519081016040528093929190818152602001838380828437600081840152601f19601f8201169050808301925050505050505091929192905050506110e5565b005b34801561063057600080fd5b506106396112dd565b6040518082815260200191505060405180910390f35b34801561065b57600080fd5b506106646112e3565b6040518082815260200191505060405180910390f35b60008054600181600116156101000203166002900480601f0160208091040260200160405190810160405280929190818152602001828054600181600116156101000203166002900480156107105780601f106106e557610100808354040283529160200191610710565b820191906000526020600020905b8154815290600101906020018083116106f357829003601f168201915b505050505081565b6009602052806000526040600020600091509050806000015490806001018054600181600116156101000203166002900480601f0160208091040260200160405190810160405280929190818152602001828054600181600116156101000203166002900480156107ca5780601f1061079f576101008083540402835291602001916107ca565b820191906000526020600020905b8154815290600101906020018083116107ad57829003601f168201915b5050505050908060020154908060030160009054906101000a900473ffffffffffffffffffffffffffffffffffffffff16908060040154905085565b60025481565b600860009054906101000a900473ffffffffffffffffffffffffffffffffffffffff1681565b600a6020528060005260406000206000915090505481565b60035481565b6108586116ca565b610861826112e9565b90506108b36108a46040518060400160405280600481526020017f4249443a000000000000000000000000000000000000000000000000000000008152506112e9565b8261131790919063ffffffff16565b15610c035760036000815480929190600101919050555061091a61090b6040518060400160405280600181526020017f3a000000000000000000000000000000000000000000000000000000000000008152506112e9565b8261137090919063ffffffff16565b5060606109268261138a565b90506000610933826113ec565b9050600181029050600454811061094a5760045490505b6002548110610b775760006109628260045403611462565b905060028054600454038161097357fe5b048111156109eb577f100cdeb5b761348cd54c28595d869add727de92d1d7857f604d484a4d9991004826002546004546040518084815260200183815260200182815260200180602001828103825260378152602001806117cf6037913960400194505050505060405180910390a150505050610d05565b600860009054906101000a900473ffffffffffffffffffffffffffffffffffffffff1673ffffffffffffffffffffffffffffffffffffffff166108fc349081150290604051600060405180830381858888f19350505050158015610a53573d6000803e3d6000fd5b5081341015610aad576040517f08c379a000000000000000000000000000000000000000000000000000000000815260040180806020018281038252602c815260200180611806602c913960400191505060405180910390fd5b33600860006101000a81548173ffffffffffffffffffffffffffffffffffffffff021916908373ffffffffffffffffffffffffffffffffffffffff16021790555060006002610afc6008611462565b01905060028181610b0957fe5b04830360028190555060028181610b1c57fe5b0483016004819055507fc3ea97daacf9d7a48fb25db4168b23d7d7426cc66c52095917465c686fb2763c8360025460045460405180848152602001838152602001828152602001935050505060405180910390a15050610bfc565b7f100cdeb5b761348cd54c28595d869add727de92d1d7857f604d484a4d99910048160025460045460405180848152602001838152602001828152602001806020018281038252601f8152602001807f4269642069732062656c6f772063757272656e74206d61726b6574206269640081525060200194505050505060405180910390a15b5050610d03565b610c53610c446040518060400160405280600681526020017f4f464645523a00000000000000000000000000000000000000000000000000008152506112e9565b8261131790919063ffffffff16565b15610cfc57600560008154809291906001019190505550610cba610cab6040518060400160405280600181526020017f3a000000000000000000000000000000000000000000000000000000000000008152506112e9565b8261137090919063ffffffff16565b506060610cc68261138a565b9050610cd1816113ec565b6004819055506000610ce2826113ec565b90506004548111610cf557806004819055505b5050610d02565b50610d05565b5b505b50565b600081118015610d1a57506001548111155b610d2357600080fd5b60096000828152602001908152602001600020600201600081548092919060010191905055507fb761b7ee23f42dfa6aebc272b413d8b523f07e9f3aa3d9d2cd6fa478fe1c8e33816009600084815260200190815260200160002060020154604051808381526020018281526020019250505060405180910390a150565b600081118015610db357506001548111155b610dbc57600080fd5b6060600960008381526020019081526020016000206001018054600181600116156101000203166002900480601f016020809104026020016040519081016040528092919081815260200182805460018160011615610100020316600290048015610e685780601f10610e3d57610100808354040283529160200191610e68565b820191906000526020600020905b815481529060010190602001808311610e4b57829003601f168201915b50505050509050610e78816110e5565b5050565b60075481565b60065481565b60045481565b600081118015610ea057506001548111155b610ea957600080fd5b610eb16116e4565b600960008381526020019081526020016000206040518060a001604052908160008201548152602001600182018054600181600116156101000203166002900480601f016020809104026020016040519081016040528092919081815260200182805460018160011615610100020316600290048015610f725780601f10610f4757610100808354040283529160200191610f72565b820191906000526020600020905b815481529060010190602001808311610f5557829003601f168201915b50505050508152602001600282015481526020016003820160009054906101000a900473ffffffffffffffffffffffffffffffffffffffff1673ffffffffffffffffffffffffffffffffffffffff1673ffffffffffffffffffffffffffffffffffffffff16815260200160048201548152505090506000816060015190508073ffffffffffffffffffffffffffffffffffffffff166108fc349081150290604051600060405180830381858888f19350505050158015611036573d6000803e3d6000fd5b50348260800181815101915081815250508160096000858152602001908152602001600020600082015181600001556020820151816001019080519060200190611081929190611729565b506040820151816002015560608201518160030160006101000a81548173ffffffffffffffffffffffffffffffffffffffff021916908373ffffffffffffffffffffffffffffffffffffffff16021790555060808201518160040155905050505050565b600081511180156110f857506102308151105b61110157600080fd5b6001600081548092919060010191905055506040518060a001604052806001548152602001828152602001600081526020013373ffffffffffffffffffffffffffffffffffffffff168152602001600081525060096000600154815260200190815260200160002060008201518160000155602082015181600101908051906020019061118f929190611729565b506040820151816002015560608201518160030160006101000a81548173ffffffffffffffffffffffffffffffffffffffff021916908373ffffffffffffffffffffffffffffffffffffffff160217905550608082015181600401559050506111f781610850565b7fc66336337a24e513f909b3b25119854dba8385d51307dbc7d31d1b2805e19c7e6001548260003360405180858152602001806020018481526020018373ffffffffffffffffffffffffffffffffffffffff1673ffffffffffffffffffffffffffffffffffffffff168152602001828103825285818151815260200191508051906020019080838360005b8381101561129d578082015181840152602081019050611282565b50505050905090810190601f1680156112ca5780820380516001836020036101000a031916815260200191505b509550505050505060405180910390a150565b60055481565b60015481565b6112f16116ca565b600060208301905060405180604001604052808451815260200182815250915050919050565b6000816000015183600001511015611332576000905061136a565b81602001518360200151141561134b576001905061136a565b6000825160208501516020850151828120838320149350505050809150505b92915050565b6113786116ca565b611383838383611508565b5092915050565b60608082600001516040519080825280601f01601f1916602001820160405280156113c45781602001600182028038833980820191505090505b50905060006020820190506113e281856020015186600001516115a6565b8192505050919050565b600060608290506000809250600090505b815181101561145857600082828151811061141457fe5b602001015160f81c60f81b60f81c60ff16905060308110158015611439575060398111155b1561144a5760308103600a85020193505b5080806001019150506113fd565b8292505050919050565b6000808214156114755781806001019250505b6000824233600754604051602001808481526020018373ffffffffffffffffffffffffffffffffffffffff1673ffffffffffffffffffffffffffffffffffffffff1660601b815260140182815260200193505050506040516020818303038152906040528051906020012060001c816114ea57fe5b06905060076000815480929190600101919050555080915050919050565b6115106116ca565b600061152e85600001518660200151866000015187602001516115ef565b9050846020015183602001818152505084602001518103836000018181525050846000015185602001510181141561157057600085600001818152505061159b565b8360000151836000015101856000018181510391508181525050836000015181018560200181815250505b829150509392505050565b5b602081106115ca57815183526020830192506020820191506020810390506115a7565b60006001826020036101000a0390508019835116818551168181178652505050505050565b60008084905060008685116116ba576020851161167457600060018660200360080260020a031960001b905060008186511690506000878a8a0103905060008386511690505b82811461166657818610611653578a8a0196505050505050506116c2565b8580600101965050838651169050611635565b8596505050505050506116c2565b60008585209050600091505b85880382116116b85760008684209050808214156116a457839450505050506116c2565b600184019350508180600101925050611680565b505b868601925050505b949350505050565b604051806040016040528060008152602001600081525090565b6040518060a00160405280600081526020016060815260200160008152602001600073ffffffffffffffffffffffffffffffffffffffff168152602001600081525090565b828054600181600116156101000203166002900490600052602060002090601f016020900481019282601f1061176a57805160ff1916838001178555611798565b82800160010185558215611798579182015b8281111561179757825182559160200191906001019061177c565b5b5090506117a591906117a9565b5090565b6117cb91905b808211156117c75760008160009055506001016117af565b5090565b9056fe42696420776173206e6f742066696c6c6564206279206d61726b6574206d616b65722e205472792062696464696e67206869676865722e6d73672e76616c7565206d75737420626520657175616c20746f206e6577426964206f722067726561746572a265627a7a723158209723f49a9ce994253b2d78b2dbabb7aa1e66aceaa4c4d6f9c5eb5974b224e68764736f6c63430005100032",
  "source": "pragma solidity ^0.5.0;\n\nimport {strings} from \"strings.sol\";\n\ncontract SocialNetwork {\n\tusing strings for *;\n\n\tstring public name;\n\tuint public numPosts;\n\tuint public bid;\n\tuint public bidSize;\n\tuint public offer;\n\tuint public offerSize;\n\tuint public merchantPrice;\n\tuint public nonce;\n\taddress payable public marketMaker;\n\tmapping(uint => Post) public posts;\n\tmapping(address => uint) public balances;\n\n\tstruct Post {\n\t\tuint id;\n\t\tstring content;\n\t\tuint likes;\n\t\taddress payable author;\n\t\tuint rewards;\n\t}\n\n\tconstructor() public {\n\t\tname = \"Agora\";\n\t\tbid = 10 wei;\n\t\toffer = 20 wei;\n\t\tmarketMaker = msg.sender;\n\t\tmerchantPrice = 15 wei;\n\t\tnonce = 1;\n\t}\n\n\tevent PostCreated(uint id, string content, uint likes, address payable author);\n\n\tfunction createPost(string memory _content) public payable {\n\t\t// Require content to be longer than 0 bytes and shorter than 560 bytes\n\t\trequire(bytes(_content).length > 0 && bytes(_content).length < 560);\n\n\t\t// Increment num posts\n\t\tnumPosts ++;\n\n\t\t// Store post in mapping\n\t\tposts[numPosts] = Post(numPosts, _content, 0, msg.sender, 0);\n\n\t\t// Check if it's a quote\n\t\tnewQuote(_content);\n\n\t\t// Emit post\n\t\temit PostCreated(numPosts, _content, 0, msg.sender);\n\t}\n\n\tfunction random(uint max) internal returns (uint) {\n\t\t// Pseudo randomly generate number from 0 to max\n\n\t\t// Prevent modulo by zero error\n\t\tif (max == 0) {\n\t\t\tmax ++;\n\t\t}\n\n\t\tuint _random = uint(keccak256(abi.encodePacked(now, msg.sender, nonce)))%max;\n\t\tnonce ++;\n\t\treturn _random;\n\t}\n\n\tevent FailedBid(uint newBid, uint bid, uint offer, string remarks);\n\tevent SuccessfulBid(uint last, uint bid, uint offer);\n\n\tfunction newQuote(string memory _content) public payable {\n\t\tstrings.slice memory slice = _content.toSlice();\n\t\tif (slice.startsWith(\"BID:\".toSlice())) {\n\n\t\t\t// All bids should increment bidSize\n\t\t\tbidSize ++;\n\t\t\t\n\t\t\t// Use imported strings library to get the x value out of \"BID:x\"\n\t\t\tslice.split(\":\".toSlice()); \n\t\t\tstring memory order = slice.toString();\n\t\t\t\n\t\t\t// Convert string to uint so we can compare it to market bid\n\t\t\tuint newBid = stringToUint(order);\n\n\t\t\t// Convert bid to wei denomination by default\n\t\t\tnewBid = newBid * 1 wei;\n\n\t\t\t// All bids are capped by current market offer\n\t\t\tif (newBid >= offer) {\n\t\t\t\tnewBid = offer;\n\t\t\t}\n\t\t\t\n\t\t\t// Valid bid has to be higher than current market bid\n\t\t\tif (newBid >= bid) {\n\t\t\t\t\n\t\t\t\t// Generate random number\n\t\t\t\tuint rnd = random(offer - newBid);\n\n\t\t\t\t// Closer the bid is to the offer, higher chance of transaction taking place\n\t\t\t\tif (rnd > (offer - bid) / 2) {\n\t\t\t\t\temit FailedBid(newBid, bid, offer, \"Bid was not filled by market maker. Try bidding higher.\");\n\t\t\t\t\treturn;\n\t\t\t\t}\n\n\t\t\t\t// Transfer money to current market maker\n\t\t\t\taddress(marketMaker).transfer(msg.value);\n\t\t\t\trequire(msg.value >= newBid, \"msg.value must be equal to newBid or greater\");\n\n\t\t\t\t// New market maker sets his own bid and offer spread\n\t\t\t\t// Spread is generated by random function, capped to between 2-10 wei\n\t\t\t\tmarketMaker = msg.sender;\n\t\t\t\tuint spread = random(8) + 2;\n\t\t\t\tbid = newBid - spread / 2;\n\t\t\t\toffer = newBid + spread / 2;\n\t\t\t\temit SuccessfulBid(newBid, bid, offer);\n\t\t\t}\n\n\t\t\t// Failed bid since < current market bid\n\t\t\telse {\n\t\t\t\temit FailedBid(newBid, bid, offer, \"Bid is below current market bid\");\n\t\t\t}\n\t\t}\n\n\t\telse if (slice.startsWith(\"OFFER:\".toSlice())) {\n\t\t\t// All offers should increment offerSize\n\t\t\tofferSize ++;\n\n\t\t\t// Use imported strings library to help with string util functons\n\t\t\tslice.split(\":\".toSlice());\n\t\t\tstring memory order = slice.toString();\n\n\t\t\t// Convert string to uint\n\t\t\toffer = stringToUint(order);\n\n\t\t\t// Market offer should always reflect currently best(lowest) offer\n\t\t\tuint newOffer = stringToUint(order);\n\t\t\tif (newOffer <= offer) {\n\t\t\t\toffer = newOffer;\n\t\t\t}\n\t\t}\n\n\t\telse {\n\t\t\treturn;\n\t\t}\n\t}\n\n\t// pure function won't even read the storage state\n\tfunction stringToUint(string memory s) internal pure returns (uint result) {\n\t\tbytes memory b = bytes(s);\n\t\tuint i;\n\t\tresult = 0;\n\t\tfor (i = 0; i < b.length; i++) {\n\t\t\tuint c = uint(uint8(b[i]));\n\t\t\tif (c >= 48 && c <= 57) {\n\t\t\t\tresult = result * 10 + (c - 48);\n\t\t\t}\n\t\t}\n\n\t\treturn result;\n\t}\n\n\tevent LikePost(uint id, uint numLikes);\n\n\tfunction likePost(uint _id) public payable {\n\t\t// Require id to be greater than 0 and smaller than num posts\n\t\trequire(_id > 0 && _id <= numPosts);\n\n\t\t// Increment the number of likes\n\t\tposts[_id].likes ++;\n\n\t\temit LikePost(_id, posts[_id].likes);\n\t}\n\n\tfunction rewardPost(uint _id) public payable {\n\t\t// Require id to be greater than 0 and smaller than num posts\n\t\trequire(_id > 0 && _id <= numPosts);\n\n\t\t// Require sufficient balance\n\n\t\t// Get post\n\t\tPost memory _post = posts[_id];\n\n\t\t// Get author of post\n\t\taddress payable _author = _post.author;\n\n\t\t// Pay author of post\n\t\taddress(_author).transfer(msg.value);\n\n\t\t// Increment post reward\n\t\t_post.rewards += msg.value;\n\n\t\t// Update the post\n\t\tposts[_id] = _post;\n\t}\n\n\tfunction rePost(uint _id) public {\n\t\t// Require id to be greater than 0 and smaller than num posts\n\t\trequire(_id > 0 && _id <= numPosts);\n\n\t\t// Get content of post\n\t\tstring memory _content = posts[_id].content;\n\n\t\t// Repost same content but with current user\n\t\tcreatePost(_content);\n\t}\n}",
  "sourcePath": "/Users/aidenchia/Desktop/dapp/src/contracts/SocialNetwork.sol",
  "compiler": {
    "name": "solc",
    "version": "0.5.16+commit.9c3226ce.Emscripten.clang"
  },
  "schemaVersion": "3.0.23",
  "updatedAt": "2020-04-13T16:51:31.217Z",
  "networkType": "ethereum",
  "devdoc": {
    "methods": {}
  },
  "userdoc": {
    "methods": {}
  }
}