{
  "contractName": "SocialNetwork",
  "abi": [
    {
      "inputs": [],
      "payable": false,
      "stateMutability": "nonpayable",
      "type": "constructor"
    },
    {
      "anonymous": false,
      "inputs": [
        {
          "indexed": false,
          "internalType": "uint256",
          "name": "newQuote",
          "type": "uint256"
        },
        {
          "indexed": false,
          "internalType": "uint256",
          "name": "bid",
          "type": "uint256"
        },
        {
          "indexed": false,
          "internalType": "uint256",
          "name": "offer",
          "type": "uint256"
        },
        {
          "indexed": false,
          "internalType": "string",
          "name": "remarks",
          "type": "string"
        }
      ],
      "name": "FailedTxn",
      "type": "event"
    },
    {
      "anonymous": false,
      "inputs": [
        {
          "indexed": false,
          "internalType": "uint256",
          "name": "id",
          "type": "uint256"
        },
        {
          "indexed": false,
          "internalType": "uint256",
          "name": "numLikes",
          "type": "uint256"
        }
      ],
      "name": "LikePost",
      "type": "event"
    },
    {
      "anonymous": false,
      "inputs": [
        {
          "indexed": false,
          "internalType": "uint256",
          "name": "id",
          "type": "uint256"
        },
        {
          "indexed": false,
          "internalType": "string",
          "name": "content",
          "type": "string"
        },
        {
          "indexed": false,
          "internalType": "uint256",
          "name": "likes",
          "type": "uint256"
        },
        {
          "indexed": false,
          "internalType": "address payable",
          "name": "author",
          "type": "address"
        }
      ],
      "name": "PostCreated",
      "type": "event"
    },
    {
      "anonymous": false,
      "inputs": [
        {
          "indexed": false,
          "internalType": "uint256",
          "name": "last",
          "type": "uint256"
        },
        {
          "indexed": false,
          "internalType": "uint256",
          "name": "bid",
          "type": "uint256"
        },
        {
          "indexed": false,
          "internalType": "uint256",
          "name": "offer",
          "type": "uint256"
        }
      ],
      "name": "SuccessfulTxn",
      "type": "event"
    },
    {
      "constant": true,
      "inputs": [],
      "name": "bid",
      "outputs": [
        {
          "internalType": "uint256",
          "name": "",
          "type": "uint256"
        }
      ],
      "payable": false,
      "stateMutability": "view",
      "type": "function"
    },
    {
      "constant": true,
      "inputs": [],
      "name": "bidSize",
      "outputs": [
        {
          "internalType": "uint256",
          "name": "",
          "type": "uint256"
        }
      ],
      "payable": false,
      "stateMutability": "view",
      "type": "function"
    },
    {
      "constant": true,
      "inputs": [],
      "name": "marketMaker",
      "outputs": [
        {
          "internalType": "address payable",
          "name": "",
          "type": "address"
        }
      ],
      "payable": false,
      "stateMutability": "view",
      "type": "function"
    },
    {
      "constant": true,
      "inputs": [],
      "name": "merchantPrice",
      "outputs": [
        {
          "internalType": "uint256",
          "name": "",
          "type": "uint256"
        }
      ],
      "payable": false,
      "stateMutability": "view",
      "type": "function"
    },
    {
      "constant": true,
      "inputs": [],
      "name": "name",
      "outputs": [
        {
          "internalType": "string",
          "name": "",
          "type": "string"
        }
      ],
      "payable": false,
      "stateMutability": "view",
      "type": "function"
    },
    {
      "constant": true,
      "inputs": [],
      "name": "nonce",
      "outputs": [
        {
          "internalType": "uint256",
          "name": "",
          "type": "uint256"
        }
      ],
      "payable": false,
      "stateMutability": "view",
      "type": "function"
    },
    {
      "constant": true,
      "inputs": [],
      "name": "numPosts",
      "outputs": [
        {
          "internalType": "uint256",
          "name": "",
          "type": "uint256"
        }
      ],
      "payable": false,
      "stateMutability": "view",
      "type": "function"
    },
    {
      "constant": true,
      "inputs": [],
      "name": "offer",
      "outputs": [
        {
          "internalType": "uint256",
          "name": "",
          "type": "uint256"
        }
      ],
      "payable": false,
      "stateMutability": "view",
      "type": "function"
    },
    {
      "constant": true,
      "inputs": [
        {
          "internalType": "address",
          "name": "",
          "type": "address"
        }
      ],
      "name": "offerQueue",
      "outputs": [
        {
          "internalType": "uint256",
          "name": "",
          "type": "uint256"
        }
      ],
      "payable": false,
      "stateMutability": "view",
      "type": "function"
    },
    {
      "constant": true,
      "inputs": [],
      "name": "offerSize",
      "outputs": [
        {
          "internalType": "uint256",
          "name": "",
          "type": "uint256"
        }
      ],
      "payable": false,
      "stateMutability": "view",
      "type": "function"
    },
    {
      "constant": true,
      "inputs": [
        {
          "internalType": "uint256",
          "name": "",
          "type": "uint256"
        }
      ],
      "name": "posts",
      "outputs": [
        {
          "internalType": "uint256",
          "name": "id",
          "type": "uint256"
        },
        {
          "internalType": "string",
          "name": "content",
          "type": "string"
        },
        {
          "internalType": "uint256",
          "name": "likes",
          "type": "uint256"
        },
        {
          "internalType": "address payable",
          "name": "author",
          "type": "address"
        },
        {
          "internalType": "uint256",
          "name": "rewards",
          "type": "uint256"
        }
      ],
      "payable": false,
      "stateMutability": "view",
      "type": "function"
    },
    {
      "constant": false,
      "inputs": [
        {
          "internalType": "string",
          "name": "_content",
          "type": "string"
        }
      ],
      "name": "createPost",
      "outputs": [],
      "payable": true,
      "stateMutability": "payable",
      "type": "function"
    },
    {
      "constant": false,
      "inputs": [
        {
          "internalType": "string",
          "name": "_content",
          "type": "string"
        }
      ],
      "name": "newQuote",
      "outputs": [],
      "payable": true,
      "stateMutability": "payable",
      "type": "function"
    },
    {
      "constant": false,
      "inputs": [
        {
          "internalType": "address payable",
          "name": "seller",
          "type": "address"
        }
      ],
      "name": "clearOffer",
      "outputs": [],
      "payable": true,
      "stateMutability": "payable",
      "type": "function"
    },
    {
      "constant": false,
      "inputs": [
        {
          "internalType": "uint256",
          "name": "_id",
          "type": "uint256"
        }
      ],
      "name": "likePost",
      "outputs": [],
      "payable": false,
      "stateMutability": "nonpayable",
      "type": "function"
    },
    {
      "constant": false,
      "inputs": [
        {
          "internalType": "uint256",
          "name": "_id",
          "type": "uint256"
        }
      ],
      "name": "rewardPost",
      "outputs": [],
      "payable": true,
      "stateMutability": "payable",
      "type": "function"
    },
    {
      "constant": false,
      "inputs": [
        {
          "internalType": "uint256",
          "name": "_id",
          "type": "uint256"
        }
      ],
      "name": "rePost",
      "outputs": [],
      "payable": false,
      "stateMutability": "nonpayable",
      "type": "function"
    }
  ],
  "bytecode": "0x60806040523480156200001157600080fd5b506040518060400160405280600581526020017f41676f7261000000000000000000000000000000000000000000000000000000815250600090805190602001906200005f929190620000c7565b50600a600281905550601460048190555033600860006101000a81548173ffffffffffffffffffffffffffffffffffffffff021916908373ffffffffffffffffffffffffffffffffffffffff160217905550600f600681905550600160078190555062000176565b828054600181600116156101000203166002900490600052602060002090601f016020900481019282601f106200010a57805160ff19168380011785556200013b565b828001600101855582156200013b579182015b828111156200013a5782518255916020019190600101906200011d565b5b5090506200014a91906200014e565b5090565b6200017391905b808211156200016f57600081600090555060010162000155565b5090565b90565b611c7b80620001866000396000f3fe6080604052600436106100fe5760003560e01c8063725009d311610095578063c028df0611610064578063c028df061461056c578063c471b73714610597578063c7303c61146105c5578063e9ded3ec14610680578063ec7331e9146106ab576100fe565b8063725009d3146104a05780637d98fa11146104db578063affed0e014610516578063b03b23c214610541576100fe565b80631f21f9af116100d15780631f21f9af146102fe5780632b70c8fc1461035557806353b0f2741461038057806353e41a54146103e5576100fe565b806306fdde03146101035780630b1e7f83146101935780631998aeef1461028f5780631a798089146102ba575b600080fd5b34801561010f57600080fd5b506101186106d6565b6040518080602001828103825283818151815260200191508051906020019080838360005b8381101561015857808201518184015260208101905061013d565b50505050905090810190601f1680156101855780820380516001836020036101000a031916815260200191505b509250505060405180910390f35b34801561019f57600080fd5b506101cc600480360360208110156101b657600080fd5b8101908080359060200190929190505050610774565b60405180868152602001806020018581526020018473ffffffffffffffffffffffffffffffffffffffff1673ffffffffffffffffffffffffffffffffffffffff168152602001838152602001828103825286818151815260200191508051906020019080838360005b83811015610250578082015181840152602081019050610235565b50505050905090810190601f16801561027d5780820380516001836020036101000a031916815260200191505b50965050505050505060405180910390f35b34801561029b57600080fd5b506102a4610862565b6040518082815260200191505060405180910390f35b6102fc600480360360208110156102d057600080fd5b81019080803573ffffffffffffffffffffffffffffffffffffffff169060200190929190505050610868565b005b34801561030a57600080fd5b50610313610a59565b604051808273ffffffffffffffffffffffffffffffffffffffff1673ffffffffffffffffffffffffffffffffffffffff16815260200191505060405180910390f35b34801561036157600080fd5b5061036a610a7f565b6040518082815260200191505060405180910390f35b34801561038c57600080fd5b506103cf600480360360208110156103a357600080fd5b81019080803573ffffffffffffffffffffffffffffffffffffffff169060200190929190505050610a85565b6040518082815260200191505060405180910390f35b61049e600480360360208110156103fb57600080fd5b810190808035906020019064010000000081111561041857600080fd5b82018360208201111561042a57600080fd5b8035906020019184600183028401116401000000008311171561044c57600080fd5b91908080601f016020809104026020016040519081016040528093929190818152602001838380828437600081840152601f19601f820116905080830192505050505050509192919290505050610a9d565b005b3480156104ac57600080fd5b506104d9600480360360208110156104c357600080fd5b8101908080359060200190929190505050611093565b005b3480156104e757600080fd5b50610514600480360360208110156104fe57600080fd5b810190808035906020019092919050505061112c565b005b34801561052257600080fd5b5061052b611207565b6040518082815260200191505060405180910390f35b34801561054d57600080fd5b5061055661120d565b6040518082815260200191505060405180910390f35b34801561057857600080fd5b50610581611213565b6040518082815260200191505060405180910390f35b6105c3600480360360208110156105ad57600080fd5b8101908080359060200190929190505050611219565b005b61067e600480360360208110156105db57600080fd5b81019080803590602001906401000000008111156105f857600080fd5b82018360208201111561060a57600080fd5b8035906020019184600183028401116401000000008311171561062c57600080fd5b91908080601f016020809104026020016040519081016040528093929190818152602001838380828437600081840152601f19601f820116905080830192505050505050509192919290505050611470565b005b34801561068c57600080fd5b50610695611668565b6040518082815260200191505060405180910390f35b3480156106b757600080fd5b506106c061166e565b6040518082815260200191505060405180910390f35b60008054600181600116156101000203166002900480601f01602080910402602001604051908101604052809291908181526020018280546001816001161561010002031660029004801561076c5780601f106107415761010080835404028352916020019161076c565b820191906000526020600020905b81548152906001019060200180831161074f57829003601f168201915b505050505081565b6009602052806000526040600020600091509050806000015490806001018054600181600116156101000203166002900480601f0160208091040260200160405190810160405280929190818152602001828054600181600116156101000203166002900480156108265780601f106107fb57610100808354040283529160200191610826565b820191906000526020600020905b81548152906001019060200180831161080957829003601f168201915b5050505050908060020154908060030160009054906101000a900473ffffffffffffffffffffffffffffffffffffffff16908060040154905085565b60025481565b6000600a60008373ffffffffffffffffffffffffffffffffffffffff1673ffffffffffffffffffffffffffffffffffffffff16815260200190815260200160002054905080341015610905576040517f08c379a000000000000000000000000000000000000000000000000000000000815260040180806020018281038252602e815260200180611c19602e913960400191505060405180910390fd5b8173ffffffffffffffffffffffffffffffffffffffff166108fc349081150290604051600060405180830381858888f1935050505015801561094b573d6000803e3d6000fd5b5081600860006101000a81548173ffffffffffffffffffffffffffffffffffffffff021916908373ffffffffffffffffffffffffffffffffffffffff1602179055506000600a60008473ffffffffffffffffffffffffffffffffffffffff1673ffffffffffffffffffffffffffffffffffffffff16815260200190815260200160002081905550600060026109e06008611674565b019050600281816109ed57fe5b04820360028190555060028181610a0057fe5b0482016004819055507f7b0517da0d3aa7b2807780a9e10d9a6be5766ffe1facd84cd50c817ed72bda448260025460045460405180848152602001838152602001828152602001935050505060405180910390a1505050565b600860009054906101000a900473ffffffffffffffffffffffffffffffffffffffff1681565b60035481565b600a6020528060005260406000206000915090505481565b610aa5611a55565b610aae8261171a565b9050610b00610af16040518060400160405280600481526020017f4249443a0000000000000000000000000000000000000000000000000000000081525061171a565b8261174890919063ffffffff16565b15610e5057600360008154809291906001019190505550610b67610b586040518060400160405280600181526020017f3a0000000000000000000000000000000000000000000000000000000000000081525061171a565b826117a190919063ffffffff16565b506060610b73826117bb565b90506000610b808261181d565b90506001810290506004548110610b975760045490505b6002548110610dc4576000610baf8260045403611674565b9050600280546004540381610bc057fe5b04811115610c38577f3428e480e045a8960f39f7c8f04c8c99a7b7a81fe2837365c3938c6f264dde6482600254600454604051808481526020018381526020018281526020018060200182810382526037815260200180611b936037913960400194505050505060405180910390a150505050611090565b81341015610c91576040517f08c379a000000000000000000000000000000000000000000000000000000000815260040180806020018281038252602c815260200180611bca602c913960400191505060405180910390fd5b600860009054906101000a900473ffffffffffffffffffffffffffffffffffffffff1673ffffffffffffffffffffffffffffffffffffffff166108fc349081150290604051600060405180830381858888f19350505050158015610cf9573d6000803e3d6000fd5b5033600860006101000a81548173ffffffffffffffffffffffffffffffffffffffff021916908373ffffffffffffffffffffffffffffffffffffffff16021790555060006002610d496008611674565b01905060028181610d5657fe5b04830360028190555060028181610d6957fe5b0483016004819055507f7b0517da0d3aa7b2807780a9e10d9a6be5766ffe1facd84cd50c817ed72bda448360025460045460405180848152602001838152602001828152602001935050505060405180910390a15050610e49565b7f3428e480e045a8960f39f7c8f04c8c99a7b7a81fe2837365c3938c6f264dde648160025460045460405180848152602001838152602001828152602001806020018281038252601f8152602001807f4269642069732062656c6f772063757272656e74206d61726b6574206269640081525060200194505050505060405180910390a15b505061108e565b610ea0610e916040518060400160405280600681526020017f4f464645523a000000000000000000000000000000000000000000000000000081525061171a565b8261174890919063ffffffff16565b1561108d57600560008154809291906001019190505550610f07610ef86040518060400160405280600181526020017f3a0000000000000000000000000000000000000000000000000000000000000081525061171a565b826117a190919063ffffffff16565b506060610f13826117bb565b90506000610f208261181d565b90506001810290506002548110610f375760025490505b6004548111611022576000610f4f6002548303611674565b9050600280546004540381610f6057fe5b04811115610fd8577f3428e480e045a8960f39f7c8f04c8c99a7b7a81fe2837365c3938c6f264dde6482600254600454604051808481526020018381526020018281526020018060200182810382526039815260200180611b5a6039913960400194505050505060405180910390a150505050611090565b81600a60003373ffffffffffffffffffffffffffffffffffffffff1673ffffffffffffffffffffffffffffffffffffffff168152602001908152602001600020819055505061108a565b7f3428e480e045a8960f39f7c8f04c8c99a7b7a81fe2837365c3938c6f264dde6481600254600454604051808481526020018381526020018281526020018060200182810382526023815260200180611bf66023913960400194505050505060405180910390a15b50505b5b505b50565b6000811180156110a557506001548111155b6110ae57600080fd5b60096000828152602001908152602001600020600201600081548092919060010191905055507fb761b7ee23f42dfa6aebc272b413d8b523f07e9f3aa3d9d2cd6fa478fe1c8e33816009600084815260200190815260200160002060020154604051808381526020018281526020019250505060405180910390a150565b60008111801561113e57506001548111155b61114757600080fd5b6060600960008381526020019081526020016000206001018054600181600116156101000203166002900480601f0160208091040260200160405190810160405280929190818152602001828054600181600116156101000203166002900480156111f35780601f106111c8576101008083540402835291602001916111f3565b820191906000526020600020905b8154815290600101906020018083116111d657829003601f168201915b5050505050905061120381611470565b5050565b60075481565b60065481565b60045481565b60008111801561122b57506001548111155b61123457600080fd5b61123c611a6f565b600960008381526020019081526020016000206040518060a001604052908160008201548152602001600182018054600181600116156101000203166002900480601f0160208091040260200160405190810160405280929190818152602001828054600181600116156101000203166002900480156112fd5780601f106112d2576101008083540402835291602001916112fd565b820191906000526020600020905b8154815290600101906020018083116112e057829003601f168201915b50505050508152602001600282015481526020016003820160009054906101000a900473ffffffffffffffffffffffffffffffffffffffff1673ffffffffffffffffffffffffffffffffffffffff1673ffffffffffffffffffffffffffffffffffffffff16815260200160048201548152505090506000816060015190508073ffffffffffffffffffffffffffffffffffffffff166108fc349081150290604051600060405180830381858888f193505050501580156113c1573d6000803e3d6000fd5b5034826080018181510191508181525050816009600085815260200190815260200160002060008201518160000155602082015181600101908051906020019061140c929190611ab4565b506040820151816002015560608201518160030160006101000a81548173ffffffffffffffffffffffffffffffffffffffff021916908373ffffffffffffffffffffffffffffffffffffffff16021790555060808201518160040155905050505050565b6000815111801561148357506102308151105b61148c57600080fd5b6001600081548092919060010191905055506040518060a001604052806001548152602001828152602001600081526020013373ffffffffffffffffffffffffffffffffffffffff168152602001600081525060096000600154815260200190815260200160002060008201518160000155602082015181600101908051906020019061151a929190611ab4565b506040820151816002015560608201518160030160006101000a81548173ffffffffffffffffffffffffffffffffffffffff021916908373ffffffffffffffffffffffffffffffffffffffff1602179055506080820151816004015590505061158281610a9d565b7fc66336337a24e513f909b3b25119854dba8385d51307dbc7d31d1b2805e19c7e6001548260003360405180858152602001806020018481526020018373ffffffffffffffffffffffffffffffffffffffff1673ffffffffffffffffffffffffffffffffffffffff168152602001828103825285818151815260200191508051906020019080838360005b8381101561162857808201518184015260208101905061160d565b50505050905090810190601f1680156116555780820380516001836020036101000a031916815260200191505b509550505050505060405180910390a150565b60055481565b60015481565b6000808214156116875781806001019250505b6000824233600754604051602001808481526020018373ffffffffffffffffffffffffffffffffffffffff1673ffffffffffffffffffffffffffffffffffffffff1660601b815260140182815260200193505050506040516020818303038152906040528051906020012060001c816116fc57fe5b06905060076000815480929190600101919050555080915050919050565b611722611a55565b600060208301905060405180604001604052808451815260200182815250915050919050565b6000816000015183600001511015611763576000905061179b565b81602001518360200151141561177c576001905061179b565b6000825160208501516020850151828120838320149350505050809150505b92915050565b6117a9611a55565b6117b4838383611893565b5092915050565b60608082600001516040519080825280601f01601f1916602001820160405280156117f55781602001600182028038833980820191505090505b50905060006020820190506118138185602001518660000151611931565b8192505050919050565b600060608290506000809250600090505b815181101561188957600082828151811061184557fe5b602001015160f81c60f81b60f81c60ff1690506030811015801561186a575060398111155b1561187b5760308103600a85020193505b50808060010191505061182e565b8292505050919050565b61189b611a55565b60006118b9856000015186602001518660000151876020015161197a565b905084602001518360200181815250508460200151810383600001818152505084600001518560200151018114156118fb576000856000018181525050611926565b8360000151836000015101856000018181510391508181525050836000015181018560200181815250505b829150509392505050565b5b602081106119555781518352602083019250602082019150602081039050611932565b60006001826020036101000a0390508019835116818551168181178652505050505050565b6000808490506000868511611a4557602085116119ff57600060018660200360080260020a031960001b905060008186511690506000878a8a0103905060008386511690505b8281146119f1578186106119de578a8a019650505050505050611a4d565b85806001019650508386511690506119c0565b859650505050505050611a4d565b60008585209050600091505b8588038211611a43576000868420905080821415611a2f5783945050505050611a4d565b600184019350508180600101925050611a0b565b505b868601925050505b949350505050565b604051806040016040528060008152602001600081525090565b6040518060a00160405280600081526020016060815260200160008152602001600073ffffffffffffffffffffffffffffffffffffffff168152602001600081525090565b828054600181600116156101000203166002900490600052602060002090601f016020900481019282601f10611af557805160ff1916838001178555611b23565b82800160010185558215611b23579182015b82811115611b22578251825591602001919060010190611b07565b5b509050611b309190611b34565b5090565b611b5691905b80821115611b52576000816000905550600101611b3a565b5090565b9056fe4f6666657220776173206e6f742066696c6c6564206279206d61726b6574206d616b65722e20547279206f66666572696e67206c6f7765722e42696420776173206e6f742066696c6c6564206279206d61726b6574206d616b65722e205472792062696464696e67206869676865722e6d73672e76616c7565206d75737420626520657175616c20746f206e6577426964206f7220677265617465724f666665722069732061626f76652063757272656e74206d61726b6574206f666665726d73672e76616c7565206d75737420626520657175616c20746f206e65774f66666572206f722067726561746572a265627a7a723158207143378f2765167156aaab66ac00e0b071d86bcf987d5ed68f0b7f8131d0a63764736f6c63430005100032",
  "source": "pragma solidity ^0.5.0;\n\nimport {strings} from \"strings.sol\";\n\ncontract SocialNetwork {\n\tusing strings for *;\n\n\tstring public name;\n\tuint public numPosts;\n\tuint public bid;\n\tuint public bidSize;\n\tuint public offer;\n\tuint public offerSize;\n\tuint public merchantPrice;\n\tuint public nonce;\n\taddress payable public marketMaker;\n\tmapping(uint => Post) public posts;\n\tmapping(address => uint) public offerQueue;\n\n\tstruct Post {\n\t\tuint id;\n\t\tstring content;\n\t\tuint likes;\n\t\taddress payable author;\n\t\tuint rewards;\n\t}\n\n\tconstructor() public {\n\t\tname = \"Agora\";\n\t\tbid = 10 wei;\n\t\toffer = 20 wei;\n\t\tmarketMaker = msg.sender;\n\t\tmerchantPrice = 15 wei;\n\t\tnonce = 1;\n\t}\n\n\tevent PostCreated(uint id, string content, uint likes, address payable author);\n\n\tfunction createPost(string memory _content) public payable {\n\t\t// Require content to be longer than 0 bytes and shorter than 560 bytes\n\t\trequire(bytes(_content).length > 0 && bytes(_content).length < 560);\n\n\t\t// Increment num posts\n\t\tnumPosts ++;\n\n\t\t// Store post in mapping\n\t\tposts[numPosts] = Post(numPosts, _content, 0, msg.sender, 0);\n\n\t\t// Check if it's a quote\n\t\tnewQuote(_content);\n\n\t\t// Emit post\n\t\temit PostCreated(numPosts, _content, 0, msg.sender);\n\t}\n\n\tfunction random(uint max) internal returns (uint) {\n\t\t// Pseudo randomly generate number from 0 to max\n\n\t\t// Prevent modulo by zero error\n\t\tif (max == 0) {\n\t\t\tmax ++;\n\t\t}\n\n\t\tuint _random = uint(keccak256(abi.encodePacked(now, msg.sender, nonce)))%max;\n\t\tnonce ++;\n\t\treturn _random;\n\t}\n\n\tevent FailedTxn(uint newQuote, uint bid, uint offer, string remarks);\n\tevent SuccessfulTxn(uint last, uint bid, uint offer);\n\n\tfunction newQuote(string memory _content) public payable {\n\t\tstrings.slice memory slice = _content.toSlice();\n\t\tif (slice.startsWith(\"BID:\".toSlice())) {\n\n\t\t\t// All bids should increment bidSize\n\t\t\tbidSize ++;\n\t\t\t\n\t\t\t// Use imported strings library to get the x value out of \"BID:x\"\n\t\t\tslice.split(\":\".toSlice()); \n\t\t\tstring memory order = slice.toString();\n\t\t\t\n\t\t\t// Convert string to uint so we can compare it to market bid\n\t\t\tuint newBid = stringToUint(order);\n\n\t\t\t// Convert bid to wei denomination by default\n\t\t\tnewBid = newBid * 1 wei;\n\n\t\t\t// All bids are capped by current market offer\n\t\t\tif (newBid >= offer) {\n\t\t\t\tnewBid = offer;\n\t\t\t}\n\t\t\t\n\t\t\t// Valid bid has to be higher than current market bid\n\t\t\tif (newBid >= bid) {\n\t\t\t\t\n\t\t\t\t// Generate random number\n\t\t\t\tuint rnd = random(offer - newBid);\n\n\t\t\t\t// Closer the bid is to the offer, higher chance of transaction taking place\n\t\t\t\tif (rnd > (offer - bid) / 2) {\n\t\t\t\t\temit FailedTxn(newBid, bid, offer, \"Bid was not filled by market maker. Try bidding higher.\");\n\t\t\t\t\treturn;\n\t\t\t\t}\n\n\t\t\t\t// Transfer money to current market maker\n\t\t\t\trequire(msg.value >= newBid, \"msg.value must be equal to newBid or greater\");\n\t\t\t\taddress(marketMaker).transfer(msg.value);\n\n\n\t\t\t\t// New market maker sets his own bid and offer spread\n\t\t\t\t// Spread is generated by random function, capped to between 2-10 wei\n\t\t\t\tmarketMaker = msg.sender;\n\t\t\t\tuint spread = random(8) + 2;\n\t\t\t\tbid = newBid - spread / 2;\n\t\t\t\toffer = newBid + spread / 2;\n\t\t\t\temit SuccessfulTxn(newBid, bid, offer);\n\t\t\t}\n\n\t\t\t// Failed bid since < current market bid\n\t\t\telse {\n\t\t\t\temit FailedTxn(newBid, bid, offer, \"Bid is below current market bid\");\n\t\t\t}\n\t\t}\n\n\t\telse if (slice.startsWith(\"OFFER:\".toSlice())) {\n\t\t\t// All offers should increment offer size\n\t\t\tofferSize ++;\n\n\t\t\t// Use imported strings library to get the x value out of \"OFFER:x\"\n\t\t\tslice.split(\":\".toSlice()); \n\t\t\tstring memory order = slice.toString();\n\t\t\t\n\t\t\t// Convert string to uint so we can compare it to market bid\n\t\t\tuint newOffer = stringToUint(order);\n\n\t\t\t// Convert offer to wei denomination by default\n\t\t\tnewOffer = newOffer * 1 wei;\n\n\t\t\t// All offers must be greater than current market bid\n\t\t\tif (newOffer >= bid) {\n\t\t\t\tnewOffer = bid;\n\t\t\t}\n\t\t\t\n\t\t\t// Valid offer has to be lower than current market offer\n\t\t\tif (newOffer <= offer) {\n\t\t\t\t\n\t\t\t\t// Generate random number\n\t\t\t\tuint rnd = random(newOffer - bid);\n\n\t\t\t\t// Closer the new offer is to the bid, higher chance of transaction taking place\n\t\t\t\tif (rnd > (offer - bid) / 2) {\n\t\t\t\t\temit FailedTxn(newOffer, bid, offer, \"Offer was not filled by market maker. Try offering lower.\");\n\t\t\t\t\treturn;\n\t\t\t\t}\n\n\t\t\t\t// Add to offer queue\n\t\t\t\tofferQueue[msg.sender] = newOffer;\n\t\t\t}\n\n\t\t\t// Failed offer since > current market offer\n\t\t\telse {\n\t\t\t\temit FailedTxn(newOffer, bid, offer, \"Offer is above current market offer\");\n\t\t\t}\n\t\t}\n\t}\n\n\tfunction clearOffer(address payable seller) public payable {\n\t\t// Get the offer in the queue\n\t\tuint newOffer = offerQueue[seller];\n\n\t\t// Check that market maker is paying the required amount\n\t\trequire(msg.value >= newOffer, \"msg.value must be equal to newOffer or greater\");\n\n\t\t// Transfer eth from market maker to seller\n\t\taddress(seller).transfer(msg.value);\n\n\t\t// Set new market maker\n\t\tmarketMaker = seller;\n\n\t\t// Clear the queue\n\t\tofferQueue[seller] = 0;\n\n\t\t// Set new bid/offer spread\n\t\t// Spread is generated by random function, capped to between 2-10 wei\n\t\tuint spread = random(8) + 2;\n\t\tbid = newOffer - spread / 2;\n\t\toffer = newOffer + spread / 2;\n\n\t\t// Emit the successful txn event\n\t\temit SuccessfulTxn(newOffer, bid, offer);\n\n\t\n\n\t}\n\n\t// pure function won't even read the storage state\n\tfunction stringToUint(string memory s) internal pure returns (uint result) {\n\t\tbytes memory b = bytes(s);\n\t\tuint i;\n\t\tresult = 0;\n\t\tfor (i = 0; i < b.length; i++) {\n\t\t\tuint c = uint(uint8(b[i]));\n\t\t\tif (c >= 48 && c <= 57) {\n\t\t\t\tresult = result * 10 + (c - 48);\n\t\t\t}\n\t\t}\n\n\t\treturn result;\n\t}\n\n\tevent LikePost(uint id, uint numLikes);\n\n\tfunction likePost(uint _id) public {\n\t\t// Require id to be greater than 0 and smaller than num posts\n\t\trequire(_id > 0 && _id <= numPosts);\n\n\t\t// Increment the number of likes\n\t\tposts[_id].likes ++;\n\n\t\temit LikePost(_id, posts[_id].likes);\n\t}\n\n\tfunction rewardPost(uint _id) public payable {\n\t\t// Require id to be greater than 0 and smaller than num posts\n\t\trequire(_id > 0 && _id <= numPosts);\n\n\t\t// Require sufficient balance\n\n\t\t// Get post\n\t\tPost memory _post = posts[_id];\n\n\t\t// Get author of post\n\t\taddress payable _author = _post.author;\n\n\t\t// Pay author of post\n\t\taddress(_author).transfer(msg.value);\n\n\t\t// Increment post reward\n\t\t_post.rewards += msg.value;\n\n\t\t// Update the post\n\t\tposts[_id] = _post;\n\t}\n\n\tfunction rePost(uint _id) public {\n\t\t// Require id to be greater than 0 and smaller than num posts\n\t\trequire(_id > 0 && _id <= numPosts);\n\n\t\t// Get content of post\n\t\tstring memory _content = posts[_id].content;\n\n\t\t// Repost same content but with current user\n\t\tcreatePost(_content);\n\t}\n}",
  "sourcePath": "/Users/aidenchia/Desktop/dapp/src/contracts/SocialNetwork.sol",
  "compiler": {
    "name": "solc",
    "version": "0.5.16+commit.9c3226ce.Emscripten.clang"
  },
  "schemaVersion": "3.0.23",
  "updatedAt": "2020-04-13T19:27:12.164Z",
  "networkType": "ethereum",
  "devdoc": {
    "methods": {}
  },
  "userdoc": {
    "methods": {}
  }
}