{
  "contractName": "SocialNetwork",
  "abi": [
    {
      "inputs": [],
      "payable": false,
      "stateMutability": "nonpayable",
      "type": "constructor"
    },
    {
      "anonymous": false,
      "inputs": [
        {
          "indexed": false,
          "internalType": "uint256",
          "name": "_newBid",
          "type": "uint256"
        },
        {
          "indexed": false,
          "internalType": "uint256",
          "name": "bid",
          "type": "uint256"
        }
      ],
      "name": "FailedBid",
      "type": "event"
    },
    {
      "constant": true,
      "inputs": [
        {
          "internalType": "address",
          "name": "",
          "type": "address"
        }
      ],
      "name": "balances",
      "outputs": [
        {
          "internalType": "uint256",
          "name": "",
          "type": "uint256"
        }
      ],
      "payable": false,
      "stateMutability": "view",
      "type": "function"
    },
    {
      "constant": true,
      "inputs": [],
      "name": "bid",
      "outputs": [
        {
          "internalType": "uint256",
          "name": "",
          "type": "uint256"
        }
      ],
      "payable": false,
      "stateMutability": "view",
      "type": "function"
    },
    {
      "constant": true,
      "inputs": [],
      "name": "bidSize",
      "outputs": [
        {
          "internalType": "uint256",
          "name": "",
          "type": "uint256"
        }
      ],
      "payable": false,
      "stateMutability": "view",
      "type": "function"
    },
    {
      "constant": true,
      "inputs": [
        {
          "internalType": "address",
          "name": "",
          "type": "address"
        }
      ],
      "name": "inventories",
      "outputs": [
        {
          "internalType": "uint256",
          "name": "",
          "type": "uint256"
        }
      ],
      "payable": false,
      "stateMutability": "view",
      "type": "function"
    },
    {
      "constant": true,
      "inputs": [],
      "name": "marketMaker",
      "outputs": [
        {
          "internalType": "address payable",
          "name": "",
          "type": "address"
        }
      ],
      "payable": false,
      "stateMutability": "view",
      "type": "function"
    },
    {
      "constant": true,
      "inputs": [],
      "name": "merchantPrice",
      "outputs": [
        {
          "internalType": "uint256",
          "name": "",
          "type": "uint256"
        }
      ],
      "payable": false,
      "stateMutability": "view",
      "type": "function"
    },
    {
      "constant": true,
      "inputs": [],
      "name": "name",
      "outputs": [
        {
          "internalType": "string",
          "name": "",
          "type": "string"
        }
      ],
      "payable": false,
      "stateMutability": "view",
      "type": "function"
    },
    {
      "constant": true,
      "inputs": [],
      "name": "nonce",
      "outputs": [
        {
          "internalType": "uint256",
          "name": "",
          "type": "uint256"
        }
      ],
      "payable": false,
      "stateMutability": "view",
      "type": "function"
    },
    {
      "constant": true,
      "inputs": [],
      "name": "numPosts",
      "outputs": [
        {
          "internalType": "uint256",
          "name": "",
          "type": "uint256"
        }
      ],
      "payable": false,
      "stateMutability": "view",
      "type": "function"
    },
    {
      "constant": true,
      "inputs": [],
      "name": "offer",
      "outputs": [
        {
          "internalType": "uint256",
          "name": "",
          "type": "uint256"
        }
      ],
      "payable": false,
      "stateMutability": "view",
      "type": "function"
    },
    {
      "constant": true,
      "inputs": [],
      "name": "offerSize",
      "outputs": [
        {
          "internalType": "uint256",
          "name": "",
          "type": "uint256"
        }
      ],
      "payable": false,
      "stateMutability": "view",
      "type": "function"
    },
    {
      "constant": true,
      "inputs": [
        {
          "internalType": "uint256",
          "name": "",
          "type": "uint256"
        }
      ],
      "name": "posts",
      "outputs": [
        {
          "internalType": "uint256",
          "name": "id",
          "type": "uint256"
        },
        {
          "internalType": "string",
          "name": "content",
          "type": "string"
        },
        {
          "internalType": "uint256",
          "name": "likes",
          "type": "uint256"
        },
        {
          "internalType": "address payable",
          "name": "author",
          "type": "address"
        },
        {
          "internalType": "uint256",
          "name": "rewards",
          "type": "uint256"
        }
      ],
      "payable": false,
      "stateMutability": "view",
      "type": "function"
    },
    {
      "constant": false,
      "inputs": [],
      "name": "buyFromMerchant",
      "outputs": [],
      "payable": false,
      "stateMutability": "nonpayable",
      "type": "function"
    },
    {
      "constant": false,
      "inputs": [],
      "name": "workForDrachma",
      "outputs": [],
      "payable": false,
      "stateMutability": "nonpayable",
      "type": "function"
    },
    {
      "constant": false,
      "inputs": [
        {
          "internalType": "address",
          "name": "_from",
          "type": "address"
        },
        {
          "internalType": "address",
          "name": "_to",
          "type": "address"
        },
        {
          "internalType": "uint256",
          "name": "_amount",
          "type": "uint256"
        }
      ],
      "name": "transferDrachma",
      "outputs": [],
      "payable": false,
      "stateMutability": "nonpayable",
      "type": "function"
    },
    {
      "constant": false,
      "inputs": [
        {
          "internalType": "string",
          "name": "_content",
          "type": "string"
        }
      ],
      "name": "createPost",
      "outputs": [],
      "payable": false,
      "stateMutability": "nonpayable",
      "type": "function"
    },
    {
      "constant": false,
      "inputs": [
        {
          "internalType": "string",
          "name": "_content",
          "type": "string"
        }
      ],
      "name": "newQuote",
      "outputs": [],
      "payable": false,
      "stateMutability": "nonpayable",
      "type": "function"
    },
    {
      "constant": false,
      "inputs": [
        {
          "internalType": "uint256",
          "name": "_id",
          "type": "uint256"
        }
      ],
      "name": "likePost",
      "outputs": [],
      "payable": false,
      "stateMutability": "nonpayable",
      "type": "function"
    },
    {
      "constant": false,
      "inputs": [
        {
          "internalType": "uint256",
          "name": "_id",
          "type": "uint256"
        }
      ],
      "name": "rewardPost",
      "outputs": [],
      "payable": true,
      "stateMutability": "payable",
      "type": "function"
    },
    {
      "constant": false,
      "inputs": [
        {
          "internalType": "uint256",
          "name": "_id",
          "type": "uint256"
        }
      ],
      "name": "rePost",
      "outputs": [],
      "payable": false,
      "stateMutability": "nonpayable",
      "type": "function"
    }
  ],
  "bytecode": "0x60806040523480156200001157600080fd5b506040518060400160405280600581526020017f41676f7261000000000000000000000000000000000000000000000000000000815250600090805190602001906200005f92919062000272565b50600a600281905550601460048190555033600860006101000a81548173ffffffffffffffffffffffffffffffffffffffff021916908373ffffffffffffffffffffffffffffffffffffffff160217905550600f6006819055506001600781905550620000d1620000e760201b60201c565b620000e16200013760201b60201c565b62000321565b6032600a60003373ffffffffffffffffffffffffffffffffffffffff1673ffffffffffffffffffffffffffffffffffffffff16815260200190815260200160002060008282540192505081905550565b600654600a60003373ffffffffffffffffffffffffffffffffffffffff1673ffffffffffffffffffffffffffffffffffffffff168152602001908152602001600020541015620001d3576040517f08c379a000000000000000000000000000000000000000000000000000000000815260040180806020018281038252603081526020018062001e306030913960400191505060405180910390fd5b600654600a60003373ffffffffffffffffffffffffffffffffffffffff1673ffffffffffffffffffffffffffffffffffffffff168152602001908152602001600020600082825403925050819055506001600b60003373ffffffffffffffffffffffffffffffffffffffff1673ffffffffffffffffffffffffffffffffffffffff16815260200190815260200160002060008282540192505081905550565b828054600181600116156101000203166002900490600052602060002090601f016020900481019282601f10620002b557805160ff1916838001178555620002e6565b82800160010185558215620002e6579182015b82811115620002e5578251825591602001919060010190620002c8565b5b509050620002f59190620002f9565b5090565b6200031e91905b808211156200031a57600081600090555060010162000300565b5090565b90565b611aff80620003316000396000f3fe60806040526004361061011f5760003560e01c80637d98fa11116100a0578063c471b73711610064578063c471b73714610678578063c682fd60146106a6578063c7303c61146106bd578063e9ded3ec14610785578063ec7331e9146107b05761011f565b80637d98fa111461054157806386863c521461057c578063affed0e0146105f7578063b03b23c214610622578063c028df061461064d5761011f565b80632b70c8fc116100e75780632b70c8fc1461039757806353e41a54146103c2578063698aa65c1461048a578063725009d3146104ef578063775092521461052a5761011f565b806306fdde03146101245780630b1e7f83146101b45780631998aeef146102b05780631f21f9af146102db57806327e235e314610332575b600080fd5b34801561013057600080fd5b506101396107db565b6040518080602001828103825283818151815260200191508051906020019080838360005b8381101561017957808201518184015260208101905061015e565b50505050905090810190601f1680156101a65780820380516001836020036101000a031916815260200191505b509250505060405180910390f35b3480156101c057600080fd5b506101ed600480360360208110156101d757600080fd5b8101908080359060200190929190505050610879565b60405180868152602001806020018581526020018473ffffffffffffffffffffffffffffffffffffffff1673ffffffffffffffffffffffffffffffffffffffff168152602001838152602001828103825286818151815260200191508051906020019080838360005b83811015610271578082015181840152602081019050610256565b50505050905090810190601f16801561029e5780820380516001836020036101000a031916815260200191505b50965050505050505060405180910390f35b3480156102bc57600080fd5b506102c5610967565b6040518082815260200191505060405180910390f35b3480156102e757600080fd5b506102f061096d565b604051808273ffffffffffffffffffffffffffffffffffffffff1673ffffffffffffffffffffffffffffffffffffffff16815260200191505060405180910390f35b34801561033e57600080fd5b506103816004803603602081101561035557600080fd5b81019080803573ffffffffffffffffffffffffffffffffffffffff169060200190929190505050610993565b6040518082815260200191505060405180910390f35b3480156103a357600080fd5b506103ac6109ab565b6040518082815260200191505060405180910390f35b3480156103ce57600080fd5b50610488600480360360208110156103e557600080fd5b810190808035906020019064010000000081111561040257600080fd5b82018360208201111561041457600080fd5b8035906020019184600183028401116401000000008311171561043657600080fd5b91908080601f016020809104026020016040519081016040528093929190818152602001838380828437600081840152601f19601f8201169050808301925050505050505091929192905050506109b1565b005b34801561049657600080fd5b506104d9600480360360208110156104ad57600080fd5b81019080803573ffffffffffffffffffffffffffffffffffffffff169060200190929190505050610e5a565b6040518082815260200191505060405180910390f35b3480156104fb57600080fd5b506105286004803603602081101561051257600080fd5b8101908080359060200190929190505050610e72565b005b34801561053657600080fd5b5061053f610eb6565b005b34801561054d57600080fd5b5061057a6004803603602081101561056457600080fd5b8101908080359060200190929190505050610f06565b005b34801561058857600080fd5b506105f56004803603606081101561059f57600080fd5b81019080803573ffffffffffffffffffffffffffffffffffffffff169060200190929190803573ffffffffffffffffffffffffffffffffffffffff16906020019092919080359060200190929190505050610fe1565b005b34801561060357600080fd5b5061060c6110cc565b6040518082815260200191505060405180910390f35b34801561062e57600080fd5b506106376110d2565b6040518082815260200191505060405180910390f35b34801561065957600080fd5b506106626110d8565b6040518082815260200191505060405180910390f35b6106a46004803603602081101561068e57600080fd5b81019080803590602001909291905050506110de565b005b3480156106b257600080fd5b506106bb611358565b005b3480156106c957600080fd5b50610783600480360360208110156106e057600080fd5b81019080803590602001906401000000008111156106fd57600080fd5b82018360208201111561070f57600080fd5b8035906020019184600183028401116401000000008311171561073157600080fd5b91908080601f016020809104026020016040519081016040528093929190818152602001838380828437600081840152601f19601f820116905080830192505050505050509192919290505050611491565b005b34801561079157600080fd5b5061079a6115a6565b6040518082815260200191505060405180910390f35b3480156107bc57600080fd5b506107c56115ac565b6040518082815260200191505060405180910390f35b60008054600181600116156101000203166002900480601f0160208091040260200160405190810160405280929190818152602001828054600181600116156101000203166002900480156108715780601f1061084657610100808354040283529160200191610871565b820191906000526020600020905b81548152906001019060200180831161085457829003601f168201915b505050505081565b6009602052806000526040600020600091509050806000015490806001018054600181600116156101000203166002900480601f01602080910402602001604051908101604052809291908181526020018280546001816001161561010002031660029004801561092b5780601f106109005761010080835404028352916020019161092b565b820191906000526020600020905b81548152906001019060200180831161090e57829003601f168201915b5050505050908060020154908060030160009054906101000a900473ffffffffffffffffffffffffffffffffffffffff16908060040154905085565b60025481565b600860009054906101000a900473ffffffffffffffffffffffffffffffffffffffff1681565b600a6020528060005260406000206000915090505481565b60035481565b6109b9611996565b6109c2826115b2565b9050610a14610a056040518060400160405280600481526020017f4249443a000000000000000000000000000000000000000000000000000000008152506115b2565b826115e090919063ffffffff16565b15610d4b57610a21611996565b610a71610a626040518060400160405280600181526020017f3a000000000000000000000000000000000000000000000000000000000000008152506115b2565b8361163990919063ffffffff16565b90506060610a7e83611653565b90506000610a8b826116b5565b9050600254600a60003373ffffffffffffffffffffffffffffffffffffffff1673ffffffffffffffffffffffffffffffffffffffff168152602001908152602001600020541015610b44576040517f08c379a00000000000000000000000000000000000000000000000000000000081526004018080602001828103825260208152602001807f496e73756666696369656e742062616c616e636520746f206d616b652062696481525060200191505060405180910390fd5b6003600081548092919060010191905055506004548110610b655760045490505b6002548110610d4357600081600454039050600280546004540381610b8657fe5b04610b908261172b565b10610be0577f36905dea8a865bfc09610163eadba31733d735b70aeb0db38c9d21287acd251782600254604051808381526020018281526020019250505060405180910390a15050505050610e57565b610c0d33600860009054906101000a900473ffffffffffffffffffffffffffffffffffffffff1684610fe1565b6001600b60003373ffffffffffffffffffffffffffffffffffffffff1673ffffffffffffffffffffffffffffffffffffffff168152602001908152602001600020600082825401925050819055506001600b6000600860009054906101000a900473ffffffffffffffffffffffffffffffffffffffff1673ffffffffffffffffffffffffffffffffffffffff1673ffffffffffffffffffffffffffffffffffffffff1681526020019081526020016000206000828254039250508190555033600860006101000a81548173ffffffffffffffffffffffffffffffffffffffff021916908373ffffffffffffffffffffffffffffffffffffffff1602179055506000610d18600a61172b565b905060028181610d2457fe5b04830360028190555060028181610d3757fe5b04830160048190555050505b505050610e55565b610d9b610d8c6040518060400160405280600681526020017f4f464645523a00000000000000000000000000000000000000000000000000008152506115b2565b826115e090919063ffffffff16565b15610e4e57600560008154809291906001019190505550610dba611996565b610e0a610dfb6040518060400160405280600181526020017f3a000000000000000000000000000000000000000000000000000000000000008152506115b2565b8361163990919063ffffffff16565b90506060610e1783611653565b9050610e22816116b5565b6004819055506000610e33826116b5565b90506004548111610e4657806004819055505b505050610e54565b50610e57565b5b505b50565b600b6020528060005260406000206000915090505481565b600081118015610e8457506001548111155b610e8d57600080fd5b600960008281526020019081526020016000206002016000815480929190600101919050555050565b6032600a60003373ffffffffffffffffffffffffffffffffffffffff1673ffffffffffffffffffffffffffffffffffffffff16815260200190815260200160002060008282540192505081905550565b600081118015610f1857506001548111155b610f2157600080fd5b6060600960008381526020019081526020016000206001018054600181600116156101000203166002900480601f016020809104026020016040519081016040528092919081815260200182805460018160011615610100020316600290048015610fcd5780601f10610fa257610100808354040283529160200191610fcd565b820191906000526020600020905b815481529060010190602001808311610fb057829003601f168201915b50505050509050610fdd81611491565b5050565b600a60008473ffffffffffffffffffffffffffffffffffffffff1673ffffffffffffffffffffffffffffffffffffffff1681526020019081526020016000205481111561102d57600080fd5b80600a60008573ffffffffffffffffffffffffffffffffffffffff1673ffffffffffffffffffffffffffffffffffffffff1681526020019081526020016000206000828254039250508190555080600a60008473ffffffffffffffffffffffffffffffffffffffff1673ffffffffffffffffffffffffffffffffffffffff16815260200190815260200160002060008282540192505081905550505050565b60075481565b60065481565b60045481565b6000811180156110f057506001548111155b6110f957600080fd5b343373ffffffffffffffffffffffffffffffffffffffff16311161111c57600080fd5b6111246119b0565b600960008381526020019081526020016000206040518060a001604052908160008201548152602001600182018054600181600116156101000203166002900480601f0160208091040260200160405190810160405280929190818152602001828054600181600116156101000203166002900480156111e55780601f106111ba576101008083540402835291602001916111e5565b820191906000526020600020905b8154815290600101906020018083116111c857829003601f168201915b50505050508152602001600282015481526020016003820160009054906101000a900473ffffffffffffffffffffffffffffffffffffffff1673ffffffffffffffffffffffffffffffffffffffff1673ffffffffffffffffffffffffffffffffffffffff16815260200160048201548152505090506000816060015190508073ffffffffffffffffffffffffffffffffffffffff166108fc349081150290604051600060405180830381858888f193505050501580156112a9573d6000803e3d6000fd5b503482608001818151019150818152505081600960008581526020019081526020016000206000820151816000015560208201518160010190805190602001906112f49291906119f5565b506040820151816002015560608201518160030160006101000a81548173ffffffffffffffffffffffffffffffffffffffff021916908373ffffffffffffffffffffffffffffffffffffffff16021790555060808201518160040155905050505050565b600654600a60003373ffffffffffffffffffffffffffffffffffffffff1673ffffffffffffffffffffffffffffffffffffffff1681526020019081526020016000205410156113f2576040517f08c379a0000000000000000000000000000000000000000000000000000000008152600401808060200182810382526030815260200180611a9b6030913960400191505060405180910390fd5b600654600a60003373ffffffffffffffffffffffffffffffffffffffff1673ffffffffffffffffffffffffffffffffffffffff168152602001908152602001600020600082825403925050819055506001600b60003373ffffffffffffffffffffffffffffffffffffffff1673ffffffffffffffffffffffffffffffffffffffff16815260200190815260200160002060008282540192505081905550565b600081511180156114a457506102308151105b6114ad57600080fd5b6001600081548092919060010191905055506040518060a001604052806001548152602001828152602001600081526020013373ffffffffffffffffffffffffffffffffffffffff168152602001600081525060096000600154815260200190815260200160002060008201518160000155602082015181600101908051906020019061153b9291906119f5565b506040820151816002015560608201518160030160006101000a81548173ffffffffffffffffffffffffffffffffffffffff021916908373ffffffffffffffffffffffffffffffffffffffff160217905550608082015181600401559050506115a3816109b1565b50565b60055481565b60015481565b6115ba611996565b600060208301905060405180604001604052808451815260200182815250915050919050565b60008160000151836000015110156115fb5760009050611633565b8160200151836020015114156116145760019050611633565b6000825160208501516020850151828120838320149350505050809150505b92915050565b611641611996565b61164c8383836117d4565b5092915050565b60608082600001516040519080825280601f01601f19166020018201604052801561168d5781602001600182028038833980820191505090505b50905060006020820190506116ab8185602001518660000151611872565b8192505050919050565b600060608290506000809250600090505b81518110156117215760008282815181106116dd57fe5b602001015160f81c60f81b60f81c60ff16905060308110158015611702575060398111155b156117135760308103600a85020193505b5080806001019150506116c6565b8292505050919050565b60008082141561173e5781806001019250505b60006001834233600754604051602001808481526020018373ffffffffffffffffffffffffffffffffffffffff1673ffffffffffffffffffffffffffffffffffffffff1660601b815260140182815260200193505050506040516020818303038152906040528051906020012060001c816117b557fe5b0601905060076000815480929190600101919050555080915050919050565b6117dc611996565b60006117fa85600001518660200151866000015187602001516118bb565b9050846020015183602001818152505084602001518103836000018181525050846000015185602001510181141561183c576000856000018181525050611867565b8360000151836000015101856000018181510391508181525050836000015181018560200181815250505b829150509392505050565b5b602081106118965781518352602083019250602082019150602081039050611873565b60006001826020036101000a0390508019835116818551168181178652505050505050565b6000808490506000868511611986576020851161194057600060018660200360080260020a031960001b905060008186511690506000878a8a0103905060008386511690505b8281146119325781861061191f578a8a01965050505050505061198e565b8580600101965050838651169050611901565b85965050505050505061198e565b60008585209050600091505b8588038211611984576000868420905080821415611970578394505050505061198e565b60018401935050818060010192505061194c565b505b868601925050505b949350505050565b604051806040016040528060008152602001600081525090565b6040518060a00160405280600081526020016060815260200160008152602001600073ffffffffffffffffffffffffffffffffffffffff168152602001600081525090565b828054600181600116156101000203166002900490600052602060002090601f016020900481019282601f10611a3657805160ff1916838001178555611a64565b82800160010185558215611a64579182015b82811115611a63578251825591602001919060010190611a48565b5b509050611a719190611a75565b5090565b611a9791905b80821115611a93576000816000905550600101611a7b565b5090565b9056fe496e73756666696369656e742062616c616e636520746f20627579206469726563742066726f6d206d65726368616e74a265627a7a72315820f25c5dfaeccd3a58daf833545fe814cc55df6fac5581c7086d7cbdce0ec8033f64736f6c63430005100032496e73756666696369656e742062616c616e636520746f20627579206469726563742066726f6d206d65726368616e74",
  "source": "pragma solidity ^0.5.0;\n\n/* To run a demo on truffle console:\n\tSocialNetwork.deployed().then(function(a) {app=a})\n\tweb3.eth.getAccounts()\n\tapp.transferDrachma().then(function(i) {i=i})\n\tapp.buyFromMerchant({from: }).then(function(i) {i=i})\n\tapp.balances().then(function(b) {balance=b})\n\tbalance.toNumber()\n\tapp.inventories().then(function(i) {inv=i})\n\tinv.toNumber()\n\tapp.marketMaker().then(function(o) {mm=o})\n\tmm\n\tweb3.eth.getAccounts()\n\tweb3.eth.getBalance()\n\tapp.createPost(\"BID:20\", {from: })\n\tapp.bid().then(function(b) {bid=b})\n\tbid.toNumber()\n\tapp.bidSize().then(function(b) {bidSize=b})\n\tbidSize.toNumber()\n\tapp.createPost(\"OFFER:25\")\n\tapp.offer().then(function(o) {offer=o})\n\toffer.toNumber()\n\tapp.offerSize().then(function(o) {offerSize=o})\n\tofferSize.toNumber()\n\tapp.posts(1).then(function(p) {posts=p})\n\tposts[0].toNumber()\n\tposts[1]\n\tposts[2].toNumber()\n\tposts[3]\n\tposts[4].toNumber()\n\tapp.rewardPost(1, {value: 2})\n\tweb3.eth.getAccounts()\n\tapp.rePost(1)\n*/\n\nimport {strings} from \"strings.sol\";\n\ncontract SocialNetwork {\n\tusing strings for *;\n\n\tstring public name;\n\tuint public numPosts;\n\tuint public bid;\n\tuint public bidSize;\n\tuint public offer;\n\tuint public offerSize;\n\tuint public merchantPrice;\n\tuint public nonce;\n\taddress payable public marketMaker;\n\tmapping(uint => Post) public posts;\n\tmapping(address => uint) public balances;\n\tmapping(address => uint) public inventories;\n\n\tstruct Post {\n\t\tuint id;\n\t\tstring content;\n\t\tuint likes;\n\t\taddress payable author;\n\t\tuint rewards;\n\t}\n\n\tconstructor() public {\n\t\tname = \"Agora\";\n\t\tbid = 10;\n\t\toffer = 20;\n\t\tmarketMaker = msg.sender;\n\t\tmerchantPrice = 15;\n\t\tnonce = 1;\n\n\t\t// default market maker to start with some inventory and drachma\n\t\tworkForDrachma(); \n\t\tbuyFromMerchant();\n\t}\n\n\tfunction buyFromMerchant() public {\n\t\trequire(balances[msg.sender] >= merchantPrice, \"Insufficient balance to buy direct from merchant\");\n\t\tbalances[msg.sender] -= merchantPrice;\n\t\tinventories[msg.sender] += 1;\n\t}\n\n\n\tfunction workForDrachma() public {\n\t\t// Increases balance of address\n\t\tbalances[msg.sender] += 50;\n\t}\n\n\tfunction transferDrachma(address _from, address _to, uint _amount) public {\n\t\t// Require sufficient drachma before trf can take place\n\t\trequire(_amount <= balances[_from]);\n\n\t\tbalances[_from] -= _amount;\n\t\tbalances[_to] += _amount;\n\t}\n\n\tfunction createPost(string memory _content) public {\n\t\t// Require content to be longer than 0 bytes and shorter than 560 bytes\n\t\trequire(bytes(_content).length > 0 && bytes(_content).length < 560);\n\n\t\t// Increment num posts\n\t\tnumPosts ++;\n\n\t\t// Store post in mapping\n\t\tposts[numPosts] = Post(numPosts, _content, 0, msg.sender, 0);\n\n\t\t// Check if it's a quote\n\t\tnewQuote(_content);\n\t}\n\n\tfunction random(uint max) internal returns (uint) {\n\t\t// Pseudo randomly generate number from 1 to max\n\n\t\t// Prevent modulo by zero error\n\t\tif (max == 0) {\n\t\t\tmax ++;\n\t\t}\n\n\t\tuint random = uint(keccak256(abi.encodePacked(now, msg.sender, nonce)))%max + 1;\n\t\tnonce ++;\n\t\treturn random;\n\t}\n\n\tevent FailedBid(uint _newBid, uint bid);\n\n\tfunction newQuote(string memory _content) public {\n\t\tstrings.slice memory slice = _content.toSlice();\n\t\tif (slice.startsWith(\"BID:\".toSlice())) {\n\t\t\t\n\t\t\t// Use imported strings library to help with string util functions\n\t\t\tstrings.slice memory _ = slice.split(\":\".toSlice());\n\t\t\tstring memory order = slice.toString();\n\t\t\t\n\t\t\t// Convert string to uint so we can compare it to market bid\n\t\t\tuint newBid = stringToUint(order);\n\n\t\t\t// Require address to have enough balance to make bid\n\t\t\trequire(balances[msg.sender] >= bid, \"Insufficient balance to make bid\");\n\n\t\t\t// All bids should increment bidSize\n\t\t\tbidSize ++;\n\n\t\t\t// No rational person will bid more than what the current market offer is\n\t\t\tif (newBid >= offer) {\n\t\t\t\tnewBid = offer;\n\t\t\t}\n\t\t\t\n\t\t\tif (newBid >= bid) {\n\t\t\t\t\n\t\t\t\tuint x = offer - newBid;\n\n\t\t\t\t// Closer the bid is to the offer, higher chance of transaction taking place\n\t\t\t\tif (random(x) >= (offer - bid) / 2) {\n\t\t\t\t\temit FailedBid(newBid, bid);\n\t\t\t\t\treturn;\n\t\t\t\t}\n\n\t\t\t\t// Transfer money to current market maker\n\t\t\t\ttransferDrachma(msg.sender, marketMaker, newBid);\n\n\t\t\t\t// Update inventory\n\t\t\t\tinventories[msg.sender] += 1;\n\t\t\t\tinventories[marketMaker] -= 1;\n\n\t\t\t\t// New market maker sets his own bid and offer spread according to PRNG function\n\t\t\t\tmarketMaker = msg.sender;\n\t\t\t\tuint spread = random(10);\n\t\t\t\tbid = newBid - spread / 2;\n\t\t\t\toffer = newBid + spread / 2;\n\t\t\t}\n\t\t}\n\n\t\telse if (slice.startsWith(\"OFFER:\".toSlice())) {\n\t\t\t// All offers should increment offerSize\n\t\t\tofferSize ++;\n\n\t\t\t// Use imported strings library to help with string util functons\n\t\t\tstrings.slice memory _ = slice.split(\":\".toSlice());\n\t\t\tstring memory order = slice.toString();\n\n\t\t\t// Convert string to uint\n\t\t\toffer = stringToUint(order);\n\n\t\t\t// Market offer should always reflect currently best(lowest) offer\n\t\t\tuint newOffer = stringToUint(order);\n\t\t\tif (newOffer <= offer) {\n\t\t\t\toffer = newOffer;\n\t\t\t}\n\t\t}\n\n\t\telse {\n\t\t\treturn;\n\t\t}\n\t}\n\n\tfunction stringToUint(string memory s) internal returns (uint result) {\n\t\tbytes memory b = bytes(s);\n\t\tuint i;\n\t\tresult = 0;\n\t\tfor (i = 0; i < b.length; i++) {\n\t\t\tuint c = uint(uint8(b[i]));\n\t\t\tif (c >= 48 && c <= 57) {\n\t\t\t\tresult = result * 10 + (c - 48);\n\t\t\t}\n\t\t}\n\n\t\treturn result;\n\t}\n\n\tfunction likePost(uint _id) public {\n\t\t// Require id to be greater than 0 and smaller than num posts\n\t\trequire(_id > 0 && _id <= numPosts);\n\n\t\t// Increment the number of likes\n\t\tposts[_id].likes ++;\n\t}\n\n\tfunction rewardPost(uint _id) public payable {\n\t\t// Require id to be greater than 0 and smaller than num posts\n\t\trequire(_id > 0 && _id <= numPosts);\n\n\t\t// Require sufficient balance\n\t\trequire(address(msg.sender).balance > msg.value);\n\n\t\t// Get post\n\t\tPost memory _post = posts[_id];\n\n\t\t// Get author of post\n\t\taddress payable _author = _post.author;\n\n\t\t// Pay author of post\n\t\taddress(_author).transfer(msg.value);\n\n\t\t// Increment post reward\n\t\t_post.rewards += msg.value;\n\n\t\t// Update the post\n\t\tposts[_id] = _post;\n\t}\n\n\tfunction rePost(uint _id) public {\n\t\t// Require id to be greater than 0 and smaller than num posts\n\t\trequire(_id > 0 && _id <= numPosts);\n\n\t\t// Get content of post\n\t\tstring memory _content = posts[_id].content;\n\n\t\t// Repost same content but with current user\n\t\tcreatePost(_content);\n\t}\n}",
  "sourcePath": "/Users/aidenchia/Desktop/dapp/contracts/SocialNetwork.sol",
  "compiler": {
    "name": "solc",
    "version": "0.5.16+commit.9c3226ce.Emscripten.clang"
  },
  "schemaVersion": "3.0.23",
  "updatedAt": "2020-04-10T10:31:16.661Z",
  "networkType": "ethereum",
  "devdoc": {
    "methods": {}
  },
  "userdoc": {
    "methods": {}
  }
}