{
  "contractName": "SocialNetwork",
  "abi": [
    {
      "inputs": [],
      "payable": false,
      "stateMutability": "nonpayable",
      "type": "constructor"
    },
    {
      "constant": true,
      "inputs": [
        {
          "internalType": "address",
          "name": "",
          "type": "address"
        }
      ],
      "name": "balances",
      "outputs": [
        {
          "internalType": "uint256",
          "name": "",
          "type": "uint256"
        }
      ],
      "payable": false,
      "stateMutability": "view",
      "type": "function"
    },
    {
      "constant": true,
      "inputs": [],
      "name": "bid",
      "outputs": [
        {
          "internalType": "uint256",
          "name": "",
          "type": "uint256"
        }
      ],
      "payable": false,
      "stateMutability": "view",
      "type": "function"
    },
    {
      "constant": true,
      "inputs": [],
      "name": "bidSize",
      "outputs": [
        {
          "internalType": "uint256",
          "name": "",
          "type": "uint256"
        }
      ],
      "payable": false,
      "stateMutability": "view",
      "type": "function"
    },
    {
      "constant": true,
      "inputs": [],
      "name": "name",
      "outputs": [
        {
          "internalType": "string",
          "name": "",
          "type": "string"
        }
      ],
      "payable": false,
      "stateMutability": "view",
      "type": "function"
    },
    {
      "constant": true,
      "inputs": [],
      "name": "numPosts",
      "outputs": [
        {
          "internalType": "uint256",
          "name": "",
          "type": "uint256"
        }
      ],
      "payable": false,
      "stateMutability": "view",
      "type": "function"
    },
    {
      "constant": true,
      "inputs": [],
      "name": "offer",
      "outputs": [
        {
          "internalType": "uint256",
          "name": "",
          "type": "uint256"
        }
      ],
      "payable": false,
      "stateMutability": "view",
      "type": "function"
    },
    {
      "constant": true,
      "inputs": [],
      "name": "offerSize",
      "outputs": [
        {
          "internalType": "uint256",
          "name": "",
          "type": "uint256"
        }
      ],
      "payable": false,
      "stateMutability": "view",
      "type": "function"
    },
    {
      "constant": true,
      "inputs": [],
      "name": "owner",
      "outputs": [
        {
          "internalType": "address payable",
          "name": "",
          "type": "address"
        }
      ],
      "payable": false,
      "stateMutability": "view",
      "type": "function"
    },
    {
      "constant": true,
      "inputs": [
        {
          "internalType": "uint256",
          "name": "",
          "type": "uint256"
        }
      ],
      "name": "posts",
      "outputs": [
        {
          "internalType": "uint256",
          "name": "id",
          "type": "uint256"
        },
        {
          "internalType": "string",
          "name": "content",
          "type": "string"
        },
        {
          "internalType": "uint256",
          "name": "likes",
          "type": "uint256"
        },
        {
          "internalType": "address payable",
          "name": "author",
          "type": "address"
        },
        {
          "internalType": "uint256",
          "name": "rewards",
          "type": "uint256"
        }
      ],
      "payable": false,
      "stateMutability": "view",
      "type": "function"
    },
    {
      "constant": false,
      "inputs": [],
      "name": "workForMoney",
      "outputs": [],
      "payable": false,
      "stateMutability": "nonpayable",
      "type": "function"
    },
    {
      "constant": false,
      "inputs": [
        {
          "internalType": "string",
          "name": "_content",
          "type": "string"
        }
      ],
      "name": "createPost",
      "outputs": [],
      "payable": false,
      "stateMutability": "nonpayable",
      "type": "function"
    },
    {
      "constant": false,
      "inputs": [
        {
          "internalType": "string",
          "name": "_content",
          "type": "string"
        }
      ],
      "name": "newQuote",
      "outputs": [],
      "payable": false,
      "stateMutability": "nonpayable",
      "type": "function"
    },
    {
      "constant": false,
      "inputs": [
        {
          "internalType": "uint256",
          "name": "_id",
          "type": "uint256"
        }
      ],
      "name": "likePost",
      "outputs": [],
      "payable": false,
      "stateMutability": "nonpayable",
      "type": "function"
    },
    {
      "constant": false,
      "inputs": [
        {
          "internalType": "uint256",
          "name": "_id",
          "type": "uint256"
        }
      ],
      "name": "rewardPost",
      "outputs": [],
      "payable": true,
      "stateMutability": "payable",
      "type": "function"
    },
    {
      "constant": false,
      "inputs": [
        {
          "internalType": "uint256",
          "name": "_id",
          "type": "uint256"
        }
      ],
      "name": "rePost",
      "outputs": [],
      "payable": false,
      "stateMutability": "nonpayable",
      "type": "function"
    }
  ],
  "bytecode": "0x60806040523480156200001157600080fd5b506040518060400160405280600581526020017f41676f7261000000000000000000000000000000000000000000000000000000815250600090805190602001906200005f929190620000b7565b506005600281905550600a60048190555033600660006101000a81548173ffffffffffffffffffffffffffffffffffffffff021916908373ffffffffffffffffffffffffffffffffffffffff16021790555062000166565b828054600181600116156101000203166002900490600052602060002090601f016020900481019282601f10620000fa57805160ff19168380011785556200012b565b828001600101855582156200012b579182015b828111156200012a5782518255916020019190600101906200010d565b5b5090506200013a91906200013e565b5090565b6200016391905b808211156200015f57600081600090555060010162000145565b5090565b90565b6113d580620001766000396000f3fe6080604052600436106100e85760003560e01c8063725009d31161008a578063c471b73711610059578063c471b7371461050b578063c7303c6114610539578063e9ded3ec14610601578063ec7331e91461062c576100e8565b8063725009d3146104135780637d98fa111461044e5780638da5cb5b14610489578063c028df06146104e0576100e8565b80631998aeef116100c65780631998aeef1461029057806327e235e3146102bb5780632b70c8fc1461032057806353e41a541461034b576100e8565b806306fdde03146100ed5780630b1e7f831461017d57806312b6ac7714610279575b600080fd5b3480156100f957600080fd5b50610102610657565b6040518080602001828103825283818151815260200191508051906020019080838360005b83811015610142578082015181840152602081019050610127565b50505050905090810190601f16801561016f5780820380516001836020036101000a031916815260200191505b509250505060405180910390f35b34801561018957600080fd5b506101b6600480360360208110156101a057600080fd5b81019080803590602001909291905050506106f5565b60405180868152602001806020018581526020018473ffffffffffffffffffffffffffffffffffffffff1673ffffffffffffffffffffffffffffffffffffffff168152602001838152602001828103825286818151815260200191508051906020019080838360005b8381101561023a57808201518184015260208101905061021f565b50505050905090810190601f1680156102675780820380516001836020036101000a031916815260200191505b50965050505050505060405180910390f35b34801561028557600080fd5b5061028e6107e3565b005b34801561029c57600080fd5b506102a5610833565b6040518082815260200191505060405180910390f35b3480156102c757600080fd5b5061030a600480360360208110156102de57600080fd5b81019080803573ffffffffffffffffffffffffffffffffffffffff169060200190929190505050610839565b6040518082815260200191505060405180910390f35b34801561032c57600080fd5b50610335610851565b6040518082815260200191505060405180910390f35b34801561035757600080fd5b506104116004803603602081101561036e57600080fd5b810190808035906020019064010000000081111561038b57600080fd5b82018360208201111561039d57600080fd5b803590602001918460018302840111640100000000831117156103bf57600080fd5b91908080601f016020809104026020016040519081016040528093929190818152602001838380828437600081840152601f19601f820116905080830192505050505050509192919290505050610857565b005b34801561041f57600080fd5b5061044c6004803603602081101561043657600080fd5b8101908080359060200190929190505050610a7b565b005b34801561045a57600080fd5b506104876004803603602081101561047157600080fd5b8101908080359060200190929190505050610abf565b005b34801561049557600080fd5b5061049e610b9a565b604051808273ffffffffffffffffffffffffffffffffffffffff1673ffffffffffffffffffffffffffffffffffffffff16815260200191505060405180910390f35b3480156104ec57600080fd5b506104f5610bc0565b6040518082815260200191505060405180910390f35b6105376004803603602081101561052157600080fd5b8101908080359060200190929190505050610bc6565b005b34801561054557600080fd5b506105ff6004803603602081101561055c57600080fd5b810190808035906020019064010000000081111561057957600080fd5b82018360208201111561058b57600080fd5b803590602001918460018302840111640100000000831117156105ad57600080fd5b91908080601f016020809104026020016040519081016040528093929190818152602001838380828437600081840152601f19601f820116905080830192505050505050509192919290505050610e40565b005b34801561060d57600080fd5b50610616610f55565b6040518082815260200191505060405180910390f35b34801561063857600080fd5b50610641610f5b565b6040518082815260200191505060405180910390f35b60008054600181600116156101000203166002900480601f0160208091040260200160405190810160405280929190818152602001828054600181600116156101000203166002900480156106ed5780601f106106c2576101008083540402835291602001916106ed565b820191906000526020600020905b8154815290600101906020018083116106d057829003601f168201915b505050505081565b6007602052806000526040600020600091509050806000015490806001018054600181600116156101000203166002900480601f0160208091040260200160405190810160405280929190818152602001828054600181600116156101000203166002900480156107a75780601f1061077c576101008083540402835291602001916107a7565b820191906000526020600020905b81548152906001019060200180831161078a57829003601f168201915b5050505050908060020154908060030160009054906101000a900473ffffffffffffffffffffffffffffffffffffffff16908060040154905085565b600a600860003373ffffffffffffffffffffffffffffffffffffffff1673ffffffffffffffffffffffffffffffffffffffff16815260200190815260200160002060008282540192505081905550565b60025481565b60086020528060005260406000206000915090505481565b60035481565b61085f61129c565b61086882610f61565b90506108ba6108ab6040518060400160405280600481526020017f4249443a00000000000000000000000000000000000000000000000000000000815250610f61565b82610f8f90919063ffffffff16565b1561096c576003600081548092919060010191905055506108d961129c565b61092961091a6040518060400160405280600181526020017f3a00000000000000000000000000000000000000000000000000000000000000815250610f61565b83610fe890919063ffffffff16565b9050606061093683611002565b9050600061094382611064565b905060025481106109645780600281905550600660009054906101000a9050505b505050610a76565b6109bc6109ad6040518060400160405280600681526020017f4f464645523a0000000000000000000000000000000000000000000000000000815250610f61565b82610f8f90919063ffffffff16565b15610a6f576005600081548092919060010191905055506109db61129c565b610a2b610a1c6040518060400160405280600181526020017f3a00000000000000000000000000000000000000000000000000000000000000815250610f61565b83610fe890919063ffffffff16565b90506060610a3883611002565b9050610a4381611064565b6004819055506000610a5482611064565b90506004548111610a6757806004819055505b505050610a75565b50610a78565b5b505b50565b600081118015610a8d57506001548111155b610a9657600080fd5b600760008281526020019081526020016000206002016000815480929190600101919050555050565b600081118015610ad157506001548111155b610ada57600080fd5b6060600760008381526020019081526020016000206001018054600181600116156101000203166002900480601f016020809104026020016040519081016040528092919081815260200182805460018160011615610100020316600290048015610b865780601f10610b5b57610100808354040283529160200191610b86565b820191906000526020600020905b815481529060010190602001808311610b6957829003601f168201915b50505050509050610b9681610e40565b5050565b600660009054906101000a900473ffffffffffffffffffffffffffffffffffffffff1681565b60045481565b600081118015610bd857506001548111155b610be157600080fd5b343373ffffffffffffffffffffffffffffffffffffffff163111610c0457600080fd5b610c0c6112b6565b600760008381526020019081526020016000206040518060a001604052908160008201548152602001600182018054600181600116156101000203166002900480601f016020809104026020016040519081016040528092919081815260200182805460018160011615610100020316600290048015610ccd5780601f10610ca257610100808354040283529160200191610ccd565b820191906000526020600020905b815481529060010190602001808311610cb057829003601f168201915b50505050508152602001600282015481526020016003820160009054906101000a900473ffffffffffffffffffffffffffffffffffffffff1673ffffffffffffffffffffffffffffffffffffffff1673ffffffffffffffffffffffffffffffffffffffff16815260200160048201548152505090506000816060015190508073ffffffffffffffffffffffffffffffffffffffff166108fc349081150290604051600060405180830381858888f19350505050158015610d91573d6000803e3d6000fd5b50348260800181815101915081815250508160076000858152602001908152602001600020600082015181600001556020820151816001019080519060200190610ddc9291906112fb565b506040820151816002015560608201518160030160006101000a81548173ffffffffffffffffffffffffffffffffffffffff021916908373ffffffffffffffffffffffffffffffffffffffff16021790555060808201518160040155905050505050565b60008151118015610e5357506102308151105b610e5c57600080fd5b6001600081548092919060010191905055506040518060a001604052806001548152602001828152602001600081526020013373ffffffffffffffffffffffffffffffffffffffff1681526020016000815250600760006001548152602001908152602001600020600082015181600001556020820151816001019080519060200190610eea9291906112fb565b506040820151816002015560608201518160030160006101000a81548173ffffffffffffffffffffffffffffffffffffffff021916908373ffffffffffffffffffffffffffffffffffffffff16021790555060808201518160040155905050610f5281610857565b50565b60055481565b60015481565b610f6961129c565b600060208301905060405180604001604052808451815260200182815250915050919050565b6000816000015183600001511015610faa5760009050610fe2565b816020015183602001511415610fc35760019050610fe2565b6000825160208501516020850151828120838320149350505050809150505b92915050565b610ff061129c565b610ffb8383836110da565b5092915050565b60608082600001516040519080825280601f01601f19166020018201604052801561103c5781602001600182028038833980820191505090505b509050600060208201905061105a8185602001518660000151611178565b8192505050919050565b600060608290506000809250600090505b81518110156110d057600082828151811061108c57fe5b602001015160f81c60f81b60f81c60ff169050603081101580156110b1575060398111155b156110c25760308103600a85020193505b508080600101915050611075565b8292505050919050565b6110e261129c565b600061110085600001518660200151866000015187602001516111c1565b9050846020015183602001818152505084602001518103836000018181525050846000015185602001510181141561114257600085600001818152505061116d565b8360000151836000015101856000018181510391508181525050836000015181018560200181815250505b829150509392505050565b5b6020811061119c5781518352602083019250602082019150602081039050611179565b60006001826020036101000a0390508019835116818551168181178652505050505050565b600080849050600086851161128c576020851161124657600060018660200360080260020a031960001b905060008186511690506000878a8a0103905060008386511690505b82811461123857818610611225578a8a019650505050505050611294565b8580600101965050838651169050611207565b859650505050505050611294565b60008585209050600091505b858803821161128a5760008684209050808214156112765783945050505050611294565b600184019350508180600101925050611252565b505b868601925050505b949350505050565b604051806040016040528060008152602001600081525090565b6040518060a00160405280600081526020016060815260200160008152602001600073ffffffffffffffffffffffffffffffffffffffff168152602001600081525090565b828054600181600116156101000203166002900490600052602060002090601f016020900481019282601f1061133c57805160ff191683800117855561136a565b8280016001018555821561136a579182015b8281111561136957825182559160200191906001019061134e565b5b509050611377919061137b565b5090565b61139d91905b80821115611399576000816000905550600101611381565b5090565b9056fea265627a7a72315820ea5612883bc3cc55f3a4a2070f945488dd7f8a5241a718781a1e4d618618765d64736f6c63430005100032",
  "source": "pragma solidity ^0.5.0;\n\n/* To run a demo on truffle console:\n\tSocialNetwork.deployed().then(function(a) {app=a})\n\tapp.owner().then(function(o) {owner=o})\n\towner\n\tweb3.eth.getAccounts()\n\tweb3.eth.getBalance()\n\tapp.createPost(\"BID:9000\", {from: })\n\tapp.bid().then(function(b) {bid=b})\n\tbid.toNumber()\n\tapp.bidSize().then(function(b) {bidSize=b})\n\tbidSize.toNumber()\n\tapp.createPost(\"OFFER:9\")\n\tapp.offerSize().then(function(o) {offerSize=o})\n\tofferSize.toNumber()\n\tapp.posts(1).then(function(p) {posts=p})\n\tposts[0].toNumber()\n\tposts[1]\n\tposts[2].toNumber()\n\tposts[3]\n\tposts[4].toNumber()\n\tapp.rewardPost(1, {value: 2})\n\tweb3.eth.getAccounts()\n\tapp.rePost(1)\n*/\n\nimport {strings} from \"strings.sol\";\n\ncontract SocialNetwork {\n\tusing strings for *;\n\n\tstring public name;\n\tuint public numPosts;\n\tuint public bid;\n\tuint public bidSize;\n\tuint public offer;\n\tuint public offerSize;\n\taddress payable public owner;\n\tmapping(uint => Post) public posts;\n\tmapping(address => uint) public balances;\n\n\tstruct Post {\n\t\tuint id;\n\t\tstring content;\n\t\tuint likes;\n\t\taddress payable author;\n\t\tuint rewards;\n\t}\n\n\tconstructor() public {\n\t\tname = \"Agora\";\n\t\tbid = 5;\n\t\toffer = 10;\n\t\towner = msg.sender;\n\t}\n\n\tfunction workForMoney() public {\n\t\t// Get balance\n\t\tbalances[msg.sender] += 10;\n\t}\n\n\tfunction createPost(string memory _content) public {\n\t\t// Require content to be longer than 0 bytes and shorter than 560 bytes\n\t\trequire(bytes(_content).length > 0 && bytes(_content).length < 560);\n\n\t\t// Increment num posts\n\t\tnumPosts ++;\n\n\t\t// Store post in mapping\n\t\tposts[numPosts] = Post(numPosts, _content, 0, msg.sender, 0);\n\n\t\t// Check if it's a quote\n\t\tnewQuote(_content);\n\t}\n\n\tfunction newQuote(string memory _content) public {\n\t\tstrings.slice memory slice = _content.toSlice();\n\t\tif (slice.startsWith(\"BID:\".toSlice())) {\n\t\t\t// All bids should increment bidSize\n\t\t\tbidSize ++;\n\t\t\t\n\t\t\t// Use imported strings library to help with string util functions\n\t\t\tstrings.slice memory _ = slice.split(\":\".toSlice());\n\t\t\tstring memory order = slice.toString();\n\n\t\t\t// Convert string to uint so we can compare it to market bid\n\t\t\tuint newBid = stringToUint(order);\n\t\t\tif (newBid >= bid) {\n\t\t\t\t// Market bid should always reflect currently best(highest) bid\n\t\t\t\tbid = newBid;\n\n\t\t\t\t// Transfer wei to owner according to bid price\n\t\t\t\towner.call.value(bid);\n\t\t\t}\n\t\t}\n\n\t\telse if (slice.startsWith(\"OFFER:\".toSlice())) {\n\t\t\t// All offers should increment offerSize\n\t\t\tofferSize ++;\n\n\t\t\t// Use imported strings library to help with string util functons\n\t\t\tstrings.slice memory _ = slice.split(\":\".toSlice());\n\t\t\tstring memory order = slice.toString();\n\n\t\t\t// Convert string to uint\n\t\t\toffer = stringToUint(order);\n\n\t\t\t// Market offer should always reflect currently best(lowest) offer\n\t\t\tuint newOffer = stringToUint(order);\n\t\t\tif (newOffer <= offer) {\n\t\t\t\toffer = newOffer;\n\t\t\t}\n\t\t}\n\n\t\telse {\n\t\t\treturn;\n\t\t}\n\t}\n\n\tfunction stringToUint(string memory s) internal returns (uint result) {\n\t\tbytes memory b = bytes(s);\n\t\tuint i;\n\t\tresult = 0;\n\t\tfor (i = 0; i < b.length; i++) {\n\t\t\tuint c = uint(uint8(b[i]));\n\t\t\tif (c >= 48 && c <= 57) {\n\t\t\t\tresult = result * 10 + (c - 48);\n\t\t\t}\n\t\t}\n\n\t\treturn result;\n\t}\n\n\tfunction likePost(uint _id) public {\n\t\t// Require id to be greater than 0 and smaller than num posts\n\t\trequire(_id > 0 && _id <= numPosts);\n\n\t\t// Increment the number of likes\n\t\tposts[_id].likes ++;\n\t}\n\n\tfunction rewardPost(uint _id) public payable {\n\t\t// Require id to be greater than 0 and smaller than num posts\n\t\trequire(_id > 0 && _id <= numPosts);\n\n\t\t// Require sufficient balance\n\t\trequire(address(msg.sender).balance > msg.value);\n\n\t\t// Get post\n\t\tPost memory _post = posts[_id];\n\n\t\t// Get author of post\n\t\taddress payable _author = _post.author;\n\n\t\t// Pay author of post\n\t\taddress(_author).transfer(msg.value);\n\n\t\t// Increment post reward\n\t\t_post.rewards += msg.value;\n\n\t\t// Update the post\n\t\tposts[_id] = _post;\n\t}\n\n\tfunction rePost(uint _id) public {\n\t\t// Require id to be greater than 0 and smaller than num posts\n\t\trequire(_id > 0 && _id <= numPosts);\n\n\t\t// Get content of post\n\t\tstring memory _content = posts[_id].content;\n\n\t\t// Repost same content but with current user\n\t\tcreatePost(_content);\n\t}\n}",
  "sourcePath": "/Users/aidenchia/Desktop/dapp/contracts/SocialNetwork.sol",
  "compiler": {
    "name": "solc",
    "version": "0.5.16+commit.9c3226ce.Emscripten.clang"
  },
  "schemaVersion": "3.0.23",
  "updatedAt": "2020-04-10T07:31:31.596Z",
  "networkType": "ethereum",
  "devdoc": {
    "methods": {}
  },
  "userdoc": {
    "methods": {}
  }
}