{
  "contractName": "SocialNetwork",
  "abi": [
    {
      "inputs": [],
      "payable": false,
      "stateMutability": "nonpayable",
      "type": "constructor"
    },
    {
      "constant": true,
      "inputs": [],
      "name": "name",
      "outputs": [
        {
          "internalType": "string",
          "name": "",
          "type": "string"
        }
      ],
      "payable": false,
      "stateMutability": "view",
      "type": "function"
    },
    {
      "constant": true,
      "inputs": [],
      "name": "numPosts",
      "outputs": [
        {
          "internalType": "uint256",
          "name": "",
          "type": "uint256"
        }
      ],
      "payable": false,
      "stateMutability": "view",
      "type": "function"
    },
    {
      "constant": true,
      "inputs": [
        {
          "internalType": "uint256",
          "name": "",
          "type": "uint256"
        }
      ],
      "name": "posts",
      "outputs": [
        {
          "internalType": "uint256",
          "name": "id",
          "type": "uint256"
        },
        {
          "internalType": "string",
          "name": "content",
          "type": "string"
        },
        {
          "internalType": "uint256",
          "name": "likes",
          "type": "uint256"
        },
        {
          "internalType": "address payable",
          "name": "author",
          "type": "address"
        },
        {
          "internalType": "uint256",
          "name": "rewards",
          "type": "uint256"
        }
      ],
      "payable": false,
      "stateMutability": "view",
      "type": "function"
    },
    {
      "constant": false,
      "inputs": [
        {
          "internalType": "string",
          "name": "_content",
          "type": "string"
        }
      ],
      "name": "createPost",
      "outputs": [],
      "payable": false,
      "stateMutability": "nonpayable",
      "type": "function"
    },
    {
      "constant": false,
      "inputs": [
        {
          "internalType": "uint256",
          "name": "_id",
          "type": "uint256"
        }
      ],
      "name": "likePost",
      "outputs": [],
      "payable": false,
      "stateMutability": "nonpayable",
      "type": "function"
    },
    {
      "constant": false,
      "inputs": [
        {
          "internalType": "uint256",
          "name": "_id",
          "type": "uint256"
        }
      ],
      "name": "rewardPost",
      "outputs": [],
      "payable": true,
      "stateMutability": "payable",
      "type": "function"
    },
    {
      "constant": false,
      "inputs": [
        {
          "internalType": "uint256",
          "name": "_id",
          "type": "uint256"
        }
      ],
      "name": "rePost",
      "outputs": [],
      "payable": false,
      "stateMutability": "nonpayable",
      "type": "function"
    }
  ],
  "bytecode": "0x608060405234801561001057600080fd5b506040518060400160405280601681526020017f4477697474657220536f6369616c204e6574776f726b000000000000000000008152506000908051906020019061005c929190610062565b50610107565b828054600181600116156101000203166002900490600052602060002090601f016020900481019282601f106100a357805160ff19168380011785556100d1565b828001600101855582156100d1579182015b828111156100d05782518255916020019190600101906100b5565b5b5090506100de91906100e2565b5090565b61010491905b808211156101005760008160009055506001016100e8565b5090565b90565b610aee806101166000396000f3fe6080604052600436106100705760003560e01c80637d98fa111161004e5780637d98fa111461023c578063c471b73714610277578063c7303c61146102a5578063ec7331e91461036d57610070565b806306fdde03146100755780630b1e7f8314610105578063725009d314610201575b600080fd5b34801561008157600080fd5b5061008a610398565b6040518080602001828103825283818151815260200191508051906020019080838360005b838110156100ca5780820151818401526020810190506100af565b50505050905090810190601f1680156100f75780820380516001836020036101000a031916815260200191505b509250505060405180910390f35b34801561011157600080fd5b5061013e6004803603602081101561012857600080fd5b8101908080359060200190929190505050610436565b60405180868152602001806020018581526020018473ffffffffffffffffffffffffffffffffffffffff1673ffffffffffffffffffffffffffffffffffffffff168152602001838152602001828103825286818151815260200191508051906020019080838360005b838110156101c25780820151818401526020810190506101a7565b50505050905090810190601f1680156101ef5780820380516001836020036101000a031916815260200191505b50965050505050505060405180910390f35b34801561020d57600080fd5b5061023a6004803603602081101561022457600080fd5b8101908080359060200190929190505050610524565b005b34801561024857600080fd5b506102756004803603602081101561025f57600080fd5b8101908080359060200190929190505050610568565b005b6102a36004803603602081101561028d57600080fd5b8101908080359060200190929190505050610643565b005b3480156102b157600080fd5b5061036b600480360360208110156102c857600080fd5b81019080803590602001906401000000008111156102e557600080fd5b8201836020820111156102f757600080fd5b8035906020019184600183028401116401000000008311171561031957600080fd5b91908080601f016020809104026020016040519081016040528093929190818152602001838380828437600081840152601f19601f8201169050808301925050505050505091929192905050506108bd565b005b34801561037957600080fd5b506103826109c9565b6040518082815260200191505060405180910390f35b60008054600181600116156101000203166002900480601f01602080910402602001604051908101604052809291908181526020018280546001816001161561010002031660029004801561042e5780601f106104035761010080835404028352916020019161042e565b820191906000526020600020905b81548152906001019060200180831161041157829003601f168201915b505050505081565b6002602052806000526040600020600091509050806000015490806001018054600181600116156101000203166002900480601f0160208091040260200160405190810160405280929190818152602001828054600181600116156101000203166002900480156104e85780601f106104bd576101008083540402835291602001916104e8565b820191906000526020600020905b8154815290600101906020018083116104cb57829003601f168201915b5050505050908060020154908060030160009054906101000a900473ffffffffffffffffffffffffffffffffffffffff16908060040154905085565b60008111801561053657506001548111155b61053f57600080fd5b600260008281526020019081526020016000206002016000815480929190600101919050555050565b60008111801561057a57506001548111155b61058357600080fd5b6060600260008381526020019081526020016000206001018054600181600116156101000203166002900480601f01602080910402602001604051908101604052809291908181526020018280546001816001161561010002031660029004801561062f5780601f106106045761010080835404028352916020019161062f565b820191906000526020600020905b81548152906001019060200180831161061257829003601f168201915b5050505050905061063f816108bd565b5050565b60008111801561065557506001548111155b61065e57600080fd5b343373ffffffffffffffffffffffffffffffffffffffff16311161068157600080fd5b6106896109cf565b600260008381526020019081526020016000206040518060a001604052908160008201548152602001600182018054600181600116156101000203166002900480601f01602080910402602001604051908101604052809291908181526020018280546001816001161561010002031660029004801561074a5780601f1061071f5761010080835404028352916020019161074a565b820191906000526020600020905b81548152906001019060200180831161072d57829003601f168201915b50505050508152602001600282015481526020016003820160009054906101000a900473ffffffffffffffffffffffffffffffffffffffff1673ffffffffffffffffffffffffffffffffffffffff1673ffffffffffffffffffffffffffffffffffffffff16815260200160048201548152505090506000816060015190508073ffffffffffffffffffffffffffffffffffffffff166108fc349081150290604051600060405180830381858888f1935050505015801561080e573d6000803e3d6000fd5b50348260800181815101915081815250508160026000858152602001908152602001600020600082015181600001556020820151816001019080519060200190610859929190610a14565b506040820151816002015560608201518160030160006101000a81548173ffffffffffffffffffffffffffffffffffffffff021916908373ffffffffffffffffffffffffffffffffffffffff16021790555060808201518160040155905050505050565b600081511180156108d057506102308151105b6108d957600080fd5b6001600081548092919060010191905055506040518060a001604052806001548152602001828152602001600081526020013373ffffffffffffffffffffffffffffffffffffffff1681526020016000815250600260006001548152602001908152602001600020600082015181600001556020820151816001019080519060200190610967929190610a14565b506040820151816002015560608201518160030160006101000a81548173ffffffffffffffffffffffffffffffffffffffff021916908373ffffffffffffffffffffffffffffffffffffffff1602179055506080820151816004015590505050565b60015481565b6040518060a00160405280600081526020016060815260200160008152602001600073ffffffffffffffffffffffffffffffffffffffff168152602001600081525090565b828054600181600116156101000203166002900490600052602060002090601f016020900481019282601f10610a5557805160ff1916838001178555610a83565b82800160010185558215610a83579182015b82811115610a82578251825591602001919060010190610a67565b5b509050610a909190610a94565b5090565b610ab691905b80821115610ab2576000816000905550600101610a9a565b5090565b9056fea265627a7a72315820f111f305bec535fef50ffeea9a190f9617d17771f35ca434aee49d1c81a229ff64736f6c63430005100032",
  "source": "pragma solidity ^0.5.0;\n\n/* To run on truffle console:\n\tSocialNetwork.deployed().then(function(a) {app=a})\n\tapp.createPost(\"tweeeeeet\")\n\tapp.posts(1).then(function(p) {posts=p})\n\tposts[0].toNumber()\n\tposts[1]\n\tposts[4].toNumber()\n\tapp.rewardPost(1, {value: 2})\n*/\n\ncontract SocialNetwork {\n\tstring public name;\n\tuint public numPosts;\n\tmapping(uint => Post) public posts;\n\n\tstruct Post {\n\t\tuint id;\n\t\tstring content;\n\t\tuint likes;\n\t\taddress payable author;\n\t\tuint rewards;\n\t}\n\n\tconstructor() public {\n\t\tname = \"Dwitter Social Network\";\n\t}\n\n\tfunction createPost(string memory _content) public {\n\t\t// Require content to be longer than 0 bytes and shorter than 560 bytes\n\t\trequire(bytes(_content).length > 0 && bytes(_content).length < 560);\n\n\t\t// Increment num posts\n\t\tnumPosts ++;\n\n\t\t// Store post in mapping\n\t\tposts[numPosts] = Post(numPosts, _content, 0, msg.sender, 0);\n\t}\n\n\tfunction likePost(uint _id) public {\n\t\t// Require id to be greater than 0 and smaller than num posts\n\t\trequire(_id > 0 && _id <= numPosts);\n\n\t\t// Increment the number of likes\n\t\tposts[_id].likes ++;\n\t}\n\n\tfunction rewardPost(uint _id) public payable {\n\t\t// Require id to be greater than 0 and smaller than num posts\n\t\trequire(_id > 0 && _id <= numPosts);\n\n\t\t// Require sufficient balance\n\t\trequire(address(msg.sender).balance > msg.value);\n\n\t\t// Get post\n\t\tPost memory _post = posts[_id];\n\n\t\t// Get author of post\n\t\taddress payable _author = _post.author;\n\n\t\t// Pay author of post\n\t\taddress(_author).transfer(msg.value);\n\n\t\t// Increment post reward\n\t\t_post.rewards += msg.value;\n\n\t\t// Update the post\n\t\tposts[_id] = _post;\n\t}\n\n\tfunction rePost(uint _id) public {\n\t\t// Require id to be greater than 0 and smaller than num posts\n\t\trequire(_id > 0 && _id <= numPosts);\n\n\t\t// Get content of post\n\t\tstring memory _content = posts[_id].content;\n\n\t\t// Repost same content but with current user\n\t\tcreatePost(_content);\n\t}\n\n}",
  "sourcePath": "/Users/aidenchia/Desktop/dapp/contracts/SocialNetwork.sol",
  "compiler": {
    "name": "solc",
    "version": "0.5.16+commit.9c3226ce.Emscripten.clang"
  },
  "schemaVersion": "3.0.23",
  "updatedAt": "2020-04-09T15:29:34.857Z",
  "networkType": "ethereum",
  "devdoc": {
    "methods": {}
  },
  "userdoc": {
    "methods": {}
  }
}