{
  "contractName": "SocialNetwork",
  "abi": [
    {
      "inputs": [],
      "payable": false,
      "stateMutability": "nonpayable",
      "type": "constructor"
    },
    {
      "constant": true,
      "inputs": [
        {
          "internalType": "address",
          "name": "",
          "type": "address"
        }
      ],
      "name": "balances",
      "outputs": [
        {
          "internalType": "uint256",
          "name": "",
          "type": "uint256"
        }
      ],
      "payable": false,
      "stateMutability": "view",
      "type": "function"
    },
    {
      "constant": true,
      "inputs": [],
      "name": "bid",
      "outputs": [
        {
          "internalType": "uint256",
          "name": "",
          "type": "uint256"
        }
      ],
      "payable": false,
      "stateMutability": "view",
      "type": "function"
    },
    {
      "constant": true,
      "inputs": [],
      "name": "bidSize",
      "outputs": [
        {
          "internalType": "uint256",
          "name": "",
          "type": "uint256"
        }
      ],
      "payable": false,
      "stateMutability": "view",
      "type": "function"
    },
    {
      "constant": true,
      "inputs": [
        {
          "internalType": "address",
          "name": "",
          "type": "address"
        }
      ],
      "name": "inventories",
      "outputs": [
        {
          "internalType": "uint256",
          "name": "",
          "type": "uint256"
        }
      ],
      "payable": false,
      "stateMutability": "view",
      "type": "function"
    },
    {
      "constant": true,
      "inputs": [],
      "name": "marketMaker",
      "outputs": [
        {
          "internalType": "address payable",
          "name": "",
          "type": "address"
        }
      ],
      "payable": false,
      "stateMutability": "view",
      "type": "function"
    },
    {
      "constant": true,
      "inputs": [],
      "name": "merchantPrice",
      "outputs": [
        {
          "internalType": "uint256",
          "name": "",
          "type": "uint256"
        }
      ],
      "payable": false,
      "stateMutability": "view",
      "type": "function"
    },
    {
      "constant": true,
      "inputs": [],
      "name": "name",
      "outputs": [
        {
          "internalType": "string",
          "name": "",
          "type": "string"
        }
      ],
      "payable": false,
      "stateMutability": "view",
      "type": "function"
    },
    {
      "constant": true,
      "inputs": [],
      "name": "numPosts",
      "outputs": [
        {
          "internalType": "uint256",
          "name": "",
          "type": "uint256"
        }
      ],
      "payable": false,
      "stateMutability": "view",
      "type": "function"
    },
    {
      "constant": true,
      "inputs": [],
      "name": "offer",
      "outputs": [
        {
          "internalType": "uint256",
          "name": "",
          "type": "uint256"
        }
      ],
      "payable": false,
      "stateMutability": "view",
      "type": "function"
    },
    {
      "constant": true,
      "inputs": [],
      "name": "offerSize",
      "outputs": [
        {
          "internalType": "uint256",
          "name": "",
          "type": "uint256"
        }
      ],
      "payable": false,
      "stateMutability": "view",
      "type": "function"
    },
    {
      "constant": true,
      "inputs": [
        {
          "internalType": "uint256",
          "name": "",
          "type": "uint256"
        }
      ],
      "name": "posts",
      "outputs": [
        {
          "internalType": "uint256",
          "name": "id",
          "type": "uint256"
        },
        {
          "internalType": "string",
          "name": "content",
          "type": "string"
        },
        {
          "internalType": "uint256",
          "name": "likes",
          "type": "uint256"
        },
        {
          "internalType": "address payable",
          "name": "author",
          "type": "address"
        },
        {
          "internalType": "uint256",
          "name": "rewards",
          "type": "uint256"
        }
      ],
      "payable": false,
      "stateMutability": "view",
      "type": "function"
    },
    {
      "constant": false,
      "inputs": [],
      "name": "buyFromMerchant",
      "outputs": [],
      "payable": false,
      "stateMutability": "nonpayable",
      "type": "function"
    },
    {
      "constant": false,
      "inputs": [],
      "name": "workForDrachma",
      "outputs": [],
      "payable": false,
      "stateMutability": "nonpayable",
      "type": "function"
    },
    {
      "constant": false,
      "inputs": [
        {
          "internalType": "address",
          "name": "_from",
          "type": "address"
        },
        {
          "internalType": "address",
          "name": "_to",
          "type": "address"
        },
        {
          "internalType": "uint256",
          "name": "_amount",
          "type": "uint256"
        }
      ],
      "name": "transferDrachma",
      "outputs": [],
      "payable": false,
      "stateMutability": "nonpayable",
      "type": "function"
    },
    {
      "constant": false,
      "inputs": [
        {
          "internalType": "string",
          "name": "_content",
          "type": "string"
        }
      ],
      "name": "createPost",
      "outputs": [],
      "payable": false,
      "stateMutability": "nonpayable",
      "type": "function"
    },
    {
      "constant": false,
      "inputs": [
        {
          "internalType": "string",
          "name": "_content",
          "type": "string"
        }
      ],
      "name": "newQuote",
      "outputs": [],
      "payable": false,
      "stateMutability": "nonpayable",
      "type": "function"
    },
    {
      "constant": false,
      "inputs": [
        {
          "internalType": "uint256",
          "name": "_id",
          "type": "uint256"
        }
      ],
      "name": "likePost",
      "outputs": [],
      "payable": false,
      "stateMutability": "nonpayable",
      "type": "function"
    },
    {
      "constant": false,
      "inputs": [
        {
          "internalType": "uint256",
          "name": "_id",
          "type": "uint256"
        }
      ],
      "name": "rewardPost",
      "outputs": [],
      "payable": true,
      "stateMutability": "payable",
      "type": "function"
    },
    {
      "constant": false,
      "inputs": [
        {
          "internalType": "uint256",
          "name": "_id",
          "type": "uint256"
        }
      ],
      "name": "rePost",
      "outputs": [],
      "payable": false,
      "stateMutability": "nonpayable",
      "type": "function"
    }
  ],
  "bytecode": "0x60806040523480156200001157600080fd5b506040518060400160405280600581526020017f41676f7261000000000000000000000000000000000000000000000000000000815250600090805190602001906200005f929190620000bf565b50600a600281905550601460048190555033600760006101000a81548173ffffffffffffffffffffffffffffffffffffffff021916908373ffffffffffffffffffffffffffffffffffffffff160217905550601e6006819055506200016e565b828054600181600116156101000203166002900490600052602060002090601f016020900481019282601f106200010257805160ff191683800117855562000133565b8280016001018555821562000133579182015b828111156200013257825182559160200191906001019062000115565b5b50905062000142919062000146565b5090565b6200016b91905b80821115620001675760008160009055506001016200014d565b5090565b90565b6118ac806200017e6000396000f3fe6080604052600436106101145760003560e01c806377509252116100a0578063c471b73711610064578063c471b73714610642578063c682fd6014610670578063c7303c6114610687578063e9ded3ec1461074f578063ec7331e91461077a57610114565b8063775092521461051f5780637d98fa111461053657806386863c5214610571578063b03b23c2146105ec578063c028df061461061757610114565b806327e235e3116100e757806327e235e3146103275780632b70c8fc1461038c57806353e41a54146103b7578063698aa65c1461047f578063725009d3146104e457610114565b806306fdde03146101195780630b1e7f83146101a95780631998aeef146102a55780631f21f9af146102d0575b600080fd5b34801561012557600080fd5b5061012e6107a5565b6040518080602001828103825283818151815260200191508051906020019080838360005b8381101561016e578082015181840152602081019050610153565b50505050905090810190601f16801561019b5780820380516001836020036101000a031916815260200191505b509250505060405180910390f35b3480156101b557600080fd5b506101e2600480360360208110156101cc57600080fd5b8101908080359060200190929190505050610843565b60405180868152602001806020018581526020018473ffffffffffffffffffffffffffffffffffffffff1673ffffffffffffffffffffffffffffffffffffffff168152602001838152602001828103825286818151815260200191508051906020019080838360005b8381101561026657808201518184015260208101905061024b565b50505050905090810190601f1680156102935780820380516001836020036101000a031916815260200191505b50965050505050505060405180910390f35b3480156102b157600080fd5b506102ba610931565b6040518082815260200191505060405180910390f35b3480156102dc57600080fd5b506102e5610937565b604051808273ffffffffffffffffffffffffffffffffffffffff1673ffffffffffffffffffffffffffffffffffffffff16815260200191505060405180910390f35b34801561033357600080fd5b506103766004803603602081101561034a57600080fd5b81019080803573ffffffffffffffffffffffffffffffffffffffff16906020019092919050505061095d565b6040518082815260200191505060405180910390f35b34801561039857600080fd5b506103a1610975565b6040518082815260200191505060405180910390f35b3480156103c357600080fd5b5061047d600480360360208110156103da57600080fd5b81019080803590602001906401000000008111156103f757600080fd5b82018360208201111561040957600080fd5b8035906020019184600183028401116401000000008311171561042b57600080fd5b91908080601f016020809104026020016040519081016040528093929190818152602001838380828437600081840152601f19601f82011690508083019250505050505050919291929050505061097b565b005b34801561048b57600080fd5b506104ce600480360360208110156104a257600080fd5b81019080803573ffffffffffffffffffffffffffffffffffffffff169060200190929190505050610cb6565b6040518082815260200191505060405180910390f35b3480156104f057600080fd5b5061051d6004803603602081101561050757600080fd5b8101908080359060200190929190505050610cce565b005b34801561052b57600080fd5b50610534610d12565b005b34801561054257600080fd5b5061056f6004803603602081101561055957600080fd5b8101908080359060200190929190505050610d62565b005b34801561057d57600080fd5b506105ea6004803603606081101561059457600080fd5b81019080803573ffffffffffffffffffffffffffffffffffffffff169060200190929190803573ffffffffffffffffffffffffffffffffffffffff16906020019092919080359060200190929190505050610e3d565b005b3480156105f857600080fd5b50610601610f28565b6040518082815260200191505060405180910390f35b34801561062357600080fd5b5061062c610f2e565b6040518082815260200191505060405180910390f35b61066e6004803603602081101561065857600080fd5b8101908080359060200190929190505050610f34565b005b34801561067c57600080fd5b506106856111ae565b005b34801561069357600080fd5b5061074d600480360360208110156106aa57600080fd5b81019080803590602001906401000000008111156106c757600080fd5b8201836020820111156106d957600080fd5b803590602001918460018302840111640100000000831117156106fb57600080fd5b91908080601f016020809104026020016040519081016040528093929190818152602001838380828437600081840152601f19601f8201169050808301925050505050505091929192905050506112e7565b005b34801561075b57600080fd5b506107646113fc565b6040518082815260200191505060405180910390f35b34801561078657600080fd5b5061078f611402565b6040518082815260200191505060405180910390f35b60008054600181600116156101000203166002900480601f01602080910402602001604051908101604052809291908181526020018280546001816001161561010002031660029004801561083b5780601f106108105761010080835404028352916020019161083b565b820191906000526020600020905b81548152906001019060200180831161081e57829003601f168201915b505050505081565b6008602052806000526040600020600091509050806000015490806001018054600181600116156101000203166002900480601f0160208091040260200160405190810160405280929190818152602001828054600181600116156101000203166002900480156108f55780601f106108ca576101008083540402835291602001916108f5565b820191906000526020600020905b8154815290600101906020018083116108d857829003601f168201915b5050505050908060020154908060030160009054906101000a900473ffffffffffffffffffffffffffffffffffffffff16908060040154905085565b60025481565b600760009054906101000a900473ffffffffffffffffffffffffffffffffffffffff1681565b60096020528060005260406000206000915090505481565b60035481565b610983611743565b61098c82611408565b90506109de6109cf6040518060400160405280600481526020017f4249443a00000000000000000000000000000000000000000000000000000000815250611408565b8261143690919063ffffffff16565b15610ba7576003600081548092919060010191905055506109fd611743565b610a4d610a3e6040518060400160405280600181526020017f3a00000000000000000000000000000000000000000000000000000000000000815250611408565b8361148f90919063ffffffff16565b90506060610a5a836114a9565b90506000610a678261150b565b90506002548110610b9f57610a9f33600760009054906101000a900473ffffffffffffffffffffffffffffffffffffffff1683610e3d565b6001600a60003373ffffffffffffffffffffffffffffffffffffffff1673ffffffffffffffffffffffffffffffffffffffff168152602001908152602001600020600082825401925050819055506001600a6000600760009054906101000a900473ffffffffffffffffffffffffffffffffffffffff1673ffffffffffffffffffffffffffffffffffffffff1673ffffffffffffffffffffffffffffffffffffffff1681526020019081526020016000206000828254039250508190555033600760006101000a81548173ffffffffffffffffffffffffffffffffffffffff021916908373ffffffffffffffffffffffffffffffffffffffff1602179055505b505050610cb1565b610bf7610be86040518060400160405280600681526020017f4f464645523a0000000000000000000000000000000000000000000000000000815250611408565b8261143690919063ffffffff16565b15610caa57600560008154809291906001019190505550610c16611743565b610c66610c576040518060400160405280600181526020017f3a00000000000000000000000000000000000000000000000000000000000000815250611408565b8361148f90919063ffffffff16565b90506060610c73836114a9565b9050610c7e8161150b565b6004819055506000610c8f8261150b565b90506004548111610ca257806004819055505b505050610cb0565b50610cb3565b5b505b50565b600a6020528060005260406000206000915090505481565b600081118015610ce057506001548111155b610ce957600080fd5b600860008281526020019081526020016000206002016000815480929190600101919050555050565b6032600960003373ffffffffffffffffffffffffffffffffffffffff1673ffffffffffffffffffffffffffffffffffffffff16815260200190815260200160002060008282540192505081905550565b600081118015610d7457506001548111155b610d7d57600080fd5b6060600860008381526020019081526020016000206001018054600181600116156101000203166002900480601f016020809104026020016040519081016040528092919081815260200182805460018160011615610100020316600290048015610e295780601f10610dfe57610100808354040283529160200191610e29565b820191906000526020600020905b815481529060010190602001808311610e0c57829003601f168201915b50505050509050610e39816112e7565b5050565b600960008473ffffffffffffffffffffffffffffffffffffffff1673ffffffffffffffffffffffffffffffffffffffff16815260200190815260200160002054811115610e8957600080fd5b80600960008573ffffffffffffffffffffffffffffffffffffffff1673ffffffffffffffffffffffffffffffffffffffff1681526020019081526020016000206000828254039250508190555080600960008473ffffffffffffffffffffffffffffffffffffffff1673ffffffffffffffffffffffffffffffffffffffff16815260200190815260200160002060008282540192505081905550505050565b60065481565b60045481565b600081118015610f4657506001548111155b610f4f57600080fd5b343373ffffffffffffffffffffffffffffffffffffffff163111610f7257600080fd5b610f7a61175d565b600860008381526020019081526020016000206040518060a001604052908160008201548152602001600182018054600181600116156101000203166002900480601f01602080910402602001604051908101604052809291908181526020018280546001816001161561010002031660029004801561103b5780601f106110105761010080835404028352916020019161103b565b820191906000526020600020905b81548152906001019060200180831161101e57829003601f168201915b50505050508152602001600282015481526020016003820160009054906101000a900473ffffffffffffffffffffffffffffffffffffffff1673ffffffffffffffffffffffffffffffffffffffff1673ffffffffffffffffffffffffffffffffffffffff16815260200160048201548152505090506000816060015190508073ffffffffffffffffffffffffffffffffffffffff166108fc349081150290604051600060405180830381858888f193505050501580156110ff573d6000803e3d6000fd5b5034826080018181510191508181525050816008600085815260200190815260200160002060008201518160000155602082015181600101908051906020019061114a9291906117a2565b506040820151816002015560608201518160030160006101000a81548173ffffffffffffffffffffffffffffffffffffffff021916908373ffffffffffffffffffffffffffffffffffffffff16021790555060808201518160040155905050505050565b600654600960003373ffffffffffffffffffffffffffffffffffffffff1673ffffffffffffffffffffffffffffffffffffffff168152602001908152602001600020541015611248576040517f08c379a00000000000000000000000000000000000000000000000000000000081526004018080602001828103825260308152602001806118486030913960400191505060405180910390fd5b600654600960003373ffffffffffffffffffffffffffffffffffffffff1673ffffffffffffffffffffffffffffffffffffffff168152602001908152602001600020600082825403925050819055506001600a60003373ffffffffffffffffffffffffffffffffffffffff1673ffffffffffffffffffffffffffffffffffffffff16815260200190815260200160002060008282540192505081905550565b600081511180156112fa57506102308151105b61130357600080fd5b6001600081548092919060010191905055506040518060a001604052806001548152602001828152602001600081526020013373ffffffffffffffffffffffffffffffffffffffff16815260200160008152506008600060015481526020019081526020016000206000820151816000015560208201518160010190805190602001906113919291906117a2565b506040820151816002015560608201518160030160006101000a81548173ffffffffffffffffffffffffffffffffffffffff021916908373ffffffffffffffffffffffffffffffffffffffff160217905550608082015181600401559050506113f98161097b565b50565b60055481565b60015481565b611410611743565b600060208301905060405180604001604052808451815260200182815250915050919050565b60008160000151836000015110156114515760009050611489565b81602001518360200151141561146a5760019050611489565b6000825160208501516020850151828120838320149350505050809150505b92915050565b611497611743565b6114a2838383611581565b5092915050565b60608082600001516040519080825280601f01601f1916602001820160405280156114e35781602001600182028038833980820191505090505b5090506000602082019050611501818560200151866000015161161f565b8192505050919050565b600060608290506000809250600090505b815181101561157757600082828151811061153357fe5b602001015160f81c60f81b60f81c60ff16905060308110158015611558575060398111155b156115695760308103600a85020193505b50808060010191505061151c565b8292505050919050565b611589611743565b60006115a78560000151866020015186600001518760200151611668565b905084602001518360200181815250508460200151810383600001818152505084600001518560200151018114156115e9576000856000018181525050611614565b8360000151836000015101856000018181510391508181525050836000015181018560200181815250505b829150509392505050565b5b602081106116435781518352602083019250602082019150602081039050611620565b60006001826020036101000a0390508019835116818551168181178652505050505050565b600080849050600086851161173357602085116116ed57600060018660200360080260020a031960001b905060008186511690506000878a8a0103905060008386511690505b8281146116df578186106116cc578a8a01965050505050505061173b565b85806001019650508386511690506116ae565b85965050505050505061173b565b60008585209050600091505b858803821161173157600086842090508082141561171d578394505050505061173b565b6001840193505081806001019250506116f9565b505b868601925050505b949350505050565b604051806040016040528060008152602001600081525090565b6040518060a00160405280600081526020016060815260200160008152602001600073ffffffffffffffffffffffffffffffffffffffff168152602001600081525090565b828054600181600116156101000203166002900490600052602060002090601f016020900481019282601f106117e357805160ff1916838001178555611811565b82800160010185558215611811579182015b828111156118105782518255916020019190600101906117f5565b5b50905061181e9190611822565b5090565b61184491905b80821115611840576000816000905550600101611828565b5090565b9056fe496e73756666696369656e742062616c616e636520746f20627579206469726563742066726f6d206d65726368616e74a265627a7a72315820f6b6df293d1601527942dcca361e5a42a2de90b5dcf854d2636e6fccdce967b564736f6c63430005100032",
  "source": "pragma solidity ^0.5.0;\n\n/* To run a demo on truffle console:\n\tSocialNetwork.deployed().then(function(a) {app=a})\n\tapp.workForDrachma({from: }).then(function(i) {i=i})\n\tweb3.eth.getAccounts()\n\tapp.transferDrachma().then(function(i) {i=i})\n\tapp.balances().then(function(b) {balance=b})\n\tbalance.toNumber()\n\tapp.inventories().then(function(i) {inv=i})\n\tapp.marketMaker().then(function(o) {mm=o})\n\tmm\n\tweb3.eth.getAccounts()\n\tweb3.eth.getBalance()\n\tapp.createPost(\"BID:6\", {from: })\n\tapp.bid().then(function(b) {bid=b})\n\tbid.toNumber()\n\tapp.bidSize().then(function(b) {bidSize=b})\n\tbidSize.toNumber()\n\tapp.createPost(\"OFFER:9\")\n\tapp.offerSize().then(function(o) {offerSize=o})\n\tofferSize.toNumber()\n\tapp.posts(1).then(function(p) {posts=p})\n\tposts[0].toNumber()\n\tposts[1]\n\tposts[2].toNumber()\n\tposts[3]\n\tposts[4].toNumber()\n\tapp.rewardPost(1, {value: 2})\n\tweb3.eth.getAccounts()\n\tapp.rePost(1)\n*/\n\nimport {strings} from \"strings.sol\";\n\ncontract SocialNetwork {\n\tusing strings for *;\n\n\tstring public name;\n\tuint public numPosts;\n\tuint public bid;\n\tuint public bidSize;\n\tuint public offer;\n\tuint public offerSize;\n\tuint public merchantPrice;\n\taddress payable public marketMaker;\n\tmapping(uint => Post) public posts;\n\tmapping(address => uint) public balances;\n\tmapping(address => uint) public inventories;\n\n\tstruct Post {\n\t\tuint id;\n\t\tstring content;\n\t\tuint likes;\n\t\taddress payable author;\n\t\tuint rewards;\n\t}\n\n\tconstructor() public {\n\t\tname = \"Agora\";\n\t\tbid = 10;\n\t\toffer = 20;\n\t\tmarketMaker = msg.sender;\n\t\tmerchantPrice = 30;\n\t}\n\n\tfunction buyFromMerchant() public {\n\t\trequire(balances[msg.sender] >= merchantPrice, \"Insufficient balance to buy direct from merchant\");\n\t\tbalances[msg.sender] -= merchantPrice;\n\t\tinventories[msg.sender] += 1;\n\t}\n\n\n\tfunction workForDrachma() public {\n\t\t// Increases balance of address\n\t\tbalances[msg.sender] += 50;\n\t}\n\n\tfunction transferDrachma(address _from, address _to, uint _amount) public {\n\t\t// Require sufficient drachma before trf can take place\n\t\trequire(_amount <= balances[_from]);\n\n\t\tbalances[_from] -= _amount;\n\t\tbalances[_to] += _amount;\n\t}\n\n\tfunction createPost(string memory _content) public {\n\t\t// Require content to be longer than 0 bytes and shorter than 560 bytes\n\t\trequire(bytes(_content).length > 0 && bytes(_content).length < 560);\n\n\t\t// Increment num posts\n\t\tnumPosts ++;\n\n\t\t// Store post in mapping\n\t\tposts[numPosts] = Post(numPosts, _content, 0, msg.sender, 0);\n\n\t\t// Check if it's a quote\n\t\tnewQuote(_content);\n\t}\n\n\tfunction newQuote(string memory _content) public {\n\t\tstrings.slice memory slice = _content.toSlice();\n\t\tif (slice.startsWith(\"BID:\".toSlice())) {\n\t\t\t// All bids should increment bidSize\n\t\t\tbidSize ++;\n\t\t\t\n\t\t\t// Use imported strings library to help with string util functions\n\t\t\tstrings.slice memory _ = slice.split(\":\".toSlice());\n\t\t\tstring memory order = slice.toString();\n\n\t\t\t// Convert string to uint so we can compare it to market bid\n\t\t\tuint newBid = stringToUint(order);\n\t\t\tif (newBid >= bid) {\n\t\t\t\t// Bid price is at least at mark price for market market to sell inventory\n\n\t\t\t\t// Transfer money to current market maker\n\t\t\t\ttransferDrachma(msg.sender, marketMaker, newBid);\n\n\t\t\t\t// Update inventory\n\t\t\t\tinventories[msg.sender] += 1;\n\t\t\t\tinventories[marketMaker] -= 1;\n\n\t\t\t\t// Update market maker, bid and offer\n\t\t\t\tmarketMaker = msg.sender;\n\n\t\t\t}\n\t\t}\n\n\t\telse if (slice.startsWith(\"OFFER:\".toSlice())) {\n\t\t\t// All offers should increment offerSize\n\t\t\tofferSize ++;\n\n\t\t\t// Use imported strings library to help with string util functons\n\t\t\tstrings.slice memory _ = slice.split(\":\".toSlice());\n\t\t\tstring memory order = slice.toString();\n\n\t\t\t// Convert string to uint\n\t\t\toffer = stringToUint(order);\n\n\t\t\t// Market offer should always reflect currently best(lowest) offer\n\t\t\tuint newOffer = stringToUint(order);\n\t\t\tif (newOffer <= offer) {\n\t\t\t\toffer = newOffer;\n\t\t\t}\n\t\t}\n\n\t\telse {\n\t\t\treturn;\n\t\t}\n\t}\n\n\tfunction stringToUint(string memory s) internal returns (uint result) {\n\t\tbytes memory b = bytes(s);\n\t\tuint i;\n\t\tresult = 0;\n\t\tfor (i = 0; i < b.length; i++) {\n\t\t\tuint c = uint(uint8(b[i]));\n\t\t\tif (c >= 48 && c <= 57) {\n\t\t\t\tresult = result * 10 + (c - 48);\n\t\t\t}\n\t\t}\n\n\t\treturn result;\n\t}\n\n\tfunction likePost(uint _id) public {\n\t\t// Require id to be greater than 0 and smaller than num posts\n\t\trequire(_id > 0 && _id <= numPosts);\n\n\t\t// Increment the number of likes\n\t\tposts[_id].likes ++;\n\t}\n\n\tfunction rewardPost(uint _id) public payable {\n\t\t// Require id to be greater than 0 and smaller than num posts\n\t\trequire(_id > 0 && _id <= numPosts);\n\n\t\t// Require sufficient balance\n\t\trequire(address(msg.sender).balance > msg.value);\n\n\t\t// Get post\n\t\tPost memory _post = posts[_id];\n\n\t\t// Get author of post\n\t\taddress payable _author = _post.author;\n\n\t\t// Pay author of post\n\t\taddress(_author).transfer(msg.value);\n\n\t\t// Increment post reward\n\t\t_post.rewards += msg.value;\n\n\t\t// Update the post\n\t\tposts[_id] = _post;\n\t}\n\n\tfunction rePost(uint _id) public {\n\t\t// Require id to be greater than 0 and smaller than num posts\n\t\trequire(_id > 0 && _id <= numPosts);\n\n\t\t// Get content of post\n\t\tstring memory _content = posts[_id].content;\n\n\t\t// Repost same content but with current user\n\t\tcreatePost(_content);\n\t}\n}",
  "sourcePath": "/Users/aidenchia/Desktop/dapp/contracts/SocialNetwork.sol",
  "compiler": {
    "name": "solc",
    "version": "0.5.16+commit.9c3226ce.Emscripten.clang"
  },
  "schemaVersion": "3.0.23",
  "updatedAt": "2020-04-10T08:25:02.062Z",
  "networkType": "ethereum",
  "devdoc": {
    "methods": {}
  },
  "userdoc": {
    "methods": {}
  }
}