{
  "contractName": "SocialNetwork",
  "abi": [
    {
      "inputs": [],
      "payable": false,
      "stateMutability": "nonpayable",
      "type": "constructor"
    },
    {
      "constant": true,
      "inputs": [
        {
          "internalType": "address",
          "name": "",
          "type": "address"
        }
      ],
      "name": "balances",
      "outputs": [
        {
          "internalType": "uint256",
          "name": "",
          "type": "uint256"
        }
      ],
      "payable": false,
      "stateMutability": "view",
      "type": "function"
    },
    {
      "constant": true,
      "inputs": [],
      "name": "bid",
      "outputs": [
        {
          "internalType": "uint256",
          "name": "",
          "type": "uint256"
        }
      ],
      "payable": false,
      "stateMutability": "view",
      "type": "function"
    },
    {
      "constant": true,
      "inputs": [],
      "name": "bidSize",
      "outputs": [
        {
          "internalType": "uint256",
          "name": "",
          "type": "uint256"
        }
      ],
      "payable": false,
      "stateMutability": "view",
      "type": "function"
    },
    {
      "constant": true,
      "inputs": [],
      "name": "name",
      "outputs": [
        {
          "internalType": "string",
          "name": "",
          "type": "string"
        }
      ],
      "payable": false,
      "stateMutability": "view",
      "type": "function"
    },
    {
      "constant": true,
      "inputs": [],
      "name": "numPosts",
      "outputs": [
        {
          "internalType": "uint256",
          "name": "",
          "type": "uint256"
        }
      ],
      "payable": false,
      "stateMutability": "view",
      "type": "function"
    },
    {
      "constant": true,
      "inputs": [],
      "name": "offer",
      "outputs": [
        {
          "internalType": "uint256",
          "name": "",
          "type": "uint256"
        }
      ],
      "payable": false,
      "stateMutability": "view",
      "type": "function"
    },
    {
      "constant": true,
      "inputs": [],
      "name": "offerSize",
      "outputs": [
        {
          "internalType": "uint256",
          "name": "",
          "type": "uint256"
        }
      ],
      "payable": false,
      "stateMutability": "view",
      "type": "function"
    },
    {
      "constant": true,
      "inputs": [],
      "name": "owner",
      "outputs": [
        {
          "internalType": "address payable",
          "name": "",
          "type": "address"
        }
      ],
      "payable": false,
      "stateMutability": "view",
      "type": "function"
    },
    {
      "constant": true,
      "inputs": [
        {
          "internalType": "uint256",
          "name": "",
          "type": "uint256"
        }
      ],
      "name": "posts",
      "outputs": [
        {
          "internalType": "uint256",
          "name": "id",
          "type": "uint256"
        },
        {
          "internalType": "string",
          "name": "content",
          "type": "string"
        },
        {
          "internalType": "uint256",
          "name": "likes",
          "type": "uint256"
        },
        {
          "internalType": "address payable",
          "name": "author",
          "type": "address"
        },
        {
          "internalType": "uint256",
          "name": "rewards",
          "type": "uint256"
        }
      ],
      "payable": false,
      "stateMutability": "view",
      "type": "function"
    },
    {
      "constant": false,
      "inputs": [],
      "name": "workForDrachma",
      "outputs": [],
      "payable": false,
      "stateMutability": "nonpayable",
      "type": "function"
    },
    {
      "constant": false,
      "inputs": [
        {
          "internalType": "address",
          "name": "_from",
          "type": "address"
        },
        {
          "internalType": "address",
          "name": "_to",
          "type": "address"
        },
        {
          "internalType": "uint256",
          "name": "_amount",
          "type": "uint256"
        }
      ],
      "name": "transferDrachma",
      "outputs": [],
      "payable": false,
      "stateMutability": "nonpayable",
      "type": "function"
    },
    {
      "constant": false,
      "inputs": [
        {
          "internalType": "string",
          "name": "_content",
          "type": "string"
        }
      ],
      "name": "createPost",
      "outputs": [],
      "payable": false,
      "stateMutability": "nonpayable",
      "type": "function"
    },
    {
      "constant": false,
      "inputs": [
        {
          "internalType": "string",
          "name": "_content",
          "type": "string"
        }
      ],
      "name": "newQuote",
      "outputs": [],
      "payable": false,
      "stateMutability": "nonpayable",
      "type": "function"
    },
    {
      "constant": false,
      "inputs": [
        {
          "internalType": "uint256",
          "name": "_id",
          "type": "uint256"
        }
      ],
      "name": "likePost",
      "outputs": [],
      "payable": false,
      "stateMutability": "nonpayable",
      "type": "function"
    },
    {
      "constant": false,
      "inputs": [
        {
          "internalType": "uint256",
          "name": "_id",
          "type": "uint256"
        }
      ],
      "name": "rewardPost",
      "outputs": [],
      "payable": true,
      "stateMutability": "payable",
      "type": "function"
    },
    {
      "constant": false,
      "inputs": [
        {
          "internalType": "uint256",
          "name": "_id",
          "type": "uint256"
        }
      ],
      "name": "rePost",
      "outputs": [],
      "payable": false,
      "stateMutability": "nonpayable",
      "type": "function"
    }
  ],
  "bytecode": "0x60806040523480156200001157600080fd5b506040518060400160405280600581526020017f41676f7261000000000000000000000000000000000000000000000000000000815250600090805190602001906200005f929190620000b7565b506005600281905550600a60048190555033600660006101000a81548173ffffffffffffffffffffffffffffffffffffffff021916908373ffffffffffffffffffffffffffffffffffffffff16021790555062000166565b828054600181600116156101000203166002900490600052602060002090601f016020900481019282601f10620000fa57805160ff19168380011785556200012b565b828001600101855582156200012b579182015b828111156200012a5782518255916020019190600101906200010d565b5b5090506200013a91906200013e565b5090565b6200016391905b808211156200015f57600081600090555060010162000145565b5090565b90565b61151b80620001766000396000f3fe6080604052600436106100f35760003560e01c80637d98fa111161008a578063c471b73711610059578063c471b73714610591578063c7303c61146105bf578063e9ded3ec14610687578063ec7331e9146106b2576100f3565b80637d98fa111461045957806386863c52146104945780638da5cb5b1461050f578063c028df0614610566576100f3565b80632b70c8fc116100c65780632b70c8fc1461031457806353e41a541461033f578063725009d3146104075780637750925214610442576100f3565b806306fdde03146100f85780630b1e7f83146101885780631998aeef1461028457806327e235e3146102af575b600080fd5b34801561010457600080fd5b5061010d6106dd565b6040518080602001828103825283818151815260200191508051906020019080838360005b8381101561014d578082015181840152602081019050610132565b50505050905090810190601f16801561017a5780820380516001836020036101000a031916815260200191505b509250505060405180910390f35b34801561019457600080fd5b506101c1600480360360208110156101ab57600080fd5b810190808035906020019092919050505061077b565b60405180868152602001806020018581526020018473ffffffffffffffffffffffffffffffffffffffff1673ffffffffffffffffffffffffffffffffffffffff168152602001838152602001828103825286818151815260200191508051906020019080838360005b8381101561024557808201518184015260208101905061022a565b50505050905090810190601f1680156102725780820380516001836020036101000a031916815260200191505b50965050505050505060405180910390f35b34801561029057600080fd5b50610299610869565b6040518082815260200191505060405180910390f35b3480156102bb57600080fd5b506102fe600480360360208110156102d257600080fd5b81019080803573ffffffffffffffffffffffffffffffffffffffff16906020019092919050505061086f565b6040518082815260200191505060405180910390f35b34801561032057600080fd5b50610329610887565b6040518082815260200191505060405180910390f35b34801561034b57600080fd5b506104056004803603602081101561036257600080fd5b810190808035906020019064010000000081111561037f57600080fd5b82018360208201111561039157600080fd5b803590602001918460018302840111640100000000831117156103b357600080fd5b91908080601f016020809104026020016040519081016040528093929190818152602001838380828437600081840152601f19601f82011690508083019250505050505050919291929050505061088d565b005b34801561041357600080fd5b506104406004803603602081101561042a57600080fd5b8101908080359060200190929190505050610ad2565b005b34801561044e57600080fd5b50610457610b16565b005b34801561046557600080fd5b506104926004803603602081101561047c57600080fd5b8101908080359060200190929190505050610b66565b005b3480156104a057600080fd5b5061050d600480360360608110156104b757600080fd5b81019080803573ffffffffffffffffffffffffffffffffffffffff169060200190929190803573ffffffffffffffffffffffffffffffffffffffff16906020019092919080359060200190929190505050610c41565b005b34801561051b57600080fd5b50610524610ce0565b604051808273ffffffffffffffffffffffffffffffffffffffff1673ffffffffffffffffffffffffffffffffffffffff16815260200191505060405180910390f35b34801561057257600080fd5b5061057b610d06565b6040518082815260200191505060405180910390f35b6105bd600480360360208110156105a757600080fd5b8101908080359060200190929190505050610d0c565b005b3480156105cb57600080fd5b50610685600480360360208110156105e257600080fd5b81019080803590602001906401000000008111156105ff57600080fd5b82018360208201111561061157600080fd5b8035906020019184600183028401116401000000008311171561063357600080fd5b91908080601f016020809104026020016040519081016040528093929190818152602001838380828437600081840152601f19601f820116905080830192505050505050509192919290505050610f86565b005b34801561069357600080fd5b5061069c61109b565b6040518082815260200191505060405180910390f35b3480156106be57600080fd5b506106c76110a1565b6040518082815260200191505060405180910390f35b60008054600181600116156101000203166002900480601f0160208091040260200160405190810160405280929190818152602001828054600181600116156101000203166002900480156107735780601f1061074857610100808354040283529160200191610773565b820191906000526020600020905b81548152906001019060200180831161075657829003601f168201915b505050505081565b6007602052806000526040600020600091509050806000015490806001018054600181600116156101000203166002900480601f01602080910402602001604051908101604052809291908181526020018280546001816001161561010002031660029004801561082d5780601f106108025761010080835404028352916020019161082d565b820191906000526020600020905b81548152906001019060200180831161081057829003601f168201915b5050505050908060020154908060030160009054906101000a900473ffffffffffffffffffffffffffffffffffffffff16908060040154905085565b60025481565b60086020528060005260406000206000915090505481565b60035481565b6108956113e2565b61089e826110a7565b90506108f06108e16040518060400160405280600481526020017f4249443a000000000000000000000000000000000000000000000000000000008152506110a7565b826110d590919063ffffffff16565b156109c35760036000815480929190600101919050555061090f6113e2565b61095f6109506040518060400160405280600181526020017f3a000000000000000000000000000000000000000000000000000000000000008152506110a7565b8361112e90919063ffffffff16565b9050606061096c83611148565b90506000610979826111aa565b905060025481106109bb57806002819055506109ba33600660009054906101000a900473ffffffffffffffffffffffffffffffffffffffff16600254610c41565b5b505050610acd565b610a13610a046040518060400160405280600681526020017f4f464645523a00000000000000000000000000000000000000000000000000008152506110a7565b826110d590919063ffffffff16565b15610ac657600560008154809291906001019190505550610a326113e2565b610a82610a736040518060400160405280600181526020017f3a000000000000000000000000000000000000000000000000000000000000008152506110a7565b8361112e90919063ffffffff16565b90506060610a8f83611148565b9050610a9a816111aa565b6004819055506000610aab826111aa565b90506004548111610abe57806004819055505b505050610acc565b50610acf565b5b505b50565b600081118015610ae457506001548111155b610aed57600080fd5b600760008281526020019081526020016000206002016000815480929190600101919050555050565b6032600860003373ffffffffffffffffffffffffffffffffffffffff1673ffffffffffffffffffffffffffffffffffffffff16815260200190815260200160002060008282540192505081905550565b600081118015610b7857506001548111155b610b8157600080fd5b6060600760008381526020019081526020016000206001018054600181600116156101000203166002900480601f016020809104026020016040519081016040528092919081815260200182805460018160011615610100020316600290048015610c2d5780601f10610c0257610100808354040283529160200191610c2d565b820191906000526020600020905b815481529060010190602001808311610c1057829003601f168201915b50505050509050610c3d81610f86565b5050565b80600860008573ffffffffffffffffffffffffffffffffffffffff1673ffffffffffffffffffffffffffffffffffffffff1681526020019081526020016000206000828254039250508190555080600860008473ffffffffffffffffffffffffffffffffffffffff1673ffffffffffffffffffffffffffffffffffffffff16815260200190815260200160002060008282540192505081905550505050565b600660009054906101000a900473ffffffffffffffffffffffffffffffffffffffff1681565b60045481565b600081118015610d1e57506001548111155b610d2757600080fd5b343373ffffffffffffffffffffffffffffffffffffffff163111610d4a57600080fd5b610d526113fc565b600760008381526020019081526020016000206040518060a001604052908160008201548152602001600182018054600181600116156101000203166002900480601f016020809104026020016040519081016040528092919081815260200182805460018160011615610100020316600290048015610e135780601f10610de857610100808354040283529160200191610e13565b820191906000526020600020905b815481529060010190602001808311610df657829003601f168201915b50505050508152602001600282015481526020016003820160009054906101000a900473ffffffffffffffffffffffffffffffffffffffff1673ffffffffffffffffffffffffffffffffffffffff1673ffffffffffffffffffffffffffffffffffffffff16815260200160048201548152505090506000816060015190508073ffffffffffffffffffffffffffffffffffffffff166108fc349081150290604051600060405180830381858888f19350505050158015610ed7573d6000803e3d6000fd5b50348260800181815101915081815250508160076000858152602001908152602001600020600082015181600001556020820151816001019080519060200190610f22929190611441565b506040820151816002015560608201518160030160006101000a81548173ffffffffffffffffffffffffffffffffffffffff021916908373ffffffffffffffffffffffffffffffffffffffff16021790555060808201518160040155905050505050565b60008151118015610f9957506102308151105b610fa257600080fd5b6001600081548092919060010191905055506040518060a001604052806001548152602001828152602001600081526020013373ffffffffffffffffffffffffffffffffffffffff1681526020016000815250600760006001548152602001908152602001600020600082015181600001556020820151816001019080519060200190611030929190611441565b506040820151816002015560608201518160030160006101000a81548173ffffffffffffffffffffffffffffffffffffffff021916908373ffffffffffffffffffffffffffffffffffffffff160217905550608082015181600401559050506110988161088d565b50565b60055481565b60015481565b6110af6113e2565b600060208301905060405180604001604052808451815260200182815250915050919050565b60008160000151836000015110156110f05760009050611128565b8160200151836020015114156111095760019050611128565b6000825160208501516020850151828120838320149350505050809150505b92915050565b6111366113e2565b611141838383611220565b5092915050565b60608082600001516040519080825280601f01601f1916602001820160405280156111825781602001600182028038833980820191505090505b50905060006020820190506111a081856020015186600001516112be565b8192505050919050565b600060608290506000809250600090505b81518110156112165760008282815181106111d257fe5b602001015160f81c60f81b60f81c60ff169050603081101580156111f7575060398111155b156112085760308103600a85020193505b5080806001019150506111bb565b8292505050919050565b6112286113e2565b60006112468560000151866020015186600001518760200151611307565b905084602001518360200181815250508460200151810383600001818152505084600001518560200151018114156112885760008560000181815250506112b3565b8360000151836000015101856000018181510391508181525050836000015181018560200181815250505b829150509392505050565b5b602081106112e257815183526020830192506020820191506020810390506112bf565b60006001826020036101000a0390508019835116818551168181178652505050505050565b60008084905060008685116113d2576020851161138c57600060018660200360080260020a031960001b905060008186511690506000878a8a0103905060008386511690505b82811461137e5781861061136b578a8a0196505050505050506113da565b858060010196505083865116905061134d565b8596505050505050506113da565b60008585209050600091505b85880382116113d05760008684209050808214156113bc57839450505050506113da565b600184019350508180600101925050611398565b505b868601925050505b949350505050565b604051806040016040528060008152602001600081525090565b6040518060a00160405280600081526020016060815260200160008152602001600073ffffffffffffffffffffffffffffffffffffffff168152602001600081525090565b828054600181600116156101000203166002900490600052602060002090601f016020900481019282601f1061148257805160ff19168380011785556114b0565b828001600101855582156114b0579182015b828111156114af578251825591602001919060010190611494565b5b5090506114bd91906114c1565b5090565b6114e391905b808211156114df5760008160009055506001016114c7565b5090565b9056fea265627a7a723158207611c829c1964ff5762b55ee05b7d0c7d005fb24e5cab5386020901dbd2b4e0964736f6c63430005100032",
  "source": "pragma solidity ^0.5.0;\n\n/* To run a demo on truffle console:\n\tSocialNetwork.deployed().then(function(a) {app=a})\n\tapp.workForDrachma().then(function(i) {i=i})\n\tweb3.eth.getAccounts()\n\tapp.transferDrachma().then(function(i) {i=i})\n\tapp.balances().then(function(b) {balance=b})\n\tbalance.toNumber()\n\tapp.owner().then(function(o) {owner=o})\n\towner\n\tweb3.eth.getAccounts()\n\tweb3.eth.getBalance()\n\tapp.createPost(\"BID:6\", {from: })\n\tapp.bid().then(function(b) {bid=b})\n\tbid.toNumber()\n\tapp.bidSize().then(function(b) {bidSize=b})\n\tbidSize.toNumber()\n\tapp.createPost(\"OFFER:9\")\n\tapp.offerSize().then(function(o) {offerSize=o})\n\tofferSize.toNumber()\n\tapp.posts(1).then(function(p) {posts=p})\n\tposts[0].toNumber()\n\tposts[1]\n\tposts[2].toNumber()\n\tposts[3]\n\tposts[4].toNumber()\n\tapp.rewardPost(1, {value: 2})\n\tweb3.eth.getAccounts()\n\tapp.rePost(1)\n*/\n\nimport {strings} from \"strings.sol\";\n\ncontract SocialNetwork {\n\tusing strings for *;\n\n\tstring public name;\n\tuint public numPosts;\n\tuint public bid;\n\tuint public bidSize;\n\tuint public offer;\n\tuint public offerSize;\n\taddress payable public owner;\n\tmapping(uint => Post) public posts;\n\tmapping(address => uint) public balances;\n\n\tstruct Post {\n\t\tuint id;\n\t\tstring content;\n\t\tuint likes;\n\t\taddress payable author;\n\t\tuint rewards;\n\t}\n\n\tconstructor() public {\n\t\tname = \"Agora\";\n\t\tbid = 5;\n\t\toffer = 10;\n\t\towner = msg.sender;\n\t}\n\n\n\tfunction workForDrachma() public {\n\t\t// Increases balance of address\n\t\tbalances[msg.sender] += 50;\n\t}\n\n\tfunction transferDrachma(address _from, address _to, uint _amount) public {\n\t\tbalances[_from] -= _amount;\n\t\tbalances[_to] += _amount;\n\t}\n\n\tfunction createPost(string memory _content) public {\n\t\t// Require content to be longer than 0 bytes and shorter than 560 bytes\n\t\trequire(bytes(_content).length > 0 && bytes(_content).length < 560);\n\n\t\t// Increment num posts\n\t\tnumPosts ++;\n\n\t\t// Store post in mapping\n\t\tposts[numPosts] = Post(numPosts, _content, 0, msg.sender, 0);\n\n\t\t// Check if it's a quote\n\t\tnewQuote(_content);\n\t}\n\n\tfunction newQuote(string memory _content) public {\n\t\tstrings.slice memory slice = _content.toSlice();\n\t\tif (slice.startsWith(\"BID:\".toSlice())) {\n\t\t\t// All bids should increment bidSize\n\t\t\tbidSize ++;\n\t\t\t\n\t\t\t// Use imported strings library to help with string util functions\n\t\t\tstrings.slice memory _ = slice.split(\":\".toSlice());\n\t\t\tstring memory order = slice.toString();\n\n\t\t\t// Convert string to uint so we can compare it to market bid\n\t\t\tuint newBid = stringToUint(order);\n\t\t\tif (newBid >= bid) {\n\t\t\t\t// Market bid should always reflect currently best(highest) bid\n\t\t\t\tbid = newBid;\n\n\t\t\t\t// Transfer money to current owner\n\t\t\t\ttransferDrachma(msg.sender, owner, bid);\n\t\t\t}\n\t\t}\n\n\t\telse if (slice.startsWith(\"OFFER:\".toSlice())) {\n\t\t\t// All offers should increment offerSize\n\t\t\tofferSize ++;\n\n\t\t\t// Use imported strings library to help with string util functons\n\t\t\tstrings.slice memory _ = slice.split(\":\".toSlice());\n\t\t\tstring memory order = slice.toString();\n\n\t\t\t// Convert string to uint\n\t\t\toffer = stringToUint(order);\n\n\t\t\t// Market offer should always reflect currently best(lowest) offer\n\t\t\tuint newOffer = stringToUint(order);\n\t\t\tif (newOffer <= offer) {\n\t\t\t\toffer = newOffer;\n\t\t\t}\n\t\t}\n\n\t\telse {\n\t\t\treturn;\n\t\t}\n\t}\n\n\tfunction stringToUint(string memory s) internal returns (uint result) {\n\t\tbytes memory b = bytes(s);\n\t\tuint i;\n\t\tresult = 0;\n\t\tfor (i = 0; i < b.length; i++) {\n\t\t\tuint c = uint(uint8(b[i]));\n\t\t\tif (c >= 48 && c <= 57) {\n\t\t\t\tresult = result * 10 + (c - 48);\n\t\t\t}\n\t\t}\n\n\t\treturn result;\n\t}\n\n\tfunction likePost(uint _id) public {\n\t\t// Require id to be greater than 0 and smaller than num posts\n\t\trequire(_id > 0 && _id <= numPosts);\n\n\t\t// Increment the number of likes\n\t\tposts[_id].likes ++;\n\t}\n\n\tfunction rewardPost(uint _id) public payable {\n\t\t// Require id to be greater than 0 and smaller than num posts\n\t\trequire(_id > 0 && _id <= numPosts);\n\n\t\t// Require sufficient balance\n\t\trequire(address(msg.sender).balance > msg.value);\n\n\t\t// Get post\n\t\tPost memory _post = posts[_id];\n\n\t\t// Get author of post\n\t\taddress payable _author = _post.author;\n\n\t\t// Pay author of post\n\t\taddress(_author).transfer(msg.value);\n\n\t\t// Increment post reward\n\t\t_post.rewards += msg.value;\n\n\t\t// Update the post\n\t\tposts[_id] = _post;\n\t}\n\n\tfunction rePost(uint _id) public {\n\t\t// Require id to be greater than 0 and smaller than num posts\n\t\trequire(_id > 0 && _id <= numPosts);\n\n\t\t// Get content of post\n\t\tstring memory _content = posts[_id].content;\n\n\t\t// Repost same content but with current user\n\t\tcreatePost(_content);\n\t}\n}",
  "sourcePath": "/Users/aidenchia/Desktop/dapp/contracts/SocialNetwork.sol",
  "compiler": {
    "name": "solc",
    "version": "0.5.16+commit.9c3226ce.Emscripten.clang"
  },
  "schemaVersion": "3.0.23",
  "updatedAt": "2020-04-10T07:49:33.737Z",
  "networkType": "ethereum",
  "devdoc": {
    "methods": {}
  },
  "userdoc": {
    "methods": {}
  }
}