{
  "contractName": "SocialNetwork",
  "abi": [
    {
      "inputs": [],
      "payable": false,
      "stateMutability": "nonpayable",
      "type": "constructor"
    },
    {
      "constant": true,
      "inputs": [],
      "name": "bid",
      "outputs": [
        {
          "internalType": "string",
          "name": "",
          "type": "string"
        }
      ],
      "payable": false,
      "stateMutability": "view",
      "type": "function"
    },
    {
      "constant": true,
      "inputs": [],
      "name": "bidSize",
      "outputs": [
        {
          "internalType": "uint256",
          "name": "",
          "type": "uint256"
        }
      ],
      "payable": false,
      "stateMutability": "view",
      "type": "function"
    },
    {
      "constant": true,
      "inputs": [],
      "name": "name",
      "outputs": [
        {
          "internalType": "string",
          "name": "",
          "type": "string"
        }
      ],
      "payable": false,
      "stateMutability": "view",
      "type": "function"
    },
    {
      "constant": true,
      "inputs": [],
      "name": "numPosts",
      "outputs": [
        {
          "internalType": "uint256",
          "name": "",
          "type": "uint256"
        }
      ],
      "payable": false,
      "stateMutability": "view",
      "type": "function"
    },
    {
      "constant": true,
      "inputs": [],
      "name": "offer",
      "outputs": [
        {
          "internalType": "string",
          "name": "",
          "type": "string"
        }
      ],
      "payable": false,
      "stateMutability": "view",
      "type": "function"
    },
    {
      "constant": true,
      "inputs": [],
      "name": "offerSize",
      "outputs": [
        {
          "internalType": "uint256",
          "name": "",
          "type": "uint256"
        }
      ],
      "payable": false,
      "stateMutability": "view",
      "type": "function"
    },
    {
      "constant": true,
      "inputs": [
        {
          "internalType": "uint256",
          "name": "",
          "type": "uint256"
        }
      ],
      "name": "posts",
      "outputs": [
        {
          "internalType": "uint256",
          "name": "id",
          "type": "uint256"
        },
        {
          "internalType": "string",
          "name": "content",
          "type": "string"
        },
        {
          "internalType": "uint256",
          "name": "likes",
          "type": "uint256"
        },
        {
          "internalType": "address payable",
          "name": "author",
          "type": "address"
        },
        {
          "internalType": "uint256",
          "name": "rewards",
          "type": "uint256"
        }
      ],
      "payable": false,
      "stateMutability": "view",
      "type": "function"
    },
    {
      "constant": false,
      "inputs": [
        {
          "internalType": "string",
          "name": "_content",
          "type": "string"
        }
      ],
      "name": "createPost",
      "outputs": [],
      "payable": false,
      "stateMutability": "nonpayable",
      "type": "function"
    },
    {
      "constant": false,
      "inputs": [
        {
          "internalType": "string",
          "name": "_content",
          "type": "string"
        }
      ],
      "name": "newQuote",
      "outputs": [],
      "payable": false,
      "stateMutability": "nonpayable",
      "type": "function"
    },
    {
      "constant": false,
      "inputs": [
        {
          "internalType": "uint256",
          "name": "_id",
          "type": "uint256"
        }
      ],
      "name": "likePost",
      "outputs": [],
      "payable": false,
      "stateMutability": "nonpayable",
      "type": "function"
    },
    {
      "constant": false,
      "inputs": [
        {
          "internalType": "uint256",
          "name": "_id",
          "type": "uint256"
        }
      ],
      "name": "rewardPost",
      "outputs": [],
      "payable": true,
      "stateMutability": "payable",
      "type": "function"
    },
    {
      "constant": false,
      "inputs": [
        {
          "internalType": "uint256",
          "name": "_id",
          "type": "uint256"
        }
      ],
      "name": "rePost",
      "outputs": [],
      "payable": false,
      "stateMutability": "nonpayable",
      "type": "function"
    }
  ],
  "bytecode": "0x60806040523480156200001157600080fd5b506040518060400160405280601681526020017f4477697474657220536f6369616c204e6574776f726b00000000000000000000815250600090805190602001906200005f92919062000066565b5062000115565b828054600181600116156101000203166002900490600052602060002090601f016020900481019282601f10620000a957805160ff1916838001178555620000da565b82800160010185558215620000da579182015b82811115620000d9578251825591602001919060010190620000bc565b5b509050620000e99190620000ed565b5090565b6200011291905b808211156200010e576000816000905550600101620000f4565b5090565b90565b61135c80620001256000396000f3fe6080604052600436106100a75760003560e01c80637d98fa11116100645780637d98fa11146103f6578063c028df0614610431578063c471b737146104c1578063c7303c61146104ef578063e9ded3ec146105b7578063ec7331e9146105e2576100a7565b806306fdde03146100ac5780630b1e7f831461013c5780631998aeef146102385780632b70c8fc146102c857806353e41a54146102f3578063725009d3146103bb575b600080fd5b3480156100b857600080fd5b506100c161060d565b6040518080602001828103825283818151815260200191508051906020019080838360005b838110156101015780820151818401526020810190506100e6565b50505050905090810190601f16801561012e5780820380516001836020036101000a031916815260200191505b509250505060405180910390f35b34801561014857600080fd5b506101756004803603602081101561015f57600080fd5b81019080803590602001909291905050506106ab565b60405180868152602001806020018581526020018473ffffffffffffffffffffffffffffffffffffffff1673ffffffffffffffffffffffffffffffffffffffff168152602001838152602001828103825286818151815260200191508051906020019080838360005b838110156101f95780820151818401526020810190506101de565b50505050905090810190601f1680156102265780820380516001836020036101000a031916815260200191505b50965050505050505060405180910390f35b34801561024457600080fd5b5061024d610799565b6040518080602001828103825283818151815260200191508051906020019080838360005b8381101561028d578082015181840152602081019050610272565b50505050905090810190601f1680156102ba5780820380516001836020036101000a031916815260200191505b509250505060405180910390f35b3480156102d457600080fd5b506102dd610837565b6040518082815260200191505060405180910390f35b3480156102ff57600080fd5b506103b96004803603602081101561031657600080fd5b810190808035906020019064010000000081111561033357600080fd5b82018360208201111561034557600080fd5b8035906020019184600183028401116401000000008311171561036757600080fd5b91908080601f016020809104026020016040519081016040528093929190818152602001838380828437600081840152601f19601f82011690508083019250505050505050919291929050505061083d565b005b3480156103c757600080fd5b506103f4600480360360208110156103de57600080fd5b8101908080359060200190929190505050610a06565b005b34801561040257600080fd5b5061042f6004803603602081101561041957600080fd5b8101908080359060200190929190505050610a4a565b005b34801561043d57600080fd5b50610446610b25565b6040518080602001828103825283818151815260200191508051906020019080838360005b8381101561048657808201518184015260208101905061046b565b50505050905090810190601f1680156104b35780820380516001836020036101000a031916815260200191505b509250505060405180910390f35b6104ed600480360360208110156104d757600080fd5b8101908080359060200190929190505050610bc3565b005b3480156104fb57600080fd5b506105b56004803603602081101561051257600080fd5b810190808035906020019064010000000081111561052f57600080fd5b82018360208201111561054157600080fd5b8035906020019184600183028401116401000000008311171561056357600080fd5b91908080601f016020809104026020016040519081016040528093929190818152602001838380828437600081840152601f19601f820116905080830192505050505050509192919290505050610e3d565b005b3480156105c357600080fd5b506105cc610f52565b6040518082815260200191505060405180910390f35b3480156105ee57600080fd5b506105f7610f58565b6040518082815260200191505060405180910390f35b60008054600181600116156101000203166002900480601f0160208091040260200160405190810160405280929190818152602001828054600181600116156101000203166002900480156106a35780601f10610678576101008083540402835291602001916106a3565b820191906000526020600020905b81548152906001019060200180831161068657829003601f168201915b505050505081565b6006602052806000526040600020600091509050806000015490806001018054600181600116156101000203166002900480601f01602080910402602001604051908101604052809291908181526020018280546001816001161561010002031660029004801561075d5780601f106107325761010080835404028352916020019161075d565b820191906000526020600020905b81548152906001019060200180831161074057829003601f168201915b5050505050908060020154908060030160009054906101000a900473ffffffffffffffffffffffffffffffffffffffff16908060040154905085565b60028054600181600116156101000203166002900480601f01602080910402602001604051908101604052809291908181526020018280546001816001161561010002031660029004801561082f5780601f106108045761010080835404028352916020019161082f565b820191906000526020600020905b81548152906001019060200180831161081257829003601f168201915b505050505081565b60035481565b610845611223565b61084e82610f5e565b90506108a06108916040518060400160405280600481526020017f4249443a00000000000000000000000000000000000000000000000000000000815250610f5e565b82610f8c90919063ffffffff16565b15610925576003600081548092919060010191905055506108bf611223565b61090f6109006040518060400160405280600181526020017f3a00000000000000000000000000000000000000000000000000000000000000815250610f5e565b83610fe590919063ffffffff16565b9050606061091c83610fff565b90505050610a01565b6109756109666040518060400160405280600681526020017f4f464645523a0000000000000000000000000000000000000000000000000000815250610f5e565b82610f8c90919063ffffffff16565b156109fa57600560008154809291906001019190505550610994611223565b6109e46109d56040518060400160405280600181526020017f3a00000000000000000000000000000000000000000000000000000000000000815250610f5e565b83610fe590919063ffffffff16565b905060606109f183610fff565b90505050610a00565b50610a03565b5b505b50565b600081118015610a1857506001548111155b610a2157600080fd5b600660008281526020019081526020016000206002016000815480929190600101919050555050565b600081118015610a5c57506001548111155b610a6557600080fd5b6060600660008381526020019081526020016000206001018054600181600116156101000203166002900480601f016020809104026020016040519081016040528092919081815260200182805460018160011615610100020316600290048015610b115780601f10610ae657610100808354040283529160200191610b11565b820191906000526020600020905b815481529060010190602001808311610af457829003601f168201915b50505050509050610b2181610e3d565b5050565b60048054600181600116156101000203166002900480601f016020809104026020016040519081016040528092919081815260200182805460018160011615610100020316600290048015610bbb5780601f10610b9057610100808354040283529160200191610bbb565b820191906000526020600020905b815481529060010190602001808311610b9e57829003601f168201915b505050505081565b600081118015610bd557506001548111155b610bde57600080fd5b343373ffffffffffffffffffffffffffffffffffffffff163111610c0157600080fd5b610c0961123d565b600660008381526020019081526020016000206040518060a001604052908160008201548152602001600182018054600181600116156101000203166002900480601f016020809104026020016040519081016040528092919081815260200182805460018160011615610100020316600290048015610cca5780601f10610c9f57610100808354040283529160200191610cca565b820191906000526020600020905b815481529060010190602001808311610cad57829003601f168201915b50505050508152602001600282015481526020016003820160009054906101000a900473ffffffffffffffffffffffffffffffffffffffff1673ffffffffffffffffffffffffffffffffffffffff1673ffffffffffffffffffffffffffffffffffffffff16815260200160048201548152505090506000816060015190508073ffffffffffffffffffffffffffffffffffffffff166108fc349081150290604051600060405180830381858888f19350505050158015610d8e573d6000803e3d6000fd5b50348260800181815101915081815250508160066000858152602001908152602001600020600082015181600001556020820151816001019080519060200190610dd9929190611282565b506040820151816002015560608201518160030160006101000a81548173ffffffffffffffffffffffffffffffffffffffff021916908373ffffffffffffffffffffffffffffffffffffffff16021790555060808201518160040155905050505050565b60008151118015610e5057506102308151105b610e5957600080fd5b6001600081548092919060010191905055506040518060a001604052806001548152602001828152602001600081526020013373ffffffffffffffffffffffffffffffffffffffff1681526020016000815250600660006001548152602001908152602001600020600082015181600001556020820151816001019080519060200190610ee7929190611282565b506040820151816002015560608201518160030160006101000a81548173ffffffffffffffffffffffffffffffffffffffff021916908373ffffffffffffffffffffffffffffffffffffffff16021790555060808201518160040155905050610f4f8161083d565b50565b60055481565b60015481565b610f66611223565b600060208301905060405180604001604052808451815260200182815250915050919050565b6000816000015183600001511015610fa75760009050610fdf565b816020015183602001511415610fc05760019050610fdf565b6000825160208501516020850151828120838320149350505050809150505b92915050565b610fed611223565b610ff8838383611061565b5092915050565b60608082600001516040519080825280601f01601f1916602001820160405280156110395781602001600182028038833980820191505090505b509050600060208201905061105781856020015186600001516110ff565b8192505050919050565b611069611223565b60006110878560000151866020015186600001518760200151611148565b905084602001518360200181815250508460200151810383600001818152505084600001518560200151018114156110c95760008560000181815250506110f4565b8360000151836000015101856000018181510391508181525050836000015181018560200181815250505b829150509392505050565b5b602081106111235781518352602083019250602082019150602081039050611100565b60006001826020036101000a0390508019835116818551168181178652505050505050565b600080849050600086851161121357602085116111cd57600060018660200360080260020a031960001b905060008186511690506000878a8a0103905060008386511690505b8281146111bf578186106111ac578a8a01965050505050505061121b565b858060010196505083865116905061118e565b85965050505050505061121b565b60008585209050600091505b85880382116112115760008684209050808214156111fd578394505050505061121b565b6001840193505081806001019250506111d9565b505b868601925050505b949350505050565b604051806040016040528060008152602001600081525090565b6040518060a00160405280600081526020016060815260200160008152602001600073ffffffffffffffffffffffffffffffffffffffff168152602001600081525090565b828054600181600116156101000203166002900490600052602060002090601f016020900481019282601f106112c357805160ff19168380011785556112f1565b828001600101855582156112f1579182015b828111156112f05782518255916020019190600101906112d5565b5b5090506112fe9190611302565b5090565b61132491905b80821115611320576000816000905550600101611308565b5090565b9056fea265627a7a7231582071183087d9a1a4afcd74af3bd7d5dc61c54621c354d5bc0068ee84b4e4db89bf64736f6c63430005100032",
  "source": "pragma solidity ^0.5.0;\n\n/* To run a demo on truffle console:\n\tSocialNetwork.deployed().then(function(a) {app=a})\n\tapp.createPost(\"BID:4\")\n\tapp.bidSize().then(function(b) {bidSize=b})\n\tbidSize.toNumber()\n\tapp.posts(1).then(function(p) {posts=p})\n\tposts[0].toNumber()\n\tposts[1]\n\tposts[2].toNumber()\n\tposts[3]\n\tposts[4].toNumber()\n\tapp.rewardPost(1, {value: 2})\n\tweb3.eth.getAccounts()\n\tapp.rePost(1)\n*/\n\nimport {strings} from \"strings.sol\";\n\ncontract SocialNetwork {\n\tusing strings for *;\n\n\tstring public name;\n\tuint public numPosts;\n\tstring public bid;\n\tuint public bidSize;\n\tstring public offer;\n\tuint public offerSize;\n\tmapping(uint => Post) public posts;\n\n\tstruct Post {\n\t\tuint id;\n\t\tstring content;\n\t\tuint likes;\n\t\taddress payable author;\n\t\tuint rewards;\n\t}\n\n\tconstructor() public {\n\t\tname = \"Dwitter Social Network\";\n\t}\n\n\tfunction createPost(string memory _content) public {\n\t\t// Require content to be longer than 0 bytes and shorter than 560 bytes\n\t\trequire(bytes(_content).length > 0 && bytes(_content).length < 560);\n\n\t\t// Increment num posts\n\t\tnumPosts ++;\n\n\t\t// Store post in mapping\n\t\tposts[numPosts] = Post(numPosts, _content, 0, msg.sender, 0);\n\n\t\t// Check if it's a quote\n\t\tnewQuote(_content);\n\t}\n\n\tfunction newQuote(string memory _content) public {\n\t\tstrings.slice memory slice = _content.toSlice();\n\t\tif (slice.startsWith(\"BID:\".toSlice())) {\n\t\t\tbidSize ++;\n\t\t\tstrings.slice memory _ = slice.split(\":\".toSlice());\n\t\t\tstring memory order = slice.toString();\n\t\t}\n\n\t\telse if (slice.startsWith(\"OFFER:\".toSlice())) {\n\t\t\tofferSize ++;\n\t\t\tstrings.slice memory _ = slice.split(\":\".toSlice());\n\t\t\tstring memory order = slice.toString();\n\t\t}\n\n\t\telse {\n\t\t\treturn;\n\t\t}\n\t}\n\n\n\tfunction likePost(uint _id) public {\n\t\t// Require id to be greater than 0 and smaller than num posts\n\t\trequire(_id > 0 && _id <= numPosts);\n\n\t\t// Increment the number of likes\n\t\tposts[_id].likes ++;\n\t}\n\n\tfunction rewardPost(uint _id) public payable {\n\t\t// Require id to be greater than 0 and smaller than num posts\n\t\trequire(_id > 0 && _id <= numPosts);\n\n\t\t// Require sufficient balance\n\t\trequire(address(msg.sender).balance > msg.value);\n\n\t\t// Get post\n\t\tPost memory _post = posts[_id];\n\n\t\t// Get author of post\n\t\taddress payable _author = _post.author;\n\n\t\t// Pay author of post\n\t\taddress(_author).transfer(msg.value);\n\n\t\t// Increment post reward\n\t\t_post.rewards += msg.value;\n\n\t\t// Update the post\n\t\tposts[_id] = _post;\n\t}\n\n\tfunction rePost(uint _id) public {\n\t\t// Require id to be greater than 0 and smaller than num posts\n\t\trequire(_id > 0 && _id <= numPosts);\n\n\t\t// Get content of post\n\t\tstring memory _content = posts[_id].content;\n\n\t\t// Repost same content but with current user\n\t\tcreatePost(_content);\n\t}\n}",
  "sourcePath": "/Users/aidenchia/Desktop/dapp/contracts/SocialNetwork.sol",
  "compiler": {
    "name": "solc",
    "version": "0.5.16+commit.9c3226ce.Emscripten.clang"
  },
  "schemaVersion": "3.0.23",
  "updatedAt": "2020-04-09T18:39:06.478Z",
  "networkType": "ethereum",
  "devdoc": {
    "methods": {}
  },
  "userdoc": {
    "methods": {}
  }
}