{
  "contractName": "SocialNetwork",
  "abi": [
    {
      "inputs": [],
      "payable": false,
      "stateMutability": "nonpayable",
      "type": "constructor"
    },
    {
      "constant": true,
      "inputs": [],
      "name": "bid",
      "outputs": [
        {
          "internalType": "uint256",
          "name": "",
          "type": "uint256"
        }
      ],
      "payable": false,
      "stateMutability": "view",
      "type": "function"
    },
    {
      "constant": true,
      "inputs": [],
      "name": "bidSize",
      "outputs": [
        {
          "internalType": "uint256",
          "name": "",
          "type": "uint256"
        }
      ],
      "payable": false,
      "stateMutability": "view",
      "type": "function"
    },
    {
      "constant": true,
      "inputs": [],
      "name": "name",
      "outputs": [
        {
          "internalType": "string",
          "name": "",
          "type": "string"
        }
      ],
      "payable": false,
      "stateMutability": "view",
      "type": "function"
    },
    {
      "constant": true,
      "inputs": [],
      "name": "numPosts",
      "outputs": [
        {
          "internalType": "uint256",
          "name": "",
          "type": "uint256"
        }
      ],
      "payable": false,
      "stateMutability": "view",
      "type": "function"
    },
    {
      "constant": true,
      "inputs": [],
      "name": "offer",
      "outputs": [
        {
          "internalType": "uint256",
          "name": "",
          "type": "uint256"
        }
      ],
      "payable": false,
      "stateMutability": "view",
      "type": "function"
    },
    {
      "constant": true,
      "inputs": [],
      "name": "offerSize",
      "outputs": [
        {
          "internalType": "uint256",
          "name": "",
          "type": "uint256"
        }
      ],
      "payable": false,
      "stateMutability": "view",
      "type": "function"
    },
    {
      "constant": true,
      "inputs": [],
      "name": "owner",
      "outputs": [
        {
          "internalType": "address payable",
          "name": "",
          "type": "address"
        }
      ],
      "payable": false,
      "stateMutability": "view",
      "type": "function"
    },
    {
      "constant": true,
      "inputs": [
        {
          "internalType": "uint256",
          "name": "",
          "type": "uint256"
        }
      ],
      "name": "posts",
      "outputs": [
        {
          "internalType": "uint256",
          "name": "id",
          "type": "uint256"
        },
        {
          "internalType": "string",
          "name": "content",
          "type": "string"
        },
        {
          "internalType": "uint256",
          "name": "likes",
          "type": "uint256"
        },
        {
          "internalType": "address payable",
          "name": "author",
          "type": "address"
        },
        {
          "internalType": "uint256",
          "name": "rewards",
          "type": "uint256"
        }
      ],
      "payable": false,
      "stateMutability": "view",
      "type": "function"
    },
    {
      "constant": false,
      "inputs": [
        {
          "internalType": "string",
          "name": "_content",
          "type": "string"
        }
      ],
      "name": "createPost",
      "outputs": [],
      "payable": false,
      "stateMutability": "nonpayable",
      "type": "function"
    },
    {
      "constant": false,
      "inputs": [
        {
          "internalType": "string",
          "name": "_content",
          "type": "string"
        }
      ],
      "name": "newQuote",
      "outputs": [],
      "payable": true,
      "stateMutability": "payable",
      "type": "function"
    },
    {
      "constant": false,
      "inputs": [
        {
          "internalType": "uint256",
          "name": "_id",
          "type": "uint256"
        }
      ],
      "name": "likePost",
      "outputs": [],
      "payable": false,
      "stateMutability": "nonpayable",
      "type": "function"
    },
    {
      "constant": false,
      "inputs": [
        {
          "internalType": "uint256",
          "name": "_id",
          "type": "uint256"
        }
      ],
      "name": "rewardPost",
      "outputs": [],
      "payable": true,
      "stateMutability": "payable",
      "type": "function"
    },
    {
      "constant": false,
      "inputs": [
        {
          "internalType": "uint256",
          "name": "_id",
          "type": "uint256"
        }
      ],
      "name": "rePost",
      "outputs": [],
      "payable": false,
      "stateMutability": "nonpayable",
      "type": "function"
    }
  ],
  "bytecode": "0x60806040523480156200001157600080fd5b506040518060400160405280600581526020017f41676f7261000000000000000000000000000000000000000000000000000000815250600090805190602001906200005f929190620000b7565b506005600281905550600a60048190555033600660006101000a81548173ffffffffffffffffffffffffffffffffffffffff021916908373ffffffffffffffffffffffffffffffffffffffff16021790555062000166565b828054600181600116156101000203166002900490600052602060002090601f016020900481019282601f10620000fa57805160ff19168380011785556200012b565b828001600101855582156200012b579182015b828111156200012a5782518255916020019190600101906200010d565b5b5090506200013a91906200013e565b5090565b6200016391905b808211156200015f57600081600090555060010162000145565b5090565b90565b6112b080620001766000396000f3fe6080604052600436106100c25760003560e01c80637d98fa111161007f578063c471b73711610059578063c471b7371461045c578063c7303c611461048a578063e9ded3ec14610552578063ec7331e91461057d576100c2565b80637d98fa111461039f5780638da5cb5b146103da578063c028df0614610431576100c2565b806306fdde03146100c75780630b1e7f83146101575780631998aeef146102535780632b70c8fc1461027e57806353e41a54146102a9578063725009d314610364575b600080fd5b3480156100d357600080fd5b506100dc6105a8565b6040518080602001828103825283818151815260200191508051906020019080838360005b8381101561011c578082015181840152602081019050610101565b50505050905090810190601f1680156101495780820380516001836020036101000a031916815260200191505b509250505060405180910390f35b34801561016357600080fd5b506101906004803603602081101561017a57600080fd5b8101908080359060200190929190505050610646565b60405180868152602001806020018581526020018473ffffffffffffffffffffffffffffffffffffffff1673ffffffffffffffffffffffffffffffffffffffff168152602001838152602001828103825286818151815260200191508051906020019080838360005b838110156102145780820151818401526020810190506101f9565b50505050905090810190601f1680156102415780820380516001836020036101000a031916815260200191505b50965050505050505060405180910390f35b34801561025f57600080fd5b50610268610734565b6040518082815260200191505060405180910390f35b34801561028a57600080fd5b5061029361073a565b6040518082815260200191505060405180910390f35b610362600480360360208110156102bf57600080fd5b81019080803590602001906401000000008111156102dc57600080fd5b8201836020820111156102ee57600080fd5b8035906020019184600183028401116401000000008311171561031057600080fd5b91908080601f016020809104026020016040519081016040528093929190818152602001838380828437600081840152601f19601f820116905080830192505050505050509192919290505050610740565b005b34801561037057600080fd5b5061039d6004803603602081101561038757600080fd5b8101908080359060200190929190505050610956565b005b3480156103ab57600080fd5b506103d8600480360360208110156103c257600080fd5b810190808035906020019092919050505061099a565b005b3480156103e657600080fd5b506103ef610a75565b604051808273ffffffffffffffffffffffffffffffffffffffff1673ffffffffffffffffffffffffffffffffffffffff16815260200191505060405180910390f35b34801561043d57600080fd5b50610446610a9b565b6040518082815260200191505060405180910390f35b6104886004803603602081101561047257600080fd5b8101908080359060200190929190505050610aa1565b005b34801561049657600080fd5b50610550600480360360208110156104ad57600080fd5b81019080803590602001906401000000008111156104ca57600080fd5b8201836020820111156104dc57600080fd5b803590602001918460018302840111640100000000831117156104fe57600080fd5b91908080601f016020809104026020016040519081016040528093929190818152602001838380828437600081840152601f19601f820116905080830192505050505050509192919290505050610d1b565b005b34801561055e57600080fd5b50610567610e30565b6040518082815260200191505060405180910390f35b34801561058957600080fd5b50610592610e36565b6040518082815260200191505060405180910390f35b60008054600181600116156101000203166002900480601f01602080910402602001604051908101604052809291908181526020018280546001816001161561010002031660029004801561063e5780601f106106135761010080835404028352916020019161063e565b820191906000526020600020905b81548152906001019060200180831161062157829003601f168201915b505050505081565b6007602052806000526040600020600091509050806000015490806001018054600181600116156101000203166002900480601f0160208091040260200160405190810160405280929190818152602001828054600181600116156101000203166002900480156106f85780601f106106cd576101008083540402835291602001916106f8565b820191906000526020600020905b8154815290600101906020018083116106db57829003601f168201915b5050505050908060020154908060030160009054906101000a900473ffffffffffffffffffffffffffffffffffffffff16908060040154905085565b60025481565b60035481565b610748611177565b61075182610e3c565b90506107a36107946040518060400160405280600481526020017f4249443a00000000000000000000000000000000000000000000000000000000815250610e3c565b82610e6a90919063ffffffff16565b15610847576003600081548092919060010191905055506107c2611177565b6108126108036040518060400160405280600181526020017f3a00000000000000000000000000000000000000000000000000000000000000815250610e3c565b83610ec390919063ffffffff16565b9050606061081f83610edd565b9050600061082c82610f3f565b9050600254811061083f57806002819055505b505050610951565b6108976108886040518060400160405280600681526020017f4f464645523a0000000000000000000000000000000000000000000000000000815250610e3c565b82610e6a90919063ffffffff16565b1561094a576005600081548092919060010191905055506108b6611177565b6109066108f76040518060400160405280600181526020017f3a00000000000000000000000000000000000000000000000000000000000000815250610e3c565b83610ec390919063ffffffff16565b9050606061091383610edd565b905061091e81610f3f565b600481905550600061092f82610f3f565b9050600454811161094257806004819055505b505050610950565b50610953565b5b505b50565b60008111801561096857506001548111155b61097157600080fd5b600760008281526020019081526020016000206002016000815480929190600101919050555050565b6000811180156109ac57506001548111155b6109b557600080fd5b6060600760008381526020019081526020016000206001018054600181600116156101000203166002900480601f016020809104026020016040519081016040528092919081815260200182805460018160011615610100020316600290048015610a615780601f10610a3657610100808354040283529160200191610a61565b820191906000526020600020905b815481529060010190602001808311610a4457829003601f168201915b50505050509050610a7181610d1b565b5050565b600660009054906101000a900473ffffffffffffffffffffffffffffffffffffffff1681565b60045481565b600081118015610ab357506001548111155b610abc57600080fd5b343373ffffffffffffffffffffffffffffffffffffffff163111610adf57600080fd5b610ae7611191565b600760008381526020019081526020016000206040518060a001604052908160008201548152602001600182018054600181600116156101000203166002900480601f016020809104026020016040519081016040528092919081815260200182805460018160011615610100020316600290048015610ba85780601f10610b7d57610100808354040283529160200191610ba8565b820191906000526020600020905b815481529060010190602001808311610b8b57829003601f168201915b50505050508152602001600282015481526020016003820160009054906101000a900473ffffffffffffffffffffffffffffffffffffffff1673ffffffffffffffffffffffffffffffffffffffff1673ffffffffffffffffffffffffffffffffffffffff16815260200160048201548152505090506000816060015190508073ffffffffffffffffffffffffffffffffffffffff166108fc349081150290604051600060405180830381858888f19350505050158015610c6c573d6000803e3d6000fd5b50348260800181815101915081815250508160076000858152602001908152602001600020600082015181600001556020820151816001019080519060200190610cb79291906111d6565b506040820151816002015560608201518160030160006101000a81548173ffffffffffffffffffffffffffffffffffffffff021916908373ffffffffffffffffffffffffffffffffffffffff16021790555060808201518160040155905050505050565b60008151118015610d2e57506102308151105b610d3757600080fd5b6001600081548092919060010191905055506040518060a001604052806001548152602001828152602001600081526020013373ffffffffffffffffffffffffffffffffffffffff1681526020016000815250600760006001548152602001908152602001600020600082015181600001556020820151816001019080519060200190610dc59291906111d6565b506040820151816002015560608201518160030160006101000a81548173ffffffffffffffffffffffffffffffffffffffff021916908373ffffffffffffffffffffffffffffffffffffffff16021790555060808201518160040155905050610e2d81610740565b50565b60055481565b60015481565b610e44611177565b600060208301905060405180604001604052808451815260200182815250915050919050565b6000816000015183600001511015610e855760009050610ebd565b816020015183602001511415610e9e5760019050610ebd565b6000825160208501516020850151828120838320149350505050809150505b92915050565b610ecb611177565b610ed6838383610fb5565b5092915050565b60608082600001516040519080825280601f01601f191660200182016040528015610f175781602001600182028038833980820191505090505b5090506000602082019050610f358185602001518660000151611053565b8192505050919050565b600060608290506000809250600090505b8151811015610fab576000828281518110610f6757fe5b602001015160f81c60f81b60f81c60ff16905060308110158015610f8c575060398111155b15610f9d5760308103600a85020193505b508080600101915050610f50565b8292505050919050565b610fbd611177565b6000610fdb856000015186602001518660000151876020015161109c565b9050846020015183602001818152505084602001518103836000018181525050846000015185602001510181141561101d576000856000018181525050611048565b8360000151836000015101856000018181510391508181525050836000015181018560200181815250505b829150509392505050565b5b602081106110775781518352602083019250602082019150602081039050611054565b60006001826020036101000a0390508019835116818551168181178652505050505050565b6000808490506000868511611167576020851161112157600060018660200360080260020a031960001b905060008186511690506000878a8a0103905060008386511690505b82811461111357818610611100578a8a01965050505050505061116f565b85806001019650508386511690506110e2565b85965050505050505061116f565b60008585209050600091505b8588038211611165576000868420905080821415611151578394505050505061116f565b60018401935050818060010192505061112d565b505b868601925050505b949350505050565b604051806040016040528060008152602001600081525090565b6040518060a00160405280600081526020016060815260200160008152602001600073ffffffffffffffffffffffffffffffffffffffff168152602001600081525090565b828054600181600116156101000203166002900490600052602060002090601f016020900481019282601f1061121757805160ff1916838001178555611245565b82800160010185558215611245579182015b82811115611244578251825591602001919060010190611229565b5b5090506112529190611256565b5090565b61127891905b8082111561127457600081600090555060010161125c565b5090565b9056fea265627a7a723158209ad7e484b0deb0652684025c2c84fe17a5d022c5bf60422cf31f6d9f92cd883764736f6c63430005100032",
  "source": "pragma solidity ^0.5.0;\n\n/* To run a demo on truffle console:\n\tSocialNetwork.deployed().then(function(a) {app=a})\n\tapp.owner().then(function(o) {owner=o})\n\towner\n\tapp.createPost(\"BID:4\")\n\tapp.bid().then(function(b) {bid=b})\n\tbid.toNumber()\n\tapp.bidSize().then(function(b) {bidSize=b})\n\tbidSize.toNumber()\n\tapp.createPost(\"OFFER:4\")\n\tapp.offerSize().then(function(o) {offerSize=o})\n\tofferSize.toNumber()\n\tapp.posts(1).then(function(p) {posts=p})\n\tposts[0].toNumber()\n\tposts[1]\n\tposts[2].toNumber()\n\tposts[3]\n\tposts[4].toNumber()\n\tapp.rewardPost(1, {value: 2})\n\tweb3.eth.getAccounts()\n\tapp.rePost(1)\n*/\n\nimport {strings} from \"strings.sol\";\n\ncontract SocialNetwork {\n\tusing strings for *;\n\n\tstring public name;\n\tuint public numPosts;\n\tuint public bid;\n\tuint public bidSize;\n\tuint public offer;\n\tuint public offerSize;\n\taddress payable public owner;\n\tmapping(uint => Post) public posts;\n\n\tstruct Post {\n\t\tuint id;\n\t\tstring content;\n\t\tuint likes;\n\t\taddress payable author;\n\t\tuint rewards;\n\t}\n\n\tconstructor() public {\n\t\tname = \"Agora\";\n\t\tbid = 5;\n\t\toffer = 10;\n\t\towner = msg.sender;\n\t}\n\n\tfunction createPost(string memory _content) public {\n\t\t// Require content to be longer than 0 bytes and shorter than 560 bytes\n\t\trequire(bytes(_content).length > 0 && bytes(_content).length < 560);\n\n\t\t// Increment num posts\n\t\tnumPosts ++;\n\n\t\t// Store post in mapping\n\t\tposts[numPosts] = Post(numPosts, _content, 0, msg.sender, 0);\n\n\t\t// Check if it's a quote\n\t\tnewQuote(_content);\n\t}\n\n\tfunction newQuote(string memory _content) public payable {\n\t\tstrings.slice memory slice = _content.toSlice();\n\t\tif (slice.startsWith(\"BID:\".toSlice())) {\n\t\t\t// All bids should increment bidSize\n\t\t\tbidSize ++;\n\t\t\t\n\t\t\t// Use imported strings library to help with string util functions\n\t\t\tstrings.slice memory _ = slice.split(\":\".toSlice());\n\t\t\tstring memory order = slice.toString();\n\n\t\t\t// Convert string to uint so we can compare it to market bid\n\t\t\tuint newBid = stringToUint(order);\n\t\t\tif (newBid >= bid) {\n\t\t\t\t// Market bid should always reflect currently best(highest) bid\n\t\t\t\tbid = newBid;\n\t\t\t}\n\t\t}\n\n\t\telse if (slice.startsWith(\"OFFER:\".toSlice())) {\n\t\t\t// All offers should increment offerSize\n\t\t\tofferSize ++;\n\n\t\t\t// Use imported strings library to help with string util functons\n\t\t\tstrings.slice memory _ = slice.split(\":\".toSlice());\n\t\t\tstring memory order = slice.toString();\n\n\t\t\t// Convert string to uint\n\t\t\toffer = stringToUint(order);\n\n\t\t\t// Market offer should always reflect currently best(lowest) offer\n\t\t\tuint newOffer = stringToUint(order);\n\t\t\tif (newOffer <= offer) {\n\t\t\t\toffer = newOffer;\n\t\t\t}\n\t\t}\n\n\t\telse {\n\t\t\treturn;\n\t\t}\n\t}\n\n\tfunction stringToUint(string memory s) internal returns (uint result) {\n\t\tbytes memory b = bytes(s);\n\t\tuint i;\n\t\tresult = 0;\n\t\tfor (i = 0; i < b.length; i++) {\n\t\t\tuint c = uint(uint8(b[i]));\n\t\t\tif (c >= 48 && c <= 57) {\n\t\t\t\tresult = result * 10 + (c - 48);\n\t\t\t}\n\t\t}\n\n\t\treturn result;\n\t}\n\n\tfunction likePost(uint _id) public {\n\t\t// Require id to be greater than 0 and smaller than num posts\n\t\trequire(_id > 0 && _id <= numPosts);\n\n\t\t// Increment the number of likes\n\t\tposts[_id].likes ++;\n\t}\n\n\tfunction rewardPost(uint _id) public payable {\n\t\t// Require id to be greater than 0 and smaller than num posts\n\t\trequire(_id > 0 && _id <= numPosts);\n\n\t\t// Require sufficient balance\n\t\trequire(address(msg.sender).balance > msg.value);\n\n\t\t// Get post\n\t\tPost memory _post = posts[_id];\n\n\t\t// Get author of post\n\t\taddress payable _author = _post.author;\n\n\t\t// Pay author of post\n\t\taddress(_author).transfer(msg.value);\n\n\t\t// Increment post reward\n\t\t_post.rewards += msg.value;\n\n\t\t// Update the post\n\t\tposts[_id] = _post;\n\t}\n\n\tfunction rePost(uint _id) public {\n\t\t// Require id to be greater than 0 and smaller than num posts\n\t\trequire(_id > 0 && _id <= numPosts);\n\n\t\t// Get content of post\n\t\tstring memory _content = posts[_id].content;\n\n\t\t// Repost same content but with current user\n\t\tcreatePost(_content);\n\t}\n}",
  "sourcePath": "/Users/aidenchia/Desktop/dapp/contracts/SocialNetwork.sol",
  "compiler": {
    "name": "solc",
    "version": "0.5.16+commit.9c3226ce.Emscripten.clang"
  },
  "schemaVersion": "3.0.23",
  "updatedAt": "2020-04-09T19:55:18.570Z",
  "networkType": "ethereum",
  "devdoc": {
    "methods": {}
  },
  "userdoc": {
    "methods": {}
  }
}